:100000000C9481110C94A9110C94A9110C94A911B0
:100010000C94A9110C94A9110C94A9110C94A91178
:100020000C94A9110C94A9110C94A9110C94A91168
:100030000C94A9110C94A9110C94A9110C94A91158
:100040000C94BA180C94A9110C9488180C9462188A
:100050000C94A9110C94A9110C94A9110C94A91138
:100060000C94A9110C94A911446F6E652100C7036B
:10007000C403C103C003BE03BC03BA03B903B7037F
:10008000B203B003B003B003AF03AE03AD03AC03E0
:10009000AB03AB03AA03A903A903A803A703A60301
:1000A000A603A503A403A403A303A203A203A2031C
:1000B000A203A103A0039F039D039D039C039C0334
:1000C0009B039A039A039903980398039703970352
:1000D0009603960396039503940394039303930363
:1000E00093039203920391039103900390038F0370
:1000F0008F038E038E038E038D038D038C038C037D
:100100008B038B038A038A0389038903890388038A
:100110008803880387038703860386038503850393
:10012000840384038403830383038203820382039F
:1001300081038103810380038003800380038003A4
:1001400080037F037F037E037E037E037D037D03A5
:100150007D037C037C037C037B037B037B037A03AB
:100160007A037903790379037803780378037803B2
:1001700078037703770377037703760376037503B2
:1001800075037503740374037403730373037303B8
:1001900072037203720372037203710371037103BA
:1001A000700370036F036F036F036E036E036E03C0
:1001B0006D036D036D036D036C036C036C036C03C3
:1001C0006C036B036B036A036A036A0369036903C5
:1001D00069036903680368036803680367036703C7
:1001E00067036603660366036603660365036503C8
:1001F00065036503650365036403640364036303C4
:1002000063036303630362036203620362036203C3
:1002100061036103610360036003600360036003C3
:1002200060035F035F035F035E035E035E035E03C1
:100230005D035D035D035D035C035C035C035C03C2
:100240005B035B035B035B035B035B035A035A03C0
:100250005A035A035A035A035903590359035903BA
:1002600059035903590358035803580358035803B3
:1002700057035703570357035603560356035603B2
:1002800056035503550355035503550355035503AD
:1002900054035403540354035403540353035303A8
:1002A00052035203520351035103510351035103AB
:1002B0005003500350035003500350034F034F03A8
:1002C0004F034E034E034E034E034D034D034D03A8
:1002D0004D034D034D034D034C034C034C034C03A2
:1002E0004C034C034B034B034B034A034A034A039F
:1002F0004A0349034903490349034903490348039E
:100300004803480348034803480348034703470397
:100310004703470347034703460346034603460391
:10032000460346034603450345034503450345038A
:100330004503440344034403440344034303430386
:100340004303430342034203420342034103410385
:100350004103410341034103410340034003400380
:10036000400340033F033F033F033F033F033F037B
:100370003F033E033E033E033E033E033E033D0375
:100380003D033D033D033D033D033D033D033C036E
:100390003C033C033C033B033B033B033B033A036B
:1003A0003A033A033A033A033A033A033A03390366
:1003B0003903390339033903380338033803370362
:1003C0003703370337033703360336033603360361
:1003D0003603360336033603350335033503350359
:1003E0003503350334033403340334033303330355
:1003F0003303330332033203320332033203320353
:100400003203320332033203320331033103310347
:1004100030033003300330032F032F032F032F0348
:100420002E032E032E032E032E032E032E032D0345
:100430002D032D032D032D032C032C032C032C0340
:100440002B032B032B032B032B032B032A032A033E
:100450002A032A032A032A03290329032903290338
:100460002903290328032803280328032703270334
:100470002703270327032703260326032603260330
:10048000260325032503250325032403240324032E
:10049000240323032303230323032303220322032D
:1004A0002203220322032203220322032203210325
:1004B000210321032103210321032003200320031F
:1004C0001F031F031F031F031E031E031E031E0320
:1004D0001E031D031D031D031D031D031D031D031B
:1004E0001D031C031C031C031C031C031B031B0315
:1004F0001B031B031B031B031B031A031A031A030F
:100500001A031A031A031A031A0319031903190306
:100510001903190319031803180318031703170302
:100520001703170316031603160316031503150303
:100530001503150315031403140314031403140300
:1005400013031303130313031303130313031303FB
:1005500013031203120312031203120312031103F3
:1005600011031103110310031003100310030F03F1
:100570000F030F030F030F030E030E030E030E03EF
:100580000E030D030D030D030D030D030C030C03EC
:100590000C030C030C030B030B030B030B030A03E9
:1005A0000A030A030A0309030903090309030903E8
:1005B00008030803080308030803070307030703E6
:1005C00006030603060306030503050305030503E7
:1005D00004030403040304030403030303030303E6
:1005E00003030303020302030203020302030103E2
:1005F0000103010301030003000300030003FF02E2
:10060000FF02FF02FE02FE02FE02FE02FD02FD02EA
:10061000FD02FC02FC02FC02FC02FC02FB02FB02EB
:10062000FB02FB02FB02FA02FA02FA02F902F902E9
:10063000F902F802F802F802F702F702F702F702ED
:10064000F702F602F602F602F602F602F502F502EB
:10065000F502F402F402F402F402F302F302F302EC
:10066000F202F202F202F102F102F102F002F002F1
:10067000F002F002EF02EF02EF02EE02EE02EE02F3
:10068000ED02ED02ED02EC02EC02EC02EB02EB02F9
:10069000EB02EA02EA02EA02EA02E902E902E902FC
:1006A000E802E802E802E802E802E702E702E702FD
:1006B000E702E702E702E702E602E602E602E602F6
:1006C000E602E602E602E602E502E502E502E502EE
:1006D000E502E502E502E502E502E502E502E502E2
:1006E000E402E402E402E402E402E402E402E402DA
:1006F000E302E302E302E302E302E302E302E302D2
:10070000E302E202E202E202E202E202E202E202C8
:10071000E202E102E102E102E102E102E102E102C0
:10072000E102E102E002E002E002E002E002E002B7
:10073000E002E002DF02DF02DF02DF02DF02DF02AF
:10074000DF02DF02DE02DE02DE02DE02DE02DE02A7
:10075000DE02DE02DE02DD02DD02DD02DD02DD029E
:10076000DD02DD02DD02DD02DD02DC02DC02DC0294
:10077000DC02DC02DC02DC02DC02DB02DB02DB028C
:10078000DB02DB02DB02DB02DA02DA02DA02DA0285
:10079000DA02DA02D902D902D902D902D902D80280
:1007A000D802D802D802D702D702D702D702D6027F
:1007B000D602D602D602D502D502D502D502D4027F
:1007C000D402D402D402D302D302D302D302D2027F
:1007D000D202D202D102D102D102D002D002D00282
:1007E000D002CF02CF02CF02CE02CE02CE02CE0284
:1007F000CD02CD02CD02CD02CC02CC02CC02CC0285
:10080000CB02CB02CB02CB02CA02CA02CA02CA0284
:10081000C902C902C902C902C802C802C802C80284
:10082000C702C702C702C702C602C602C602C60284
:10083000C502C502C502C502C502C402C402C40283
:10084000C402C302C302C302C302C302C202C20281
:10085000C202C202C102C102C102C102C102C0027F
:10086000C002C002C002BF02BF02BF02BF02BE027E
:10087000BE02BE02BE02BE02BD02BD02BD02BD027C
:10088000BC02BC02BC02BC02BB02BB02BB02BB027C
:10089000BA02BA02BA02BA02B902B902B902B9027C
:1008A000B902B802B802B802B802B702B702B7027A
:1008B000B702B602B602B602B602B502B502B5027A
:1008C000B502B402B402B402B402B302B302B3027A
:1008D000B202B202B202B202B102B102B102B1027C
:1008E000B002B002B002B002AF02AF02AF02AF027C
:1008F000AE02AE02AE02AE02AD02AD02AD02AD027C
:10090000AC02AC02AC02AB02AB02AB02AB02AA027D
:10091000AA02AA02A902A902A902A902A802A8027F
:10092000A802A702A702A702A702A602A602A60281
:10093000A502A502A502A502A402A402A402A30284
:10094000A302A302A302A202A202A202A102A10286
:10095000A102A102A002A002A0029F029F029F0288
:100960009F029E029E029E029D029D029D029D028A
:100970009C029C029C029B029B029B029A029A028E
:100980009A029A0299029902990298029802980290
:100990009802970297029702960296029602950293
:1009A0009502950295029402940294029302930296
:1009B0009302930292029202920291029102910298
:1009C000910290029002900290028F028F028F0299
:1009D0008E028E028E028E028D028D028D028D029B
:1009E0008C028C028C028B028B028B028A028A029E
:1009F0008A028902890289028902880288028802A1
:100A000087028702870286028602860285028502A5
:100A100085028402840284028302830283028202AA
:100A200082028202820281028102810280028002AD
:100A3000800280027F027F027F027E027E027E02AF
:100A40007D027D027D027D027C027C027C027B02B3
:100A50007B027B027A027A027A02790279027902B7
:100A600078027802780277027702770276027602BD
:100A700076027502750275027402740273027302C3
:100A800073027202720272027102710271027002CA
:100A9000700270026F026F026F026F026E026E02CE
:100AA0006E026D026D026D026C026C026C026C02D1
:100AB0006B026B026B026A026A026A0269026902D5
:100AC00069026902680268026802680267026702D6
:100AD00067026702660266026602660265026502D6
:100AE00065026502640264026402640263026302D6
:100AF00063026202620262026202610261026102D8
:100B000061026002600260025F025F025F025F02D8
:100B10005E025E025E025D025D025D025C025C02DC
:100B20005C025B025B025B025A025A0259025902E2
:100B300059025802580258025702570256025602EA
:100B400056025502550255025402540253025302F2
:100B500053025202520252025102510251025002F9
:100B600050024F024F024F024E024E024E024D0201
:100B70004D024D024C024C024C024B024B024B0206
:100B80004A024A024A02490249024902480248020C
:100B90004802470247024702460246024602450211
:100BA0004502450244024402440243024302430216
:100BB000420242024202410241024102400240021C
:100BC00040023F023F023E023E023E023D023D0223
:100BD0003D023C023C023C023B023B023B023A0229
:100BE0003A023A0239023902380238023802370230
:100BF0003702370236023602350235023502340238
:100C00003402330233023302320232023102310241
:100C10003102300230022F022F022E022E022E024B
:100C20002D022D022C022C022B022B022A022A0258
:100C30002902290228022802270227022602260268
:100C40002502250224022402230223022202220278
:100C5000210221022002200220021F021F021E0286
:100C60001E021D021D021C021C021C021B021B0292
:100C70001A021A021902190218021802180217029F
:100C800017021602160215021502150214021402AA
:100C900013021302120212021102110211021002B7
:100CA00010020F020F020E020E020D020D020C02C4
:100CB0000C020C020B020B020A020A0209020902D0
:100CC00008020802070207020602060206020502DF
:100CD00005020402040203020302020202020202EB
:100CE00001020102000200020002FF01FF01FF01F8
:100CF000FE01FE01FE01FD01FD01FC01FC01FC0104
:100D0000FB01FB01FA01FA01FA01F901F901F8010D
:100D1000F801F801F701F701F601F601F501F50117
:100D2000F401F401F401F301F301F201F201F10124
:100D3000F101F001F001EF01EF01EE01EE01ED0133
:100D4000EC01EB01EB01EA01E901E901E801E7014E
:100D5000E701E601E501E401E401E301E201E2016A
:100D6000E101E001DF01DF01DE01DD01DC01DB018A
:100D7000DB01DA01D901D801D801D701D601D501AB
:100D8000D501D401D301D201D201D101D001D001CA
:100D9000CF01CE01CD01CD01CC01CB01CB01CA01E8
:100DA000C901C801C801C701C601C601C501C40106
:100DB000C301C301C201C101C101C001BF01BF0123
:100DC000BE01BE01BD01BD01BC01BC01BB01BA0138
:100DD000BA01B901B901B801B801B701B701B6014B
:100DE000B601B501B401B401B301B301B201B2015E
:100DF000B101B001B001AF01AF01AE01AD01AD0174
:100E0000AC01AC01AB01AB01AA01A901A901A80188
:100E1000A801A701A601A501A401A301A201A101A6
:100E2000A001A0019F019E019D019C019B019A01CF
:100E300099019901980197019601950194019301F7
:100E400092019201910190018F018E018D018C011F
:100E50008B018A018A018901880187018601860147
:100E60008501850184018301830182018201810161
:100E70008101800180017F017E017E017D017D0174
:100E80007C017C017B017B017A017A017901790186
:100E9000780177017701760176017501750174019A
:100EA00074017301730172017201710171017001AA
:100EB00070016F016F016E016E016D016D016C01BA
:100EC0006C016B016B016A016A01690169016801CA
:100ED00068016701660166016501640164016301DF
:100EE000620162016101600160015F015E015D01FB
:100EF0005D015C015B015B015A0159015801580118
:100F00005701560155015501540153015201510138
:100F1000510150014F014E014D014D014C014B015A
:100F20004A01490148014801470146014501440180
:100F3000430142014201410140013F013E013D01A7
:100F40003C013B013A0139013801370136013501D5
:100F5000340133013201310130012E012D012C0108
:100F60002B012A012901280127012601250124013D
:100F700023012201210120011F011E011D011C016D
:100F80001B011A011901180117011601160115019B
:100F90001401130112011201110110010F010F01BF
:100FA0000E010D010C010B010B010A0109010801E1
:100FB0000701070106010501040103010301020104
:100FC00001010001FF00FF00FE00FD00FC00FB002E
:100FD000FB00FA00F900F800F700F700F600F50052
:100FE000F400F300F200F200F100F000EF00EE0078
:100FF000EE00ED00EC00EB00EA00E900E800E7009D
:10100000E600E400E300E200E100E000DF00DE00D3
:10101000DD00DC00DB00D900D800D700D600D50009
:10102000D400D300D100D000CF00CE00CD00CC0042
:10103000CA00C900C800C700C600C500C300C2007E
:10104000C100C000BE00BD00BC00BB00BA00B800BB
:10105000B700B600B500B300B200B100AF00AE00FB
:10106000AD00AC00AA00A900A800A600A500A4003D
:10107000A300A100A0009F009E009C009B009A007E
:1010800099009700960095009400920091009000BE
:101090008F008D008C008B008A00890087008600FD
:1010A000850084008300810080007F007E007D0039
:1010B0007C007B007A007800770076007500740071
:1010C00073007200710070006F006E006D006C00A4
:1010D0006B006A00690068006700660065006400D4
:1010E000640063006200610060005F005E005D00FC
:1010F0005C005B005B005A00590058005700560026
:101100005600550054005300520051005100500049
:101110004F004E004E004D004C004B004B004A006B
:101120004900490048004700460046004500440089
:1011300044004300420042004100400040003F00A4
:101140003F003E003D003D003C003C003B003B00BA
:101150003800350032002F002B0028002600240024
:1011600021001E001B0019001600140012001000C0
:101170000D000A000800060003000000204F4B008D
:10118000204661696C00C603C303C003BE03BC03F1
:10119000B903B703B503B303AC03A903A803A803BA
:1011A000A603A503A403A203A103A0039F039E0318
:1011B0009D039B039A039903970396039503940356
:1011C000930392039203910390038F038E038B0387
:1011D00089038803870386038503840383038203CB
:1011E00081037F037E037D037C037C037B037A03FF
:1011F000780377037603750375037403730372032F
:10120000710370036F036E036D036C036A0369035C
:101210006803670366036503640363036303620390
:10122000610360035F035E035D035C035B035A03BA
:1012300059035803570356035503540353035203EA
:10124000510350034F034E034D034C034C034B0318
:101250004A03490348034703460345034403430342
:101260004203410340033F033E033E033D033C036F
:101270003B033A033903380337033603350334039A
:10128000330332033103310330032F032E032D03C5
:101290002C032B032A0329032803270326032503F2
:1012A000240323032203210320031F031F031E0320
:1012B0001D031C031B031A0319031803170316034A
:1012C0001503140313031203110310030F030E037A
:1012D0000D030C030B030A030903080307030603AA
:1012E0000603050304030303020301030003FF02D3
:1012F000FE02FD02FC02FB02FA02F902F802F7020A
:10130000F602F502F402F302F302F202F102F00235
:10131000EF02EE02ED02EC02EB02EA02E902E80261
:10132000E702E602E502E502E402E302E202E1028C
:10133000E002DF02DE02DD02DC02DC02DB02DA02B6
:10134000D902D802D702D602D502D402D302D202E1
:10135000D102D102D002CF02CE02CD02CC02CB020A
:10136000CA02C902C802C702C602C602C502C40236
:10137000C302C202C102C102C002C002BF02BF0258
:10138000BE02BE02BD02BD02BC02BC02BB02BA026A
:10139000B902B802B802B702B602B502B402B4028A
:1013A000B302B202B102B002AF02AE02AD02AC02B1
:1013B000AB02AA02A902A802A702A502A402A302E4
:1013C000A202A1029F029E029D029C029B029A021F
:1013D0009902980297029602950294029302920251
:1013E000910290028F028E028D028C028B028A0281
:1013F00089028902880287028602850284028302AA
:101400008202810280027F027E027D027C027B02D8
:101410007B027A0279027802770276027502740200
:10142000730272027202710270026F026E026D022A
:101430006C026B026A026902680267026602650258
:10144000640263026202610260025F025F025E0286
:101450005D025C025B025A025902580257025602B0
:101460005502540253025202510250024F024E02E0
:101470004D024C024B024A02490248024702460210
:1014800045024502440243024202410240023F0239
:101490003E023D023C023B023A023A023902380265
:1014A000370236023502340234023302320231028C
:1014B00030022F022E022D022C022B022A022902B8
:1014C00028022802270226022602250224022302DD
:1014D0002202210220021F021E021D021C021B0208
:1014E0001B021A0219021802170216021502140230
:1014F000140213021202110210020F020E020D0258
:101500000D020C020B020A0209020802070206027F
:101510000602050204020302020201020002FF01A8
:10152000FE01FD01FC01FB01FA01F901F801F701DF
:10153000F701F601F501F401F301F201F101F00107
:10154000EF01EF01EE01ED01EC01EB01EA01E90130
:10155000E801E701E701E601E501E401E301E20159
:10156000E101E001DF01DE01DD01DC01DB01DA0187
:10157000D901D801D701D601D501D501D401D301B4
:10158000D201D101D001CF01CE01CD01CD01CC01DD
:10159000CB01CA01CA01C901C801C701C601C60100
:1015A000C501C401C301C301C201C101C001BF0122
:1015B000BF01BE01BD01BC01BC01BB01BA01B90143
:1015C000B801B801B701B601B501B401B401B30166
:1015D000B201B101B101B001AF01AE01AD01AC0189
:1015E000AC01AB01AA01A901A901A801A701A601AB
:1015F000A601A501A401A401A301A201A201A101C8
:10160000A101A0019F019F019E019E019D019C01DE
:101610009B019B019A0199019901980197019601FB
:101620009601950194019401930192019201910117
:1016300090018F018F018E018D018D018C018B0135
:101640008A018A0189018801880187018601860152
:10165000850184018401830183018201810181016B
:10166000800180017F017E017E017D017C017C0182
:101670007B017A017901790178017701770176019F
:1016800075017401740173017201720171017001BD
:101690006F016F016E016D016D016C016B016B01DA
:1016A0006A016901690168016701670166016501F5
:1016B00065016401630162016101610160015F0113
:1016C0005E015E015D015C015C015B015A015A0132
:1016D000590159015801570157015601550155014A
:1016E0005401540153015201520151015001500162
:1016F0004F014E014E014D014C014C014B014A017D
:101700004A01490149014801470147014601460193
:1017100045014401440143014301420141014101AA
:10172000400140013F013E013E013D013C013C01C1
:101730003B013A013A0139013801380137013701DB
:1017400036013501340134013301320131013101F7
:1017500030012F012F012E012D012D012C012B0114
:101760002B012A012901290128012801270126012D
:101770002601250124012401230122012201210146
:10178000200120011F011E011E011D011C011C0161
:101790001B011A011A01190118011801170116017C
:1017A000150115011401130112011201110110019B
:1017B00010010F010E010E010D010D010C010C01B4
:1017C0000C010B010B010B010B010A010A010A01BB
:1017D0000A010901090109010901080108010801BB
:1017E00008010801080108010801070107010701B4
:1017F00007010701070107010701070106010601AB
:1018000006010601060105010501050105010501A5
:1018100004010401040104010401040103010301A2
:10182000030103010301020102010201020102019D
:10183000010101010101010101010001000100019B
:1018400000010001FF00FF00FF00FF00FF00FF009C
:10185000FE00FE00FE00FE00FE00FD00FD00FD009B
:10186000FD00FD00FC00FC00FC00FC00FC00FB0097
:10187000FB00FB00FB00FB00FB00FB00FA00FA0092
:10188000FA00FA00FA00FA00F900F900F900F9008C
:10189000F900F800F800F800F800F700F700F7008A
:1018A000F700F700F600F600F600F600F500F50088
:1018B000F400F400F400F300F300F200F200F20090
:1018C000F100F100F000F000F000EF00EF00EE009A
:1018D000EE00EE00ED00ED00EC00EC00EC00EB00A3
:1018E000EB00EA00EA00EA00E900E900E800E800AD
:1018F000E800E700E700E600E600E600E500E500B6
:10190000E400E400E400E300E300E200E200E100C0
:10191000E100E100E000E000DF00DF00DF00DE00CA
:10192000DE00DE00DD00DD00DC00DC00DC00DB00D2
:10193000DB00DB00DB00DA00DA00DA00D900D900D6
:10194000D900D800D800D800D800D700D700D700D9
:10195000D600D600D600D500D500D500D500D400DD
:10196000D400D400D300D300D300D300D200D200DF
:10197000D200D200D100D100D100D000D000D000E0
:10198000CF00CF00CF00CF00CE00CE00CE00CD00E4
:10199000CD00CD00CC00CC00CC00CC00CB00CB00E7
:1019A000CB00CA00CA00CA00C900C900C900C800EB
:1019B000C800C800C800C700C700C700C600C600EE
:1019C000C600C500C500C500C500C400C400C400F1
:1019D000C300C300C300C300C200C200C200C200F3
:1019E000C100C100C100C000C000C000C000BF00F5
:1019F000BF00BF00BF00BE00BE00BE00BE00BD00F5
:101A0000BD00BD00BC00BC00BC00BC00BB00BB00F6
:101A1000BB00BB00BA00BA00BA00B900B900B900F7
:101A2000B800B800B800B800B700B700B700B600FB
:101A3000B600B600B500B500B500B400B400B400FF
:101A4000B400B300B300B300B200B200B200B10002
:101A5000B100B100B000B000B000B000AF00AF0006
:101A6000AF00AE00AE00AE00AD00AD00AD00AD0009
:101A7000AC00AC00AC00AC00AB00AB00AB00AA000B
:101A8000AA00AA00AA00A900A900A900A900A8000C
:101A9000A800A800A800A700A700A700A700A6000C
:101AA000A600A600A500A500A500A500A400A4000E
:101AB000A400A400A300A300A300A300A200A2000E
:101AC000A200A200A100A100A100A100A000A0000E
:101AD000A000A0009F009F009F009F009F009E000D
:101AE0009E009E009E009E009D009D009D009D000A
:101AF0009C009C009C009C009C009B009B009B0009
:101B00009B009A009A009A009A0099009900990007
:101B10009900980098009800980097009700970007
:101B20009700960096009600960095009500950007
:101B30009500940094009400940094009300930006
:101B40009300930093009200920092009200920002
:101B50009100910091009100910090009000900000
:101B6000900090008F008F008F008F008F008E00FC
:101B70008E008E008E008D008D008D008D008D00FA
:101B80008C008C008C008C008B008B008B008B00F9
:101B90008B008A008A008A008A00890089008900F7
:101BA00089008900880088008800880088008700F4
:101BB00087008700870087008700860086008600F0
:101BC00086008600850085008500850085008500EB
:101BD00084008400840084008400840083008300E7
:101BE00083008300830083008200820082008200E1
:101BF00082008100810081008100810081008000DD
:101C0000800080008000800080007F007F007F00D7
:101C10007F007F007E007E007E007E007E007E00D2
:101C20007D007D007D007D007D007C007C007C00CF
:101C30007C007C007B007B007B007B007B007A00CB
:101C40007A007A007A007A007900790079007900C8
:101C500078007800780078007800770077007700C7
:101C600077007700760076007600760076007500C3
:101C700075007500750075007400740074007400C0
:101C800074007300730073007300730073007200BC
:101C900072007200720072007100710071007100B8
:101CA00071007000700070007000700070006F00B4
:101CB0006F006F006F006F006F006E006E006E00AF
:101CC0006E006E006E006D006D006D006D006D00A9
:101CD0006D006C006C006C006C006C006C006B00A4
:101CE0006B006B006B006B006B006A006A006A009F
:101CF0006A006A006900690069006900690069009A
:101D00006800680068006800680067006700670096
:101D10006700670066006600660066006600650092
:101D2000650065006500650064006400640064008F
:101D3000640063006300630063006300620062008C
:101D40006200620062006100610061006100600089
:101D500060006000600060005F005F005F005F0087
:101D60005F005E005E005E005E005E005D005D0084
:101D70005D005D005D005C005C005C005C005C0080
:101D80005B005B005B005B005B005B005A005A007D
:101D90005A005A005A005900590059005900590078
:101DA0005900580058005800580058005800570073
:101DB000570057005700570056005600560056006F
:101DC0005600560055005500550055005500550069
:101DD0005400540054005400540054005300530065
:101DE000530053005300530052005200520052005F
:101DF0005200520051005100510051005100510059
:101E00005100510050005000500050005000500050
:101E1000500050004F004F004F004F004F004F0048
:101E20004F004F004E004E004E004E004E004E0040
:101E30004E004D004D004D004D004D004D004D0039
:101E40004C004C004C004C004C004C004C004B0033
:101E50004B004B004B004B004A004A004A004A002E
:101E60004A0049004900490049004800480048002C
:101E7000480048004700470047004700460046002A
:101E80004600460046004500450045004500450027
:101E90004400440044004400440043004300430025
:101EA000430043004300420042004200420042001F
:101EB000420041004100410041004100410040001A
:101EC000400040004000400040003F003F003F0015
:101ED0003F003F003F003F003E003E003E003E000E
:101EE0003E003E003E003D003D003D003D003D0007
:101EF0003D003D003C003C003C003C003C003C0000
:101F00003B003B003B003B003B003B003B003A00FA
:101F10003A003A003A003A003A003A0039003900F3
:101F200039003900390039003900380038003800EC
:101F300038003800370037003700370037003700E7
:101F400036003600360036003600360035003500E3
:101F500035003500350035003400340034003400DD
:101F600034003400330033003300330033003300D7
:101F700032003200320032003200320032003100D2
:101F800031003100310031003100310031003000CA
:101F900030003000300030003000300030003000C1
:101FA0002F002F002F002F002F002F002F002F00B9
:101FB0002F002E002E002E002E002E002E002E00B0
:101FC0002E002E002D002D002D002D002D002D00A7
:101FD0002D002D002D002D002C002C002C002C009D
:101FE0002C002C002C002C002C002C002C002B0092
:101FF0002B002B002B002B002B002B002B002B0089
:102000002A002A002A002A002A002A002A002A0080
:102010002A00290029002900290029002900290077
:10202000290029002800280028002800280028006E
:102030002800280028002700270027002700270065
:10204000270027002700260026002600260026005D
:102050002600260025002500250025002500250056
:102060002500240024002400240024002400230050
:10207000230023002300230023002200220022004B
:102080002200220022002100210021002100210045
:10209000210020002000200020002000200020003F
:1020A0001F001F001F001F001F001F001F001F0038
:1020B0001E001E001E001E001E001E001E001E0030
:1020C0001D001D001D001D001D001D001D001D0028
:1020D0001C001C001C001C001C001C001C001C0020
:1020E0001C001B001B001B001B001B001B001B0017
:1020F0001B001B001A001A001A001A001A001A000E
:102100001A001A001A001A00190019001900190003
:1021100019001900190019001900180018001800FA
:1021200018001800180018001800170017001700F2
:1021300017001700170017001700160016001600EA
:1021400016001600160016001600150015001500E2
:1021500015001500150015001500140014001400DA
:1021600014001400140014001300130013001300D3
:1021700013001300130012001200120012001200CC
:1021800012001100110011001100110011001000C7
:102190001000100010001000100010000F000F00C1
:1021A0000F000F000F000F000E000E000E000E00BB
:1021B0000E000E000E000D000D000D000D000D00B4
:1021C0000D000C000C000C000C000C000C000C00AE
:1021D0000C000B000B000B000B000B000B000B00A6
:1021E0000B000B000A000A000A000A000A000A009D
:1021F0000A000A000A000900090009000900090094
:102200000900090009000900090009000800080088
:10221000080008000800080008000800080008007E
:102220000800080008000700070007000700070073
:102230000700070007000700070007000700070066
:10224000070007000700070006000600060006005A
:10225000060006000600060006000600060006004E
:102260000600060006000600050005000500050042
:102270000500040004000400040003000300030040
:102280000300020002000200020001000100010040
:10229000010000004C52532074686973207363720C
:1022A00065656E00553D666C61736820443D6368EA
:1022B00065636B00A0B0A8B8A4B4ACBCA2B2AABAC3
:1022C000A6B6AEBE49324320616464722E203078D7
:1022D0003530004E6F20454550524F4D20617400FF
:1022E0005620302E303320202028632920454300FB
:1022F000414256207461626C6520666C61736800AF
:10230000041911241FBECFEFD8E0DEBFCDBF11E00E
:10231000A0E0B1E0ECE1F7E302C005900D92AE3130
:10232000B107D9F722E0AEE1B1E001C01D92A634B9
:10233000B207E1F711E1C1E8D1E104C02197FE0144
:102340000E94861BC038D107C9F70E94A1190C94BE
:102350008C1B0C940000FC01538D448D252F30E024
:10236000842F90E0821B930B541710F0CF960895A2
:1023700001970895FC01918D828D981761F0A28DCF
:10238000AE0FBF2FB11D5D968C91928D9F5F9F7395
:10239000928F90E008958FEF9FEF0895FC01918D4B
:1023A000828D981731F0828DE80FF11D858D90E0B8
:1023B00008958FEF9FEF0895FC01918D228D892F55
:1023C00090E0805C9F4F821B91098F73992708953D
:1023D000FC01A48DA80FB92FB11DA35ABF4F2C919A
:1023E000848D90E001968F739927848FA689B78991
:1023F0002C93A089B1898C91837080648C93938D88
:10240000848D981306C00288F389E02D80818F7D2A
:1024100080830895EF92FF920F931F93CF93DF93E2
:10242000EC0181E0888F9B8D8C8D98131AC0E88910
:10243000F989808185FF15C09FB7F894EE89FF89DF
:102440006083E889F98980818370806480839FBF7D
:1024500081E090E0DF91CF911F910F91FF90EF907D
:102460000895F62E0B8D10E00F5F1F4F0F7311278D
:10247000E02E8C8D8E110CC00FB607FCFACFE889C8
:10248000F989808185FFF5CFCE010E94E811F1CF57
:10249000EB8DEC0FFD2FF11DE35AFF4FF0829FB73C
:1024A000F8940B8FEA89FB8980818062CFCFCF932C
:1024B000DF93EC01888D8823B9F0AA89BB89E8896C
:1024C000F9898C9185FD03C0808186FD0DC00FB612
:1024D00007FCF7CF8C9185FFF2CF808185FFEDCF90
:1024E000CE010E94E811E9CFDF91CF91089585E5F3
:1024F00091E00E94DC1121E0892B09F420E0822F79
:10250000089580E090E0892B29F00E9477128111D4
:102510000C9400000895AF92BF92CF92DF92EF9299
:10252000FF920F931F93CF93DF936C017B018B017D
:10253000040F151FEB015E01AE18BF08C017D107CD
:1025400059F06991D601ED91FC910190F081E02D57
:10255000C6010995892B79F7C501DF91CF911F91AC
:102560000F91FF90EF90DF90CF90BF90AF900895C4
:102570003FB7F8948091290190912A01A0912B01F5
:10258000B0912C0126B5A89B05C02F3F19F00196EC
:10259000A11DB11D3FBFBA2FA92F982F8827BC01BD
:1025A000CD01620F711D811D911D42E0660F771FE5
:1025B000881F991F4A95D1F708958F929F92AF92E5
:1025C000BF92CF92DF92EF92FF924B015C010E948B
:1025D000B8126B017C010E94B8126C197D098E093A
:1025E0009F09683E734081059105A8F321E0821A96
:1025F0009108A108B10888EEC80E83E0D81EE11C3E
:10260000F11C81149104A104B10429F7FF90EF900B
:10261000DF90CF90BF90AF909F908F9008952FB78D
:10262000F894609125017091260180912701909185
:1026300028012FBF0895CF92DF92EF92FF92CF93A0
:10264000DF930E940F136B017C0184E98093BC002F
:10265000C0915301D09154018091BC0084FF1FC0F0
:102660002097D1F30E940F13AB01BC014C195D09F7
:102670006E097F09CE01B0E0A0E0481759076A074C
:102680007B0730F31092BC0084E48093BC0081E0AF
:10269000DF91CF91FF90EF90DF90CF90089580E091
:1026A000F7CFCF92DF92EF92FF92CF93DF93809399
:1026B000BB000E940F136B017C0184E88093BC0077
:1026C000C0915301D09154018091BC0087FD20C07E
:1026D0002097D1F30E940F13AB01BC014C195D0987
:1026E0006E097F09CE01B0E0A0E0481759076A07DC
:1026F0007B0730F31092BC0084E48093BC00C1E0FF
:102700008C2FDF91CF91FF90EF90DF90CF900895C5
:102710008091B900887FC0E0883291F3C091B90000
:10272000C87F8091B900887F803319F40E941B1301
:10273000E7CF1092BC0084E48093BC00E1CFCF923D
:10274000DF92EF92FF92CF93DF938093BB000E94C2
:102750000F136B017C0184E88093BC00C09153018E
:10276000D09154018091BC0087FD20C02097D1F307
:102770000E940F13AB01BC014C195D096E097F0962
:10278000CE01B0E0A0E0481759076A077B0730F395
:102790001092BC0084E48093BC00C1E08C2FDF91D8
:1027A000CF91FF90EF90DF90CF9008958091B90086
:1027B000887F8831D9F08091B900887F8034B1F06A
:1027C000C091B900C87F8091B900887F803259F0EC
:1027D0008091B900887F883431F01092BC0084E485
:1027E0008093BC00DBCF0E941B13D8CFC0E0D6CFB4
:1027F000CF92DF92EF92FF92CF93DF930E940F135D
:102800006B017C0184EA8093BC00C0915301D0919C
:1028100054018091BC0087FD1FC02097D1F30E9416
:102820000F13AB01BC014C195D096E097F09CE0184
:10283000B0E0A0E0481759076A077B0730F3109211
:10284000BC0084E48093BC0081E0DF91CF91FF90D5
:10285000EF90DF90CF9008958091B900887F883005
:10286000B9F08091B900887F803191F08091B900F2
:10287000887F883349F48091B900887F1092BC002A
:1028800094E49093BC00E1CF8091B900887FDDCFC4
:1028900080E0DBCFEF92FF920F931F93CF93DF93F4
:1028A0008C017B01D0E0C0E00E94F81380EA0E9416
:1028B0009F13C8018C0F9D1F892F0E9451138C2FCD
:1028C000800F0E945113F701EC0FFD1F84910E94AD
:1028D00051132196CE3081E1D80738F4C8018C0F0E
:1028E0009D1F8F739927892B71F70E941B1365E039
:1028F00070E080E090E00E94DD12CE3081E1D807E8
:1029000098F2CE01DF91CF911F910F91FF90EF9040
:1029100008951F93CF93DF93182FD62FC42F1092B3
:1029200031010E94F81380933101811116C0812F6B
:10293000880F0E949F1380933101882321F08130FA
:1029400061F482E00AC08D2F0E94511380933101FF
:10295000882339F0813009F483E0DF91CF911F9112
:1029600008958C2F0E945113809331018111F2CF71
:102970000E941B1380933101882379F3813069F71A
:1029800087E0EBCFCF92DF92EF92FF92CF93DF936E
:10299000C82F0E940F136B017C0184ECC11101C090
:1029A00084E88093BC00C0915301D0915401809180
:1029B000BC0087FD1FC02097D1F30E940F13AB010D
:1029C000BC014C195D096E097F09CE01B0E0A0E0A1
:1029D000481759076A077B0730F31092BC0084E45C
:1029E0008093BC0081E0DF91CF91FF90EF90DF906A
:1029F000CF9008958091B900887F883349F4809101
:102A0000B900887F1092BC0094E49093BC00EBCF97
:102A10008091B900887FE7CFCF93DF936F70E62F67
:102A2000F0E0EC54FD4DE491EC01C05BDF4F6881B8
:102A30006170E62B41110CC0E88388810E9451131C
:102A4000888190E289278883DF91CF910C9451137C
:102A5000EF77F2CF0F931F93CF93DF93EC01162FF5
:102A6000042F70E084E0759567958A95E1F7CE01B3
:102A70000E940C15402F612FCE01DF91CF911F9145
:102A80000F910C940C15EF92FF920F931F93CF931D
:102A90007C01FC01C4910E94F81380E40E949F1302
:102AA00089E10E94511310E000E0CC2369F040E07E
:102AB0006C2F82EF91E00E942A150F5F1F4FF701E4
:102AC000E00FF11FC491F1CF0E941B13C801CF91F9
:102AD0001F910F91FF90EF9008950F931F93CF9345
:102AE000DF93EC01162F042F0E94F81380E40E945C
:102AF0009F1389E10E945113402F612FCE010E9444
:102B00002A15DF91CF911F910F910C941B1341E077
:102B100061E082EF91E00E946D1586E080934402AF
:102B200062E070E080E090E00C94DD12CF92DF92E2
:102B3000EF92FF920F931F93CF93DF937C016B0172
:102B40008A010E94F81380E40E949F1389E10E9489
:102B50005113E601C00ED11ECC15DD0531F069918F
:102B600040E0C7010E942A15F7CF0E941B13C8013D
:102B7000DF91CF911F910F91FF90EF90DF90CF9059
:102B8000089540E00E946D1581E090E00895CF9295
:102B9000DF92EF92FF921F93CF93DF93EC01162FFA
:102BA000888599858130910509F178F08230910509
:102BB00009F45AC0039709F499C0DF91CF911F918E
:102BC000FF90EF90DF90CF90089581E090E0662332
:102BD000A1F3998788870E940F136E5C7F4F8F4FF8
:102BE0009F4F6A877B878C879D87E7CF0E940F1353
:102BF000CA84DB84EC84FD846C157D058E059F05FD
:102C0000E0F2112371F182E090E0998788870E94B9
:102C10000F136C507E4F8F4F9F4F6A877B878C8737
:102C20009D878091220190912301892B79F4D09383
:102C30002301C093220181E02091220130912301E0
:102C40002C173D0709F080E08E87B7CF80912001D7
:102C500090912101892B79F7D0932101C093200114
:102C6000EACF19861886A9CF611103C083E090E0EE
:102C7000B0CF0E940F13CA84DB84EC84FD846C15F2
:102C80007D058E059F0508F498CF0E940F136650AE
:102C90007F4F8F4F9F4F6A877B878C879D878E855D
:102CA000882309F48ACFEA81FB81309739F080913B
:102CB0001E0190911F01892B09F40995EE81FF8176
:102CC000309729F080911E0190911F010995EC81A8
:102CD000FD81309709F0099580911E0190911F01A7
:102CE000019690931F0180931E0167CF0E940F13DE
:102CF000CA84DB84EC84FD846C157D058E059F05FC
:102D000008F45BCF111125C0198618868E8588239B
:102D100059F0E881F981309739F080911E01909146
:102D20001F01892B09F409958091220190912301BB
:102D30008C179D0709F041CF10921F0110921E01C0
:102D40001092230110922201109221011092200171
:102D500034CF82E090E0998788872FCF089590E064
:102D600080E00895CF93DF930E948715C2EFD1E0F2
:102D7000E3E4F2E060816D7F608341E0CE010E9478
:102D80006D1584EA92E20E94431541E060ECCE01A9
:102D90000E946D1584E992E20E9443151F821E82F3
:102DA000198618861B861A861DA21CA21FA21EA2A7
:102DB00019A618A61CAA1BAA1EAA1DAA18AE1FAAED
:102DC0001E8A1D8A188E1F8A1A8E198E109235023D
:102DD0001092340210923702109236021092390289
:102DE0001092380284E298E19BA38AA388E897E1D5
:102DF0009AAB89AB82EB96E19C8B8B8B9D838C830A
:102E00009093330280933202DF91CF9108950F9314
:102E10001F93CF93DF93182F092F0E94F81380EA96
:102E20000E949F13802F0E945113812F0E945113E3
:102E30000E94F81381EA0E949F1381E00E94C2144D
:102E4000813029F0D0E0803511F4D091BB0080E0D2
:102E50000E94C214813029F0C0E0883511F4C0917D
:102E6000BB000E941B138D2F9C2FDF91CF911F91D0
:102E70000F9108958F929F92AF92BF920F931F93DD
:102E8000CF93DF93CDB7DEB7A1970FB6F894DEBF2F
:102E90000FBECDBF19A2423008F44AE08E010F5D8B
:102EA0001F4F842E912CB12CA12CA50194010E94BE
:102EB000641BE62FB901CA01EA3044F5E05DD80190
:102EC000EE938D01232B242B252B79F790E080E0C6
:102ED000109769F0FD0101900020E9F73197AF01EB
:102EE0004A1B5B0BBD0182EF91E00E949615A196F3
:102EF0000FB6F894DEBF0FBECDBFDF91CF911F910B
:102F00000F91BF90AF909F908F900895E95CD7CFBD
:102F1000AF92BF92CF92DF92EF92FF920F931F93E7
:102F2000CF93DF930E94871506E811E1C12CD12CC5
:102F30007601D0E0C0E041E060E882EF91E00E94DD
:102F40006D154AE0C701B6010E943A17F801A59035
:102F5000B490C801865891410E9407178A159B05B5
:102F600009F0219641E068E882EF91E00E946D153A
:102F7000BE0190E080E04AE00E943A178FEFC81A45
:102F8000D80AE80AF80A0E5F1F4F87E8C81688E0DB
:102F9000D806E104F10479F680E891E1CD2B11F433
:102FA0008CE791E10E9443150EE610E0C12CD12C74
:102FB0007601D0E0C0E041E060EC82EF91E00E9459
:102FC0006D154AE0C701B6010E943A17F801A590B5
:102FD000B49020912D0130912E01C8018E56904061
:102FE000820F931F0E9407178A159B0509F02196EF
:102FF00041E068EC82EF91E00E946D15BE0190E027
:1030000080E04AE00E943A178FEFC81AD80AE80A0F
:10301000F80A0E5F1F4F87E8C81688E0D806E1045B
:10302000F10449F680E891E1CD2B11F48CE791E1B0
:10303000DF91CF911F910F91FF90EF90DF90CF9094
:10304000BF90AF900C944315CF93DF930E948715E8
:1030500066E871E190E080E00E944A14EC01BC0156
:1030600090E080E040E10E943A17D0932E01C09397
:103070002D016EE670E0CE010E944A14C80FD91FE0
:1030800041E067E882EF91E00E946D15BE0190E09B
:1030900080E040E10E943A1741E060EC82EF91E06D
:1030A0000E946D15C8E6D0E0FE016491219666236A
:1030B00031F040E082EF91E00E946D15F5CFDF9195
:1030C000CF9108951F920F920FB60F9211242F9354
:1030D0003F934F935F936F937F938F939F93AF93A0
:1030E000BF93EF93FF9385E591E00E94E811FF9174
:1030F000EF91BF91AF919F918F917F916F915F9170
:103100004F913F912F910F900FBE0F901F901895E8
:103110001F920F920FB60F9211242F938F939F93AC
:10312000EF93FF93E0916501F09166018081E0915A
:103130006B01F0916C0182FD1BC0908180916E014A
:103140008F5F8F7320916F01821741F0E0916E01C4
:10315000F0E0EB5AFE4F958F80936E01FF91EF9157
:103160009F918F912F910F900FBE0F901F901895E8
:103170008081F4CF1F920F920FB60F9211242F93DC
:103180003F938F939F93AF93BF938091250190912D
:103190002601A0912701B09128013091240123E05C
:1031A000230F2D3758F50196A11DB11D2093240141
:1031B0008093250190932601A0932701B0932801C5
:1031C0008091290190912A01A0912B01B0912C01AD
:1031D0000196A11DB11D8093290190932A01A0930E
:1031E0002B01B0932C01BF91AF919F918F913F9193
:1031F0002F910F900FBE0F901F90189526E8230F68
:103200000296A11DB11DD2CFE5E5F1E01382128235
:1032100088EE93E0A0E0B0E084839583A683B78333
:1032200084E091E09183808385EC90E095878487AA
:1032300084EC90E09787868780EC90E0918B808B80
:1032400081EC90E0938B828B82EC90E0958B848B69
:1032500086EC90E0978B868B118E128E138E148ED7
:10326000E2EFF1E01382128286E191E091838083A4
:103270001582148217821682118610861386128692
:1032800016861786108A118A15861486128A148A61
:10329000138A168A158A108E178A128E118E158E31
:1032A000168E178E10A2148E138E11A213A212A2C4
:1032B00015A214A217A216A211A610A614A615A64E
:1032C00016A617A613A612A610AA12AA11AA14AA25
:1032D00013AA16AA15AA10AE17AA13AE14AE15AEED
:1032E00016AE12AE11AE17AE109233021092320229
:1032F0001092350210923402109237021092360268
:10330000109239021092380210923C0210923D0243
:1033100010923E0210923F0210923B0210923A022B
:103320001092400280EC8093410281E2809342023D
:103330008CE08093430286E0809344021092450221
:103340000895789484B5826084BD84B5816084BD1D
:1033500085B5826085BD85B5816085BD80916E0033
:10336000816080936E001092810080918100826064
:1033700080938100809181008160809381008091A1
:1033800080008160809380008091B1008460809390
:10339000B1008091B00081608093B00080917A008C
:1033A000846080937A0080917A00826080937A00B2
:1033B00080917A00816080937A0080917A008068A1
:1033C00080937A001092C100449A459A8091B90086
:1033D0008E7F8093B9008091B9008D7F8093B90072
:1033E00088E48093B80084E48093BC008CE08093F0
:1033F000B8008AE090E0909354018093530164E612
:1034000070E080E090E00E94DD1248EA6BE080E22C
:103410000E9489144091410269E080E20E9489146F
:103420004FE360E080E20E9489144FE366E080E2AF
:103430000E9489144091420269E180E20E9489144D
:1034400040E060E180E20E9489144FE161E080E2A7
:103450000E9489140E94F81380E40E949F1389E15E
:103460000E94511341E063E082EF91E00E940C154D
:1034700065E070E080E090E00E94DD1241E063E0F2
:1034800082EF91E00E940C1541E063E082EF91E051
:103490000E940C1541E062E082EF91E00E940C1561
:1034A00041E068E282EF91E00E942A1541E06091DC
:1034B000430282EF91E00E942A1541E060914402AC
:1034C00082EF91E00E942A150E941B130E9487152B
:1034D00041E062E082EF91E00E946D1562E070E0F1
:1034E00080E090E00E94DD128091450297E081111A
:1034F00098EF8091410290FD52C080648093410218
:103500008091410291FD4DC080688093410280917D
:10351000420292FD48C08160809342024091410284
:1035200069E080E20E9489144091420269E180E2F0
:103530000E9489148EE091E190932E0180932D01D9
:1035400080EF92E20E94431541E060EC82EF91E04F
:103550000E946D1580EE92E20E94431560ED77E0C7
:1035600080E090E00E94DD120E94F8138823E9F0C9
:103570000E94871541E060E882EF91E00E946D159E
:1035800083ED92E20E94431541E060EC82EF91E00E
:103590000E946D1584EC92E20E944315FFCF8F7B51
:1035A000ADCF8F77B2CF8E7FB7CF80EA0E949F13C7
:1035B0008111DECF0E941B130E94B21600E010E0C2
:1035C0001092300110923201109231010E94F813D2
:1035D00080933101811132C080E40E949F13809357
:1035E000310181112BC089E00E9451138093310178
:1035F000811124C00E94F8138093310181111EC0F3
:1036000081E40E949F1380933101811117C0809142
:103610003201811150C00E94C2148093310188355B
:1036200069F48091BB008093330181E08093300185
:1036300080932F010E941B1380933101C0913001B0
:10364000CC2359F0E0912F018FEF8C0F8093300144
:10365000EC1BF0E0EF5CFE4FC281C4FB662760F913
:1036600086EF91E00E94C715C3FB662760F984E1ED
:1036700092E00E94C715C2FB662760F983E292E0E0
:103680000E94C715C1FB662760F985E092E00E94A1
:10369000C7156C2F617082E392E00E94C715011577
:1036A000110509F48DCF0E947712882309F488CF81
:1036B0000E94000085CF81E00E94C21480933101F6
:1036C000803509F4AECFBACFA1E21A2EAA1BBB1BDC
:1036D000FD010DC0AA1FBB1FEE1FFF1FA217B307DE
:1036E000E407F50720F0A21BB30BE40BF50B661FF4
:1036F000771F881F991F1A9469F7609570958095B8
:1037000090959B01AC01BD01CF010895EE0FFF1F05
:0C3710000590F491E02D0994F894FFCF8F
:10371C00000000000A128B12AB115712DC11BA1107
:0E372C00CE1100000000C1159615AF16AE16A6
:00000001FF
