:100000000C94E8020C9410030C9410030C9410034D
:100010000C9410030C9410030C9410030C942B2CD0
:100020000C9410030C9410030C944F2D0C94F82D89
:100030000C9410030C9410030C9410030C941003F4
:100040000C94052D0C9410030C94D32C0C94AD2C13
:100050000C9410030C9410030C9410030C941003D4
:100060000C9410030C94100308000000BE92244965
:10007000123EABAAAA2ABECDCCCC4C3E00000080DA
:10008000BEABAAAAAA3E00000000BF000000803F4D
:100090000000000000084178D3BB4387D1133D190D
:1000A0000E3CC3BD4282AD2B3E68EC8276BED98F3A
:1000B000E1A93E4C80EFFFBE01C4FF7F3F0000007E
:1000C000000000407A10F35A00A0724E1809001088
:1000D000A5D4E80000E87648170000E40B540200BD
:1000E00000CA9A3B000000E1F505000080969800E8
:1000F000000040420F000000A08601000000102711
:1001000000000000E80300000000640000000000A0
:100110000A00000000000100000000002C76D888D2
:10012000DC674F0823DFC1DFAE59E1B1B796E5E3E5
:10013000E453C63AE651997696E8E6C28426EB89FE
:100140008C9B62ED407C6FFCEFBC9C9F40F2BAA59B
:100150006FA5F490055A2AF75C936B6CF9676DC133
:100160001BFCE0E40D47FEF520E6B500D0ED902E37
:100170000300943577050080841E080000204E0A95
:10018000000000C80C333333330F986E12831141D3
:10019000EF8D2114893BE65516CFFEE6DB18D1849E
:1001A0004B381BF77C1D901DA4BBE42420328472C5
:1001B0005E228100C9F124ECA1E53D272D2D2D2ED5
:1001C0002D2D0044657669636520646574616368FC
:1001D000656400466C617368206D6F756E7465644C
:1001E0000054696D652C4261726F2C5661706F729C
:1001F000542C5661706F724142562C426F696C6587
:1002000072542C426F696C65724142562C56656E71
:100210007431542C56656E7432542C436F6F6C617C
:100220006E74542C426F696C6572502C416C617213
:100230006D003230252E3268642D252E3268642DF3
:10024000252E32686454252E3268643A252E326891
:10025000643A252E326864002F52554E5F30302E9E
:1002600043535600416C61726D005761726D656455
:10027000207570004F6B0042656570730053696CA8
:10028000656E7400204653003320252E32686425A5
:1002900025203420252E32686425252020252E3265
:1002A000686443003120252E3268642525203220E1
:1002B000252E32686425252020424C52005320749C
:1002C0006F2073657474696E677300567072204F87
:1002D00066667300426C72204F66667300426C72F1
:1002E000502000426C725020202020252E3268645D
:1002F00020636D48324F00436C6E7420202020250F
:100300002E326864204300252E346864206D562FF9
:100310006B506100426C72502073656E7369746932
:1003200076697479005320746F2072657475726EEB
:100330000042502048324F002068506100252E3284
:1003400068643A252E3268643A252E3268640025A6
:100350002E3268642D252E3268642D3230252E32DF
:1003600068640043616E63656C6564005361766523
:100370006400203C2000464F524553002D2D2E2D69
:1003800025004C6F7720414256005661706F7220F5
:1003900000466F72657320696D6D696E656E7400DD
:1003A000426F696C65722000566E74322000566E82
:1003B00074312000426C725020257320636D4832E6
:1003C0004F00436C6E7420005320746F2073746F61
:1003D00070206C6F6720004E6F20666C6173682020
:1003E0006472697665005320746F2073746172744F
:1003F000206C6F67004C6F6720746F20555342006C
:1004000048484D4D53532020252E3268643A252EFE
:100410003268643A252E3268640059594D4D44447F
:100420002020252E3268642F252E3268642F252E39
:1004300032686400A0B0A8B8A4B4ACBCA2B2AABA96
:10044000A6B6AEBE005EBCE2613FDD83C29C7E20EC
:10045000A3FD1F419DC3217FFCA2401E5F01E3BDA0
:100460003E6082DC237D9FC1421CFEA0E1BF5D0394
:1004700080DE3C62BEE0025CDF81633D7C22C09E88
:100480001D43A1FF4618FAA427799BC584DA386674
:10049000E5BB5907DB856739BAE406581947A5FB60
:1004A0007826C49A653BD987045AB8E6A7F91B4554
:1004B000C6987A24F8A6441A99C7257B3A6486D848
:1004C0005B05E7B98CD2306EEDB3510F4E10F2AC34
:1004D0002F7193CD114FADF3702ECC92D38D6F3120
:1004E000B2EC0E50AFF1134DCE90722C6D33D18F14
:1004F0000C52B0EE326C8ED0530DEFB1F0AE4C1208
:1005000091CF2D73CA947628ABF517490856B4EAF3
:100510006937D58B5709EBB536688AD495CB2977DF
:10052000F4AA4816E9B7550B88D6346A2B7597C9D3
:100530004A14F6A8742AC896154BA9F7B6E80A54C7
:10054000D7896B3500000008000201000003040792
:100550000000000000000000000000002400270050
:100560002A004D4B3120302E302E312020466C6138
:1005700073680065506172726F7420205247422088
:100580004C4344004261726F004E6F000000000057
:10059000250028002B00022D2D2E2D00010204081D
:1005A00010204080010204081020010204081020DD
:1005B00000000000230026002900040404040404B1
:1005C0000404020202020202030303030303372EA0
:1005D00011241FBECFEFD8E0DEBFCDBF11E0A0E0F9
:1005E000B1E0EAECF7E702C005900D92A835B1073B
:1005F000D9F724E0A8E5B1E001C01D92A530B2070B
:10060000E1F712E0C8EED2E004C02197FE010E949B
:10061000BA3BC73ED107C9F70E948D2F0C94E33B2C
:100620000C9400008CBD9DBD089580913F028823ED
:1006300059F0E09140029FEF980F90933F02E81B22
:10064000F0E0E35EFD4F82810895E2E0F3E0158281
:10065000148217821682118610861386128613A2C0
:1006600012A215A214A217A216A211A610A612AACF
:1006700011AA14AA13AA16AA15AA10AE17AA148AA8
:10068000138A168A158A108E178A128E118E10926E
:1006900043031092420310924503109244031092B8
:1006A000470310924603109249031092480308959D
:1006B000AF92BF92CF92DF92EF92FF920F931F9370
:1006C000CF93DF93DC0128E030E081E0AA24AA94F4
:1006D000B12C0FE010E043E2E42EF12C57EDC52ED3
:1006E000D12C9C911196ED91FC911297592F509518
:1006F000462F482359F1F894428145234283418192
:10070000492B4183E7012197F1F74281942B928392
:100710007894F6013197F1F7880F2150310909F7E4
:10072000F8941196ED91FC91129791818C9180959E
:10073000892381837894DF91CF911F910F91FF904E
:10074000EF90DF90CF90BF90AF900895F8944281E2
:10075000452342834181492B4183E5012197F1F7EC
:100760004281942B92837894F801D4CFFC01538D6D
:10077000448D252F30E0842F90E0821B930B54177B
:1007800010F0CF96089501970895FC01918D828D08
:10079000981761F0A28DAE0FBF2FB11D5D968C91A1
:1007A000928D9F5F9F73928F90E008958FEF9FEFE0
:1007B0000895FC01918D828D981731F0828DE80F9C
:1007C000F11D858D90E008958FEF9FEF0895FC0156
:1007D000918D228D892F90E0805C9F4F821B910923
:1007E0008F7399270895FC01A48DA80FB92FB11D0F
:1007F000A35ABF4F2C91848D90E001968F73992757
:10080000848FA689B7892C93A089B1898C91837034
:1008100080648C93938D848D981306C00288F3892D
:10082000E02D80818F7D80830895EF92FF920F935A
:100830001F93CF93DF93EC0181E0888F9B8D8C8D8C
:1008400098131AC0E889F989808185FF15C09FB780
:10085000F894EE89FF896083E889F9898081837043
:10086000806480839FBF81E090E0DF91CF911F91F2
:100870000F91FF90EF900895F62E0B8D10E00F5F13
:100880001F4F0F731127E02E8C8D8E110CC00FB6E9
:1008900007FCFACFE889F989808185FFF5CFCE0181
:1008A0000E94F303F1CFEB8DEC0FFD2FF11DE35A06
:1008B000FF4FF0829FB7F8940B8FEA89FB89808104
:1008C0008062CFCFCF93DF93EC01888D8823B9F07E
:1008D000AA89BB89E889F9898C9185FD03C080814B
:1008E00086FD0DC00FB607FCF7CF8C9185FFF2CFC8
:1008F000808185FFEDCFCE010E94F303E9CFDF9128
:10090000CF9108958DE492E00E94E70321E0892BC6
:1009100009F420E0822F089580E090E0892B29F0EF
:100920000E94820481110C94000008954F925F92FE
:100930006F927F928F929F92AF92BF92CF92DF92EF
:10094000EF92FF92CF93C090DF01D090E001E09052
:10095000E101F090E2018091DD019091DE01892BAF
:1009600009F47FC08090E7019090E801A090E90130
:10097000B090EA0120E030E0A901C501B4010E9475
:10098000173A18160CF06DC0C091EE026C2F70E093
:1009900090E080E00E946739A70196010E94173A13
:1009A00018160CF05EC06C2F70E090E080E00E94A2
:1009B0006539A70196010E944B382B013C01A50126
:1009C0009401C701B6010E944B389B01AC01C301E1
:1009D000B2010E94BD3820E030E040E05FE30E94B9
:1009E0004C384B015C0120E030E0A9010E94B8388E
:1009F00070E060E087FD10C020E038E74BEB55E485
:100A0000C501B4010E94173A6FE677E1181624F089
:100A1000C501B4010E942F397093EC016093EB0182
:100A20008091EB019091EC018F36974121F4109267
:100A3000EC011092EB01C092E701D092E801E09244
:100A4000E901F092EA01CF91FF90EF90DF90CF9013
:100A5000BF90AF909F908F907F906F905F904F90DE
:100A600008951092EC011092EB01DACF10929E01E2
:100A7000E0916D01F0916E010994DC01ED91FC9122
:100A80000190F081E02D0994EF92FF920F931F9354
:100A9000CF93DF938C017B01D0E0C0E0F701EC0F36
:100AA000FD1F6491662361F0D801ED91FC910190E6
:100AB000F081E02DC8010995892B11F02196EECF28
:100AC000CE01DF91CF911F910F91FF90EF9008958C
:100AD000AF92BF92CF92DF92EF92FF920F931F934C
:100AE000CF93DF936C017B018B01040F151FEB018A
:100AF0005E01AE18BF08C017D10759F06991D60141
:100B0000ED91FC910190F081E02DC6010995892BB2
:100B100079F7C501DF91CF911F910F91FF90EF9071
:100B2000DF90CF90BF90AF900895833081F028F48C
:100B3000813099F08230A9F008958730A9F088308B
:100B4000C9F08430B1F4809180008F7D03C0809122
:100B500080008F7780938000089584B58F7784BD5F
:100B6000089584B58F7DFBCF8091B0008F778093FF
:100B7000B00008958091B0008F7DF9CF1F93CF937F
:100B8000DF93282F30E0F901EC5BFA4F8491F901F3
:100B9000E456FA4FD491F901E654FA4FC491CC23AC
:100BA000A9F0162F81110E949505EC2FF0E0EE0FB1
:100BB000FF1FE457FA4FA591B4918FB7F894EC91C9
:100BC000111108C0D095DE23DC938FBFDF91CF9148
:100BD0001F910895DE2BF8CFCF93DF9390E0FC01B7
:100BE000E456FA4F249186549A4FFC01849188234D
:100BF000D1F090E0880F991FFC01E85AFA4FA591B7
:100C0000B491FC01E457FA4FC591D49161110EC023
:100C10009FB7F8948C91E22FE0958E238C932881D6
:100C2000E223E8839FBFDF91CF9108958FB7F894B7
:100C3000EC91E22BEC938FBFF6CF4F925F926F92C5
:100C40007F928F929F92AF92BF92CF92DF92EF925C
:100C5000FF920F931F93CF938C014A015B01809108
:100C60000201823099F08F3F09F491C0CF911F911A
:100C70000F91FF90EF90DF90CF90BF90AF909F903B
:100C80008F907F906F905F904F900895E6E9F5E028
:100C9000C491C7FDEBCF61E082E00E94EC05CC235C
:100CA00019F0C23009F0E4C02801712C612C68E40D
:100CB00078EE81E090E0A30198010E94653B690114
:100CC0007A0181E0C81AD108E108F108CC2309F4BF
:100CD0000BC1C23009F0CAC08FEFC816D104E104BD
:100CE000F10409F00CF40AC164E274EF80E090E0D2
:100CF000A30198010E94653B69017A0181E0C81A4D
:100D0000D108E108F10895E08FEFC816D104E1049D
:100D1000F10409F008F4F3C062E17AE780E090E0C2
:100D2000A30192010E94653B69017A0181E0C81A22
:100D3000D108E108F108C111E9C094E085B5887FC8
:100D4000892B85BDC0E0D801AA0FBB1FA501940166
:100D50000E94933B28EE33E040E050E00E94433B8A
:100D6000C13009F49FC0C23009F4AEC0C1117ECFBA
:100D7000C7BC2093C1013093C2014093C30150937B
:100D8000C40180916E00826080936E006FCF82E01C
:100D900080930201E6E9F5E0C491CF3F09F466CF04
:100DA000C13021F150F0C23009F43EC0C7FD5ECF22
:100DB00061E082E00E94EC0574CF14BC15BC84B5E0
:100DC000826084BD85B5816085BDECEBF5E0E49182
:100DD000F0E0EE0FFF1FE457FA4F85919491EEE992
:100DE000F5E0E491E093B801C0E055CF10928000A7
:100DF00010928100809181008860809381008091B1
:100E00008100816080938100ECEBF5E0E491F0E0FB
:100E1000EE0FFF1FE457FA4F85919491EEE9F5E04C
:100E2000E491E093B70137CF1092B0001092B10077
:100E30008091B00082608093B0008091B1008160A9
:100E40008093B100ECEBF5E0E491F0E0EE0FFF1FD2
:100E5000E457FA4F859194919093B6018093B50130
:100E6000EEE9F5E0E491E093B40115CF94E04CCFC6
:100E7000980150E040E060E072E18AE790E00E9473
:100E8000653B69017A0181E0C81AD108E108F108DF
:100E9000C13009F058CF80918100887F81608093B4
:100EA000810051CFD0928900C09288002093BD016B
:100EB0003093BE014093BF015093C00180916F00F9
:100EC000826080936F00D2CEC092B3002093B901AC
:100ED0003093BA014093BB015093BC0180917000E4
:100EE000826080937000C2CE93E08FEFC816D10469
:100EF000E104F10411F00CF00FCF20CF94E08091C9
:100F0000B100887F892B8093B1001DCF96E0F7CF89
:100F10003FB7F8948091940190919501A09196012A
:100F2000B091970126B5A89B05C02F3F19F00196F7
:100F3000A11DB11D3FBFBA2FA92F982F8827BC0133
:100F4000CD01620F711D811D911D42E0660F771F5B
:100F5000881F991F4A95D1F708958F929F92AF925B
:100F6000BF92CF92DF92EF92FF924B015C010E9401
:100F700088076B017C010E9488076C197D098E0926
:100F80009F09683E734081059105A8F321E0821A0C
:100F90009108A108B10888EEC80E83E0D81EE11CB4
:100FA000F11C81149104A104B10429F7FF90EF9082
:100FB000DF90CF90BF90AF909F908F9008952FB704
:100FC000F8946091900170919101809192019091BB
:100FD00093012FBF0895CF92DF92EF92FF92CF93AC
:100FE000DF930E94DF076B017C0184E98093BC00E2
:100FF000C0911B02D0911C028091BC0084FF1FC0D5
:101000002097D1F30E94DF07AB01BC014C195D09A9
:101010006E097F09CE01B0E0A0E0481759076A07C2
:101020007B0730F31092BC0084E48093BC0081E025
:10103000DF91CF91FF90EF90DF90CF90089580E007
:10104000F7CFCF92DF92EF92FF92CF93DF93C82F2B
:101050000E94DF076B017C0184ECC11101C084E8B0
:101060008093BC00C0911B02D0911C028091BC00F7
:1010700087FD1FC02097D1F30E94DF07AB01BC01A1
:101080004C195D096E097F09CE01B0E0A0E0481758
:1010900059076A077B0730F31092BC0084E4809301
:1010A000BC0081E0DF91CF91FF90EF90DF90CF9077
:1010B00008958091B900887F883349F48091B90000
:1010C000887F1092BC0094E49093BC00EBCF809199
:1010D000B900887FE7CFCF92DF92EF92FF92CF9354
:1010E000DF938093BB000E94DF076B017C0184E8E3
:1010F0008093BC00C0911B02D0911C028091BC0067
:1011000087FD20C02097D1F30E94DF07AB01BC010F
:101110004C195D096E097F09CE01B0E0A0E04817C7
:1011200059076A077B0730F31092BC0084E4809370
:10113000BC00C1E08C2FDF91CF91FF90EF90DF904A
:10114000CF9008958091B900887F8831D9F080913F
:10115000B900887F8034B1F0C091B900C87F809118
:10116000B900887F803259F08091B900887F883437
:1011700031F01092BC0084E48093BC00DBCF0E946D
:10118000EB07D8CFC0E0D6CFCF92DF92EF92FF929D
:10119000CF93DF930E94DF076B017C0184EA809389
:1011A000BC00C0911B02D0911C028091BC0087FD45
:1011B0001FC02097D1F30E94DF07AB01BC014C197F
:1011C0005D096E097F09CE01B0E0A0E0481759071C
:1011D0006A077B0730F31092BC0084E48093BC0064
:1011E00081E0DF91CF91FF90EF90DF90CF90089555
:1011F0008091B900887F8830B9F08091B900887FEC
:10120000803191F08091B900887F883349F48091D2
:10121000B900887F1092BC0094E49093BC00E1CFA9
:101220008091B900887FDDCF80E0DBCFCF92DF9265
:10123000EF92FF92CF93DF938093BB000E94DF0772
:101240006B017C0184E88093BC00C0911B02D091AB
:101250001C028091BC0087FD20C02097D1F30E9422
:10126000DF07AB01BC014C195D096E097F09CE0196
:10127000B0E0A0E0481759076A077B0730F31092E7
:10128000BC0084E48093BC00C1E08C2FDF91CF913F
:10129000FF90EF90DF90CF9008958091B900887F04
:1012A000C0E0883291F3C091B900C87F8091B90045
:1012B000887F803319F40E94EB07E7CF1092BC00BF
:1012C00084E48093BC00E1CF0F931F93CF93DF930F
:1012D000D82F162F10923F02C1E0442321F0C42FD3
:1012E000413208F0C0E28FEF8C0F80931E02109203
:1012F0001D020E94C40880931D0281113CC0DD0FB5
:101300008D2F0E946B0880931D02882321F081306D
:1013100091F582E030C0812F0E94160980931D0252
:10132000882321F0813039F583E025C00E94C4086C
:1013300080931D02882321F08130E9F484E01BC0F2
:1013400081E08D0F0E946B0880931D020FE112E077
:10135000D0E0882321F0813071F485E00CC08091C9
:101360001E028D1325C080E00E94210880931D027B
:10137000813031F486E0DF91CF911F910F91089574
:101380008835C9F78091BB00F80181938F01DF5F39
:10139000D0933F02D0934002CD13E1CF0E94EB07E0
:1013A00080931D02882339F3813029F787E0E3CF4A
:1013B00081E00E94210880931D028130D9F280359E
:1013C00009F3D9CF1F93CF93DF9347E060E088E61E
:1013D0000E9464090E941503CFEFD3E0982F9295E5
:1013E0009F701AE08F70919F800D11248D830E9451
:1013F0001503982F92959F708F70919F800D1124E7
:101400008C830E941503982F92959F708F70919FE7
:10141000800D11248B830E9415030E941503982FC1
:1014200092959F708F70919F800D11248A830E94E6
:101430001503282F30E094E0359527959A95E1F72C
:1014400023708F70219F800D112489830E941503C2
:10145000982F92959F708F70919F800D1124888393
:10146000DF91CF911F9108951F93CF93DF93182F92
:10147000D62FC42F10921D020E94C40880931D0213
:10148000811116C0812F880F0E946B0880931D0266
:10149000882321F0813061F482E00AC08D2F0E9400
:1014A000160980931D02882339F0813009F483E006
:1014B000DF91CF911F9108958C2F0E941609809380
:1014C0001D028111F2CF0E94EB0780931D02882339
:1014D00079F3813069F787E0EBCF0C94340A90916F
:1014E0005503911180959091510380FD27C0906420
:1014F000909351039091510381FD22C09068909385
:1015000051039091520382FD1DC09160909352034C
:1015100040915103042E000C550B69E070E080E20D
:1015200090E00E946D0A40915203042E000C550B6E
:1015300069E170E080E290E00C946D0A9F7BD8CF67
:101540009F77DDCF9E7FE2CFCF93DF9341E060EDC9
:10155000809156030E946409882311F090E026C010
:101560000E9415038835D1F748E168E88091560359
:101570000E9464098111F2CFC9E5D3E00E941503EE
:10158000899383E0C137D807C9F740EA65EF8091B6
:1015900056030E94340A8111E1CF47E264EF809143
:1015A00056030E94340A91E08111D8CF892FDF9130
:1015B000CF910895CF93809152038062809352031C
:1015C0000E9416090E94EB0741E069E180E20E9457
:1015D00064090E941503C82F80915203817C809377
:1015E00052030E94C40880E40E946B0889E10E94B3
:1015F0001609809152030E941609C4FB882780F9BE
:10160000C3FD8260C2FD8460C1FD8860CF910895F2
:10161000CF93C82F4EE150E060E170E080E290E0AF
:101620000E946D0A0E94C40880E40E946B0889E150
:101630000E941609809152038170CC2341F080648E
:101640008093520380915203CF910C941609806CC1
:10165000F7CF10928E0110928D0110928C01109292
:1016600088011092890110928A0110928B011092C8
:1016700084011092850110928601109287019C01CD
:10168000A0E8BEE30E94843B6093800170938101D7
:10169000809382019093830110928000E1E8F0E052
:1016A000108210928500109284001092890010928E
:1016B000880081E4808382E286BB80936F00089576
:1016C0004F925F926F927F928F929F92AF92BF9252
:1016D000CF92DF92EF92FF920F931F93CF93DF93FE
:1016E000EC016CEC888199810E9458036EEBDE015D
:1016F0008D919D918D010E945803AE01455F5F4F12
:10170000902EA12E67E070E083E2E82EF12C9FEC92
:10171000C92ED12C4880598088E090E0812C772414
:101720007394F201B0800180F281E02DF89432814F
:101730006B2C60943621328331813B293183DB016C
:101740001197F1F721812621218322812B292283E0
:10175000D7011197F1F720817894F6013197F1F7CD
:10176000B22209F08728770C0197D9F6F801819207
:101770008F01E417F50771F6A92DBA2D89E090E0E5
:10178000815039F0ED91E927F0E0EC5BFB4F94914B
:10179000F7CF81E02A85291380E0DF91CF911F9157
:1017A0000F91FF90EF90DF90CF90BF90AF909F9000
:1017B0008F907F906F905F904F9008950E94EB07FD
:1017C00050E040E060E170E080E290E00C946D0A4F
:1017D000CF9381E00E94080B0E94DA0AC82F0E9472
:1017E000DA0AC295C07FC80F0E94DE0B8C2FCF9102
:1017F0000895CF9380E00E94080B0E94DA0AC82F58
:101800000E94DA0AC295C07FC80F0E94DE0B8C2F9F
:10181000CF910895CF93DF936F70E62FF0E0EC5CEB
:10182000FB4FE491EC01C05BDF4F68816170E62BF8
:1018300041110CC0E88388810E941609888190E2DA
:1018400089278883DF91CF910C941609EF77F2CF27
:101850000F931F93CF93DF93EC01162F042F70E0AB
:1018600084E0759567958A95E1F7CE010E940A0C90
:10187000402F612FCE01DF91CF911F910F910C94DA
:101880000A0CEF92FF920F931F93CF937C01FC0100
:10189000C4910E94C40880E40E946B0889E10E9400
:1018A000160910E000E0CC2369F040E06C2F82E0E4
:1018B00093E00E94280C0F5F1F4FF701E00FF11F0C
:1018C000C491F1CF0E94EB07C801CF911F910F91F6
:1018D000FF90EF9008950F931F93CF93DF93EC0148
:1018E000162F042F0E94C40880E40E946B0889E12F
:1018F0000E941609402F612FCE010E94280CDF9113
:10190000CF911F910F910C94EB076295660F660FB4
:10191000607C680F606841E082E093E00C946B0C9F
:10192000E3E5F3E060816260608341E082E093E0A0
:101930000C946B0C41E064E182E093E00C946B0C3E
:10194000E3E5F3E060816D7F608341E082E093E056
:101950000C946B0C41E060E182E093E00C946B0C22
:1019600041E061E082E093E00E946B0C86E08093AE
:10197000540362E070E080E090E00C94AD07CF92F9
:10198000DF92EF92FF920F931F93CF93DF937C012F
:101990006B018A010E94C40880E40E946B0889E1FF
:1019A0000E941609E601C00ED11ECC15DD0531F0EE
:1019B000699140E0C7010E94280CF7CF0E94EB0715
:1019C000C801DF91CF911F910F91FF90EF90DF90B1
:1019D000CF90089540E00E946B0C81E090E0089564
:1019E000CF92DF92EF92FF921F93CF93DF93EC01A0
:1019F000162F888599858130910509F178F082301C
:101A0000910509F45AC0039709F499C0DF91CF9169
:101A10001F91FF90EF90DF90CF90089581E090E0CC
:101A20006623A1F3998788870E94DF076E5C7F4F4A
:101A30008F4F9F4F6A877B878C879D87E7CF0E9458
:101A4000DF07CA84DB84EC84FD846C157D058E057C
:101A50009F05E0F2112371F182E090E09987888779
:101A60000E94DF076C507E4F8F4F9F4F6A877B87A6
:101A70008C879D8780917A0190917B01892B79F4E5
:101A8000D0937B01C0937A0181E020917A0130915B
:101A90007B012C173D0709F080E08E87B7CF80913E
:101AA000780190917901892B79F7D0937901C093CE
:101AB0007801EACF19861886A9CF611103C083E0A7
:101AC00090E0B0CF0E94DF07CA84DB84EC84FD8401
:101AD0006C157D058E059F0508F498CF0E94DF07E1
:101AE00066507F4F8F4F9F4F6A877B878C879D877C
:101AF0008E85882309F48ACFEA81FB81309739F0FB
:101B00008091760190917701892B09F40995EE81F6
:101B1000FF81309729F080917601909177010995A6
:101B2000EC81FD81309709F00995809176019091C3
:101B300077010196909377018093760167CF0E9499
:101B4000DF07CA84DB84EC84FD846C157D058E057B
:101B50009F0508F45BCF111125C0198618868E8564
:101B6000882359F0E881F981309739F08091760126
:101B700090917701892B09F4099580917A019091D0
:101B80007B018C179D0709F041CF109277011092CD
:101B9000760110927B0110927A01109279011092D5
:101BA000780134CF82E090E0998788872FCFFC01BD
:101BB00090810180F281E02DF8942281392F3095B7
:101BC000232322832181292B21837894ABE7B7E05B
:101BD0001197F1F7F8948181832381838281892B86
:101BE0008283A3E1B1E01197F1F780817894A3E6B5
:101BF000B6E01197F1F72081292319F0982381E0AD
:101C000009F080E00895CF930E94E80BC82F0E944E
:101C1000A00CCE3039F070F441E06FECC830A9F080
:101C2000CB3081F460E08EEF8C0F0E94850CCF9159
:101C30000C94900CCB34B1F3CE34A1F341E06FE8B7
:101C4000C83419F00E94AA0CF2CF82E093E00E94FF
:101C50006B0CEDCFCF930E94E80BC82F0E94A00C15
:101C6000CF30C1F060F4C93011F0CC3081F460E0C5
:101C700082E08C0F0E94850CCF910C94900CCC3498
:101C8000B1F341E068E8CF3439F0C93481F30E9400
:101C90009A0CF2CF41E068EC82E093E00E946B0C7A
:101CA000EBCFCF930E94A00C0E94F90BC82F0E948B
:101CB000AA0C61E06C0FC93308F060E382E093E0A6
:101CC0000E943D050E94AA0CCF910C94900CCF93DA
:101CD0000E94A00C0E94F90BC82F0E94AA0C6FEF63
:101CE0006C0FC13308F469E382E093E00E943D0584
:101CF0000E94AA0CCF910C94900CCF930E94E80BF9
:101D0000C82F0E94A00CC23449F441E065EC82E087
:101D100093E00E946B0CCF910C94900C0E94AA0C43
:101D2000FACFCF930E94E80BC82F0E94A00CC534B5
:101D300049F441E061E882E093E00E946B0CCF91AE
:101D40000C94900C0E949A0CFACF41E062EC82E075
:101D500093E00E946B0C0E94900CE2E0F3E08DE7B0
:101D60009EE09583848381E99EE0948B838B81E55B
:101D70009EE093A382A397A386A387E69EE092ABFF
:101D800081AB96AB85AB88EB91E190934303809355
:101D9000420381E39BE290934503809344030895BB
:101DA000CF930E94E80BC82F0E94A00C41E069E885
:101DB000C83439F068ECC93421F069ECC83009F056
:101DC00068E882E093E00E946B0CCF910C94900C39
:101DD000CF930E94E80BC82F0E94A00C41E068EC52
:101DE000C93039F069ECC83421F069E8C83009F02D
:101DF00068E882E093E00E946B0CCF910C94900C09
:101E000041E068E882E093E00E946B0C0E94900C35
:101E1000E2E0F3E088EE9EE0948B838B80ED9EE021
:101E20009583848381E59EE093A382A387E69EE069
:101E300092AB81AB88EB91E1909343038093420393
:101E40008DE49BE290934503809344030895CF93E0
:101E50000E94E80BC82F0E94A00C41E06DE8C53439
:101E600039F065ECCD3421F06DECC53009F065E852
:101E700082E093E00E946B0CCF910C94900CCF9376
:101E80000E94E80BC82F0E94A00C41E065ECCD3009
:101E900039F06DECC53421F06DE8C53009F065E826
:101EA00082E093E00E946B0CCF910C94900CCF9346
:101EB0000E94A00C0E94F90BC82F0E94AA0C64E497
:101EC000C53409F065E482E093E00E943D050E947C
:101ED000AA0CCF910C94900C41E065E882E093E06D
:101EE0000E946B0C0E94900CE2E0F3E08FE39FE015
:101EF000948B838B87E29FE09583848387E59FE0C3
:101F000093A382A392AB81AB88EB91E190934303BF
:101F1000809342038DE69BE29093450380934403B4
:101F2000089565E4811101C064E482E093E00C94BB
:101F30003D0580916F01909170018130910519F0FC
:101F4000029741F0089582E090E0909370018093B1
:101F50006F01089583E090E09093700180936F018A
:101F6000E0916D01F0916E010994CF93DF93E2E56A
:101F7000F5E08491EAEAF5E0D491E8ECF5E0C4916B
:101F8000CC2381F081110E949505EC2FF0E0EE0F3B
:101F9000FF1FE055FA4FA591B491EC91ED2311F09C
:101FA00060E007C061E080916B0190916C01892B2A
:101FB000B9F78EE0DF91CF910C94BE05CF93DF93FC
:101FC000C4E1D0E041E06CE182E093E00E946B0C60
:101FD0002197C1F7DF91CF910895CF930E94E80B2D
:101FE000C82F0E94A00CC234D1F048F4C230A1F036
:101FF00041E063E8C83049F00E94AA0C0AC0C83426
:1020000089F041E069ECCD34B9F782E093E00E94B9
:102010006B0CCF910C94900C41E06EECF6CF41E04C
:1020200069E8F3CF41E063ECF0CFCF930E94E80B77
:10203000C82F0E94A00CC334D1F048F4C330A1F0E3
:1020400041E062ECC93049F00E949A0C0AC0C934E0
:1020500089F041E062E8CE34B9F782E093E00E9473
:102060006B0CCF910C94900C41E068E8F6CF41E006
:1020700068ECF3CF41E06DECF0CF41E062E882E044
:1020800093E00E946B0C0E94900C0E942503E2E0FA
:10209000F3E081E59EE093A382A397A386A387E65E
:1020A0009EE092AB81AB96AB85AB85E190E1948BE2
:1020B000838B908F878B8DEE9FE0958384839187B0
:1020C000808788EB91E190934303809342038DEBEB
:1020D0009BE2909345038093440308950E94E80B8C
:1020E000E0916901F0916A018D3051F1E8F42081AD
:1020F00031818A3001F1245631098B30F1F0808131
:102100009181803127E2920714F08FE097E2813FBE
:1021100028ED920714F481EF98ED91838083E0918C
:102120006701F091680109948E3081F08F3039F7A2
:1021300011821082E4CF285E334031832083DFCFC9
:10214000808191810A9791838083D9CF8081918109
:102150000197F9CF0E94E80BE0916901F0916A01C3
:102160008D3051F1E8F4208131818A3001F12C5910
:102170003F4F8B30F1F080819181803127E29207CF
:1021800014F08FE097E2813F28ED920714F481EF7D
:1021900098ED91838083E0916701F0916801099443
:1021A0008E3081F08F3039F711821082E4CF2851C0
:1021B0003C4F31832083DFCF808191810A969183C8
:1021C0008083D9CF808191810196F9CFCF930E94EE
:1021D000E80BC82F0E94A00CCA3039F041E06BE830
:1021E000CD3029F00E94AA0C06C041E06FE882E0E1
:1021F00093E00E946B0CCF910C94900CCF930E94B3
:10220000E80BC82F0E94A00CCB3029F0CF3061F032
:102210000E949A0C06C041E06DE882E093E00E94C3
:102220006B0CCF910C94900C41E06AE8F6CF41E042
:102230006EE882E093E00E946B0CE2E0F3E08EEF48
:1022400090E1948B838B86EE90E1958384838AEA78
:1022500090E193A382A397A386A38EE690E192AB2D
:1022600081AB96AB85AB8CEB91E19093430380936C
:1022700042038BEF9BE290934503809344030895C0
:102280000F931F93CF93DF93C82F90E080E0DAE0A5
:10229000D89F8001D99F100D11240E94F90B805303
:1022A000990B800F911FC15099F7DF91CF911F912A
:1022B0000F91089580916401811106C0809162019F
:1022C00090916301039749F41092630110926201A7
:1022D000E0916D01F0916E01099483E090E090939C
:1022E000630180936201089580910101843020F49C
:1022F0008F5F8093010108951092010108958091EC
:102300000101882321F0815080930101089584E028
:10231000FBCF009721F090936E0180936D010E9496
:10232000B00C0E94A00C0E94250310925F01109235
:102330005E0110926101109260010895CF93DF93C6
:10234000EC0190E080E00E948911CE010E94410CD6
:1023500081E080939E010E94DF0760939A01709351
:102360009B0180939C0190939D01DF91CF910895F3
:1023700083E693E00C949E11E0916901F0916A016B
:102380008091650190916601918380830C94B811CE
:102390008CE693E00C949E118091640191E0892772
:1023A00080936401882321F08DE792E00C949E11C4
:1023B00087E792E0FBCFCF93DF938BED91E10E9413
:1023C0008911E2E0F3E080E498E193A382A383EB38
:1023D0009FE192AB81AB8CE69FE0909343038093A7
:1023E00042038CE091E2958384838EEA93E00E941D
:1023F000410CCAEED2E08D850E94910F41E068E861
:1024000082E093E00E946B0C88EA93E00E94410C0A
:102410008E850E94910F41E060EC82E093E00E9483
:102420006B0C82EC93E00E94410C8F850E94910F0F
:1024300041E068EC82E093E00E946B0C8DED92E04D
:102440000E94410C8889DF91CF910C94910F87E213
:1024500092E10E9489118DEB92E00E94410CE2E032
:10246000F3E08EEE97E193A382A38FE49FE1909334
:1024700043038093420387E090E292AB81AB0895DF
:1024800080916401811106C080915C0190915D0191
:10249000039759F484E090E090935D0180935C0190
:1024A000E0916D01F0916E01099483E090E09093CA
:1024B0005D0180935C01089580915C0190915D01C4
:1024C000892B11F56091EE0270E090E080E00E94AF
:1024D00067399B01AC016091DF017091E00180914F
:1024E000E1019091E2010E94B83887FF06C081E0C7
:1024F00090E0909363018093620181E090E090937B
:102500005D0180935C01089510925D0110925C0161
:10251000109263011092620108958F929F92AF9280
:10252000BF92CF92DF92FF920F931F93CF93DF93CF
:10253000FC01208131812230310509F058C0EA01C7
:102540006B018C01888199810E94D70D882309F441
:102550004BC0CE010E94600BF82E882309F444C0C2
:10256000888199810E94D70D8823F1F16CEC8881D4
:1025700099810E94580364E4888199810E945803DC
:102580006A817B81072E000C880B990B0E946739AA
:1025900020E030E040E85DE30E946C3A4B015C01D2
:1025A000B601DD0C880B990B0E94673920E030E002
:1025B00048EC52E40E94BD389B01AC01C501B40156
:1025C0000E944C38F80162837383848395838F2D36
:1025D000DF91CF911F910F91FF90DF90CF90BF902F
:1025E000AF909F908F900895F80111821082F12C86
:1025F000EECF8091000191E089278093000188232C
:1026000019F081E00C946F0A85E0FCCF8F929F92C5
:10261000AF92BF92CF92DF92EF92FF920F931F93F0
:10262000CF93DF938C01EB0169017A010E94DF07F0
:1026300088809980AA80BB809B01AC012819390948
:102640004A095B0949015A018C149D04AE04BF0478
:1026500090F0688379838A839B83F801DF91CF911F
:102660001F910F91FF90EF90DF90CF90BF90AF90B0
:102670009F908F900994DF91CF911F910F91FF90C0
:10268000EF90DF90CF90BF90AF909F908F90089584
:10269000CF93DF93EC01888199810E94D70D81113E
:1026A00005C090E080E0DF91CF910895CE010E94B7
:1026B000600B8823B1F38FE78E83888199810E9414
:1026C000D70D882371F36CEC888199810E9458039F
:1026D0006EE4888199810E9458036C818881998178
:1026E0000E9458036D81888199810E9458036E81F0
:1026F000888199810E945803888199810E94D70D11
:10270000882379F26CEC888199810E94580364E4F3
:10271000888199810E94580382E090E0C4CF60E0F4
:1027200088E00E94EC0560E088E00E94BE0581E040
:1027300090E00E94290B65E070E080E090E00E944C
:10274000AD0780918C01823021F482E993E00C94F2
:10275000481381E090E008950F931F93CF93DF9388
:10276000182F092F0E94C40880EA0E946B08802F4E
:102770000E941609812F0E9416090E94C40881EA4E
:102780000E946B0881E00E942108813029F0D0E08E
:10279000803511F4D091BB0080E00E942108813087
:1027A00029F0C0E0883511F4C091BB000E94EB070E
:1027B0008D2F9C2FDF91CF911F910F9108958EBD8A
:1027C00000000DB407FEFDCF8EB50895E091F4032F
:1027D000F091F50392818091F6038095892382839D
:1027E00081E30E94DF13E091FA03F091FB039091E3
:1027F000FC0380818923E9F7E091F403F091F5036C
:1028000082819091F603892B82830895CF93DF9381
:10281000E091F403F091F50392818091F6038095A5
:10282000892382838FE20E94DF13E091FA03F09103
:10283000FB039091FC0380818923E9F7C1E4D2E096
:102840008991882381F092E0C035D90761F00E9418
:10285000DF13E091FA03F091FB039091FC03808178
:102860008923E9F7EDCF80E00E94DF13E091FA03BE
:10287000F091FB039091FC0380818923E9F7E091BB
:10288000F403F091F50382819091F603892B828302
:10289000DF91CF910895CF93DF93EC01EE81FF811B
:1028A0009281888580958923828382E20E94DF134A
:1028B000EC85FD859E8580818923E9F70E94DF13E1
:1028C000EC85FD852E8590819223E9F7EE81FF81CD
:1028D00092812885922B9283DF91CF910895CF9397
:1028E000C82FE091F403F091F50392818091F603F3
:1028F00080958923828386E30E94DF13E091FA03A7
:10290000F091FB039091FC0380818923E9F78C2FE0
:102910000E94DF13E091FA03F091FB039091FC0316
:1029200080818923E9F7E091F403F091F503828136
:102930009091F603892B82838EEE93E0CF910C94D5
:102940004B14CF92DF92EF92FF920F931F93CF938E
:10295000DF938C01FC018491D0E0C0E0882331F04A
:102960002196F801EC0FFD1F8491F8CFE091F4035C
:10297000F091F50392818091F603809589238283FB
:102980008CE30E94DF13E091FA03F091FB03909136
:10299000FC0380818923E9F78C2F0E94DF13E091EB
:1029A000FA03F091FB039091FC0380818923E9F7FE
:1029B0008D2F0E94DF13E091FA03F091FB039091B9
:1029C000FC0380818923E9F7E091F403F091F5039A
:1029D00082819091F603892B8283E091F703F09135
:1029E000F8039091F90380818923E9F7D0E0C0E0F2
:1029F0008EEE93E00E944B148E3109F06EC0E09190
:102A0000F403F091F50392818091F6038095892378
:102A100082838DE20E94DF13E091FA03F091FB03C1
:102A20009091FC0380818923E9F70E94DF13C82E6F
:102A3000E091FA03F091FB039091FC0380818923DC
:102A4000E9F77801EC0EFD1EDC2CDD2091F0F7019A
:102A500084910E94DF13DA94E091FA03F091FB0372
:102A60009091FC0380818923E9F7FFEFEF1AFF0AB9
:102A7000ECCFCC0DD11DE091F403F091F5038281F0
:102A80009091F603892B8283E091F403F091F50392
:102A900092818091F6038095892382838DE30E9441
:102AA000DF13E091FA03F091FB039091FC03808126
:102AB0008923E9F7E091F403F091F5038281909185
:102AC000F603892B8283E091F703F091F80390914C
:102AD000F90380818923E9F78BCF8EEE93E00E9482
:102AE0004B14843111F0D0E0C0E0CE01DF91CF91E2
:102AF0001F910F91FF90EF90DF90CF900895AF92CC
:102B0000BF92CF92DF92EF92FF920F931F93CF93DA
:102B1000DF93EC017B018A01EE81FF819281888540
:102B20008095892382838CE30E94DF13EC85FD85E9
:102B30009E8580818923E9F7802F0E94DF13EC8531
:102B4000FD859E8580818923E9F7812F0E94DF130F
:102B5000EC85FD859E8580818923E9F7EE81FF81E3
:102B600082819885892B8283E985FA859B8580817E
:102B70008923E9F710E000E0CE010E944B148E316A
:102B800009F055C080E591E00E941203EE81FF81BB
:102B9000928188858095892382838DE20E94DF134C
:102BA000EC85FD859E8580818923E9F70E94DF13EE
:102BB000C82EEC85FD859E8580818923E9F7570124
:102BC000A00EB11EDC2CDD2069F0F50181915F01C2
:102BD0000E94DF13DA94EC85FD859E858081892330
:102BE000E9F7F1CF0C0D111DEE81FF8182819885EF
:102BF000892B8283EE81FF8192818885809589234C
:102C000082838DE30E94DF13EC85FD859E858081A4
:102C10008923E9F7EE81FF8182819885892B828360
:102C2000E985FA859B8580818923E9F7A5CFCE01C7
:102C30000E944B14843111F010E000E0C801DF91D4
:102C4000CF911F910F91FF90EF90DF90CF90BF90A9
:102C5000AF9008950C947F15CF93DF931F92CDB75B
:102C6000DEB7698341E050E0BE016F5F7F4F0E9495
:102C70007F1581E090E00F90DF91CF910895089546
:102C800090E080E00895FB0101900020E9F7319782
:102C9000AF01461B570BDC01ED91FC910280F381E3
:102CA000E02D09948F929F92AF92BF920F931F9342
:102CB000CF93DF93CDB7DEB7A1970FB6F894DEBF01
:102CC0000FBECDBF19A2423008F44AE08E010F5D5D
:102CD0001F4F842E912CB12CA12CA50194010E9490
:102CE000433BE62FB901CA01EA3004F5E05DD801A3
:102CF000EE938D01232B242B252B79F790E080E098
:102D0000109729F0BD018EEE93E00E944316A19624
:102D10000FB6F894DEBF0FBECDBFDF91CF911F91EC
:102D20000F91BF90AF909F908F900895E95CDFCF97
:102D30004F925F926F927F928F929F92AF92BF92CB
:102D4000CF92DF92EF92FF920F931F93CF936B017D
:102D50007C01742EAC019B010E94D93A61E371E0C1
:102D6000811126C046015701E894B7F82FEF3FEFD5
:102D70004FE75FE7C501B4010E94D93A81110CC049
:102D80002FEF3FEF4FE75FE7C501B4010E94B8386E
:102D900065E371E0181664F02FEF3FEF4FE75FE453
:102DA000C701B6010E94173A1816ACF469E371E046
:102DB0008EEE93E0CF911F910F91FF90EF90DF90F7
:102DC000CF90BF90AF909F908F907F906F905F90CB
:102DD0004F900C9443162FEF3FEF4FE75FECC70186
:102DE000B6010E94B83887FDE1CF20E030E0A901AC
:102DF000C701B6010E94B83810E000E087FF0AC0A2
:102E00006DE28EEE93E00E943D058C01F7FAF0949E
:102E1000F7F8F094C0E060E070E080E09FE37C169B
:102E200041F020E030E040E251E40E94BD38CF5F45
:102E3000F6CFA70196010E944C382B013C010E945D
:102E400036394B015C014AE00E9452167C01E00ECB
:102E5000F11ECC23C1F1C501B4010E9465399B016B
:102E6000AC01C301B2010E944B384B015C016EE220
:102E70008EEE93E00E943D05E80EF91EC15018F158
:102E800020E030E040E251E4C501B4010E946C3A18
:102E90002B013C010E9436394B01B12CA12C4AE098
:102EA000C501B4010E945216E80EF91EC501B40115
:102EB0000E9465399B01AC01C301B2010E944B38ED
:102EC0004B015C01DBCFC701CF911F910F91FF90A8
:102ED000EF90DF90CF90BF90AF909F908F907F90BA
:102EE0006F905F904F9008956115710511F00C94EB
:102EF000431690E080E008950F931F9380910102A4
:102F000090910202892B81F487E995E00E94410C9F
:102F100060E282E093E00E943D0563E482E093E09A
:102F20001F910F910C943D05609103027091040272
:102F3000809105029091060207E012E021E044E052
:102F40000E940133BC0182E093E00E947417E0CF3D
:102F50000E94B00C8091FD03833089F588E39AE2EA
:102F600090934303809342038091750141E060E8B0
:102F70008823A1F082E093E00E946B0C61E472E090
:102F800082E093E00E94741741E060EC82E093E0FD
:102F90000E946B0C88EC93E00C94410C82E093E06F
:102FA0000E946B0C85EF93E00E94410C41E060ECC5
:102FB00082E093E00E946B0C86EE93E0EDCF41E05F
:102FC00060E882E093E00E946B0C87ED93E00E9442
:102FD000410C109243031092420308958EEE97E144
:102FE0000E948911E2E0F3E08EE499E193A382A3C9
:102FF00087E292E192AB81AB85EB9FE094AB83AB30
:1030000088E39AE2909343038093420388EA97E12E
:1030100090935F0180935E010C94A8170F931F9308
:10302000CF930E94E80BC82F0E94A00C41E069E8F2
:1030300082E093E00E946B0C6091F1027091F202C9
:10304000072E000C880B990B0E94673920E030E0B6
:1030500048EC52E40E94BD3807E012E022E046E06E
:103060000E940133BC0182E093E00E94741760E08B
:103070008C2F0E94850CCF911F910F910C94900C76
:1030800080E498E10E94891184ED92E00E94410C55
:103090000E940E1841E06FE882E093E00E946B0C02
:1030A00063E482E093E00E943D05E2E0F3E086EB1A
:1030B00098E193A382A387E191E1909343038093E6
:1030C00042038BED91E192AB81AB8CE091E2958371
:1030D000848381EE90E290936101809360018091FE
:1030E000F1029091F202909366018093650181EF65
:1030F00092E090936A01809369018EE098E1909349
:1031000068018093670108950F931F93CF930E94E6
:10311000E80BC82F0E94A00C41E069E882E093E030
:103120000E946B0C6091EF027091F002072E000C70
:10313000880B990B0E94673920E030E048EC52E49C
:103140000E94BD3807E012E022E046E00E94013311
:10315000BC0182E093E00E94741760E08C2F0E9413
:10316000850CCF911F910F910C94900C86EB98E1F8
:103170000E9489118BEC92E00E94410C0E948418FD
:1031800041E06FE882E093E00E946B0C63E482E030
:1031900093E00E943D05E2E0F3E08FE49FE193A31A
:1031A00082A387E191E1909343038093420380E4FB
:1031B00098E192AB81AB8CE091E29583848380EBC4
:1031C0009AE190936101809360018091EF02909168
:1031D000F00290936601809365018FEE92E09093E8
:1031E0006A018093690184E898E190936801809373
:1031F000670108950F931F93CF93DF9341E060E839
:1032000082E093E00E946B0C84E895E00E94410C00
:1032100041E068E882E093E00E946B0CC5ECD1E0ED
:10322000688179818A819B8107E012E020E044E097
:103230000E940133BC0182E093E00E94741788E38E
:1032400093E00E94410C41E060EC82E093E00E9438
:103250006B0C81E393E00E94410C41E068EC82E05A
:1032600093E00E946B0C6C817D818E819F8122E0B6
:1032700046E00E940133BC0182E093E00E94741793
:1032800060E282E093E00E943D0563E482E093E027
:10329000DF91CF911F910F910C943D058EE499E140
:1032A0000E948911E2E0F3E080ED9BE193A382A309
:1032B0008EEE97E192AB81AB85EB9FE094AB83AB55
:1032C0008AEF98E190935F0180935E010C94FA1865
:1032D0000F931F93FC0120813181232B59F48CEB38
:1032E00091E00E94410C63E482E093E01F910F9112
:1032F0000C943D05628173818481958107E012E021
:1033000022E046E00E940133BC0182E093E00E948B
:103310007417E9CF41E060EC82E093E00E946B0C0F
:1033200080EA93E00E94410C8DED91E00C946819C5
:10333000CF92DF92EF92FF920F931F938091010142
:1033400041E060E88430E1F482E093E00E946B0C9D
:1033500081E993E00E94410C41E060EC82E093E05F
:103360000E946B0C8AE893E00E94410C83ED91E08F
:103370001F910F91FF90EF90DF90CF900C94681900
:1033800082E093E00E946B0C82E893E00E94410C83
:1033900041E060EC82E093E00E946B0C8091D301ED
:1033A0009091D401892BC9F0C090D901D090DA0155
:1033B000E090DB01F090DC016091FB02062E000C36
:1033C000770B880B990B0E9467399B01AC01C701F1
:1033D000B6010E94B83887FF2BC08CE793E00E94AB
:1033E000410C62E773E082E093E00E944405E091C3
:1033F0000101F0E0E651FD4F608170E090E080E077
:103400000E94653907E012E020E042E00E940133AB
:10341000BC0182E093E00E94741765E282E093E0D1
:103420001F910F91FF90EF90DF90CF900C943D058E
:1034300020E030E0A901C701B6010E94B83887FF3B
:1034400003C086E793E0CBCF07E012E021E044E041
:10345000C701B6010E940133BC0182E093E00E94E3
:10346000741765E282E093E00E943D05BACFCF92E7
:10347000DF92EF92FF920F931F9383ED91E00E94F2
:10348000681960E282E093E00E943D058091D301DB
:103490009091D401892BC9F0C090D901D090DA0164
:1034A000E090DB01F090DC016091FB02062E000C45
:1034B000770B880B990B0E9467399B01AC01C70100
:1034C000B6010E94B83887FF12C08CE793E00E94D3
:1034D000410CE0910101E43049F584E892E01F914C
:1034E0000F91FF90EF90DF90CF900C94410C20E073
:1034F00030E0A901C701B6010E94B83887FF03C0B8
:1035000086E793E0E4CF07E012E021E044E0C70162
:10351000B6010E940133BC0182E093E00E9474175F
:1035200065E282E093E00E943D05D3CFF0E0E651F2
:10353000FD4F608170E090E080E00E94653907E017
:1035400012E020E043E00E940133BC0182E093E0FE
:103550001F910F91FF90EF90DF90CF900C94741714
:10356000CF930E94E80BC82F0E94A00C41E060ECB2
:1035700082E093E00E946B0C0E94371A60E08C2F6F
:103580000E94850CCF910C94900C8091D301909166
:10359000D401019741F441E060E882E093E00E94A9
:1035A0006B0C0C94371A08950F931F93CF93DF93EE
:1035B00090E080E00E948911CFEFD3E08A811F92D2
:1035C0008F9389811F928F9388811F928F938AE1B5
:1035D00094E09F938F9307E012E01F930F930E9454
:1035E0002633B80182E093E00E94741741E060EC5A
:1035F00082E093E00E946B0C8D811F928F938C81EF
:103600001F928F938B811F928F9380E094E09F9302
:103610008F931F930F930E942633B80182E093E0AB
:103620000E94741741E068E882E093E00E946B0C0E
:103630000E94900C0E942503E2E0F3E081E59EE009
:1036400093A382A397A386A387E69EE092AB81AB68
:1036500096AB85AB8AE29EE0948B838B908F878BB1
:1036600083E09EE0958384839187808788EB91E156
:1036700090934303809342038CE79AE2909345032F
:10368000809344038DB79EB744960FB6F8949EBFBF
:103690000FBE8DBFDF91CF911F910F910895EF92D3
:1036A000FF920F931F93CF93DF9300D000D000D0F1
:1036B000CDB7DEB741E060E882E093E00E946B0C9A
:1036C00082EC93E00E94410C41E066E882E093E0E6
:1036D0000E946B0C0E947C1741E060EC82E093E05A
:1036E0000E946B0C86E0EDE3F1E09E012F5F3F4FFF
:1036F0007901D90101900D928A95E1F78091FA0242
:10370000882369F06091CF017091D0018091D1013F
:103710009091D201890121E045E00E940133FF929E
:10372000EF9284EB93E09F938F9387E092E09F93D7
:103730008F930E94263367E072E082E093E00E945C
:10374000741741E064E982E093E00E946B0C8EEA1A
:1037500093E00E94410C8DEE91E00E94681941E0D7
:1037600064ED82E093E00E946B0C88EA93E00E9493
:10377000410C87EF91E00E9468190F900F900F9015
:103780000F900F900F9026960FB6F894DEBF0FBEE5
:10379000CDBFDF91CF911F910F91FF90EF900895D2
:1037A00080ED9BE10E948911E2E0F3E08CE091E280
:1037B00093A382A38FE19CE29093450380934403FB
:1037C0008EE499E192AB81AB8EED9FE0948B838B7D
:1037D0009583848385EB9FE094AB83AB8FE49BE17F
:1037E00090935F0180935E010C944F1BEF92FF92C8
:1037F0000F931F93CF93DF93CDB7DEB72A970FB602
:10380000F894DEBF0FBECDBF41E060EC82E093E0F4
:103810000E946B0C80916B0190916C01823091053C
:1038200009F44DC078F4019701F12A960FB6F89487
:10383000DEBF0FBECDBFDF91CF911F910F91FF90E3
:10384000EF9008958330910509F442C0049769F719
:1038500082EC93E00E94410C41E066EC82E093E050
:103860000E946B0C0E947C17E0CF6091CF01709199
:10387000D0018091D1019091D2019E012F5F3F4FE5
:103880007901890121E045E00E940133FF92EF9226
:1038900084EB93E09F938F9387E092E09F938F93C5
:1038A0000E94263367E072E082E093E00E94741782
:1038B0000F900F900F900F900F900F90B6CF8EEA51
:1038C00093E00E94410C8DEE91E00E946819ADCF0B
:1038D00088EA93E00E94410C87EF91E0F6CFCF9207
:1038E000DF92EF92FF92CF93DF938091FA02C09123
:1038F0006F01D0917001882309F45AC0C090CF01A4
:10390000D090D001E090D101F090D20120E030E0E1
:10391000A901C701B6010E94173A181624F0F7FA58
:10392000F094F7F8F0946091F60270E090E080E097
:103930000E946739A70196010E94B83887FF38C0F6
:1039400081E090E090936C0180936B0180916B011A
:1039500090916C01C130D10509F413C108F4EFC096
:10396000C230D10509F419C1239709F41AC1809115
:103970006B0190916C01892B09F084C1C0916201A7
:10398000D091630180915C0190915D01892B09F0D8
:1039900016C1209709F013C187E00E946F0A1092A8
:1039A000A301DF91CF91FF90EF90DF90CF9008952A
:1039B0008091F702882309F449C08091ED0190912C
:1039C000EE01892B09F43FC0C090EF01D090F001C7
:1039D000E090F101F090F2016091FC02062E000CE3
:1039E000770B880B990B0E9467399B01AC01C701CB
:1039F000B6010E94173A181634F12091F301309164
:103A0000F4014091F5015091F601C701B6010E9401
:103A10004B3820E030E048EC52E40E946C3A6B01F5
:103A20007C016091FD027091FE02072E000C880B54
:103A3000990B0E9467399B01AC01C701B6010E9436
:103A4000173A18161CF482E090E07CCF8091F802BF
:103A5000882309F449C08091F7019091F801892BDE
:103A600009F43FC0C090F901D090FA01E090FB0149
:103A7000F090FC016091FC02062E000C770B880B85
:103A8000990B0E9467399B01AC01C701B6010E94E6
:103A9000173A181634F12091FD013091FE01409142
:103AA000FF0150910002C701B6010E944B3820E08F
:103AB00030E048EC52E40E946C3A6B017C0160916A
:103AC000FD027091FE02072E000C880B990B0E94DC
:103AD00067399B01AC01C701B6010E94173A18165D
:103AE0001CF483E090E02ECF8091F9028823F1F05E
:103AF0008091010290910202892BA9F06091F50258
:103B000070E090E080E00E9467399B01AC01609119
:103B100003027091040280910502909106020E94B6
:103B2000173A18161CF484E090E00CCFC330D1058E
:103B300009F00CCF10926C0110926B0107CF892B0A
:103B400009F415CF81E090E09093700180936F01AC
:103B500010929E0190E080E00E94891189E99FE027
:103B6000909343038093420384E692E00E94410CC9
:103B700086EF9BE190935F0180935E010E94F61BAC
:103B8000F6CE81E08093A30144EF51E060E070E065
:103B900088EB91E00E941D06EACE81E08093A301AC
:103BA000E6CE1092A301892B21F081E00E946F0ADA
:103BB000DECE1092700110926F0187E0F7CF8091F6
:103BC000DD019091DE01892BB1F06091EE0270E091
:103BD00090E080E00E9467399B01AC016091DF01B9
:103BE0007091E0018091E1019091E2010E94173A09
:103BF00018160CF454C0C230D10539F0239709F0DF
:103C00005EC081E08093A3015AC010929E0190E0B3
:103C100080E00E9489118AE591E1909343038093AB
:103C200042038AE692E00E94410C8AE899E190936F
:103C30005F0180935E010E948A1941C010929E012B
:103C400090E080E00E94891180E492E19093430328
:103C50008093420388E999E190935F0180935E012C
:103C60000E94981989C0C11187C081E090E09093AB
:103C70005D0180935C0180C0DD2311F084E0AFC062
:103C800082E0ADC060E08EE0DF91CF91FF90EF90D9
:103C9000DF90CF900C94BE05C111F0CF98C0C23018
:103CA000D10509F4B2CFC330D10509F4AACF2197C9
:103CB00031F482E090E09093630180936201C090C0
:103CC000D901D090DA01E090DB01F090DC01809125
:103CD000D3019091D401892BF1F020E030E0A901CB
:103CE000C701B6010E94B83887FF15C0C091010115
:103CF000C43008F47CC06091FB02062E000C770BE8
:103D0000880B990B0E946739A70196010E94B83869
:103D1000C1E087FD1FC020E030E0A901C701B60166
:103D20000E94173A87FD15C0C0910101C43088F484
:103D3000EC2FF0E0E651FD4F608170E090E080E014
:103D40000E946739C1E0A70196010E94173A181630
:103D50000CF0C0E080915C0190915D018230910592
:103D600009F46CCF8430910509F47DCF019721F4DB
:103D700082E090E0C1117BCF20916201309163011C
:103D8000C9010297C1E0029748F080915C019091CF
:103D90005D010297C1E0029708F0C0E0C093A30163
:103DA000D0916401D11178CF2230310531F080916A
:103DB0005C0190915D01029741F444EF51E060E0B5
:103DC00070E088EB91E00E941D06C11159CF8091EF
:103DD0005C0190915D01049709F04ECF81E0DF9185
:103DE000CF91FF90EF90DF90CF900C946F0A20E07E
:103DF00030E0A901C701B6010E94173A87FF98CFAA
:103E0000A8CF0F931F93CF93DF930E94E20941E065
:103E100063E882E093E00E946B0CCFEFD3E08881EF
:103E20001F928F9389811F928F938A811F928F9304
:103E30008FE493E09F938F9307E012E01F930F931B
:103E40000E942633B80182E093E00E94741741E09B
:103E500064EC82E093E00E946B0C8D811F928F9343
:103E60008C811F928F938B811F928F938DE393E0B0
:103E70009F938F931F930F930E9426338DB79EB706
:103E800044960FB6F8949EBF0FBE8DBFB80182E076
:103E900093E0DF91CF911F910F910C9474178FE4F1
:103EA0009FE10E948911E2E0F3E08FEF9BE293A390
:103EB00082A386EB98E192AB81AB84ED9AE190937B
:103EC0004303809342038CE091E2958384830E94B4
:103ED000011F81E09FE190935F0180935E0108954F
:103EE00080E79FE10E948911E2E0F3E083EB9FE12C
:103EF00093A382A38FEF9BE292AB81AB85EA9EE016
:103F000090934303809342038CE091E295838483F2
:103F100041E060E8CF010E946B0C84E193E00E94D5
:103F2000410C41E062EC82E093E00E946B0CEAEE0F
:103F3000F2E086898F9385898F9387E093E09F9342
:103F40008F9387E092E09F938F930E9426330F9088
:103F50000F900F900F900F900F9067E072E082E04B
:103F600093E00C9474170F931F93CF93DF9383EB1D
:103F70009FE10E948911E2E0F3E08BED91E193A3D0
:103F800082A380E79FE192AB81AB80E09FE09093BA
:103F90004303809342038CE091E2958384830AEE8D
:103FA00012E0F80183851F928F9387EF92E09F9331
:103FB0008F93C7E0D2E0DF93CF930E942633BE01F8
:103FC00082E093E00E94741741E060EC82E093E0AD
:103FD0000E946B0CF80184851F928F9383EE92E010
:103FE0009F938F93DF93CF930E942633EDB7FEB755
:103FF0003C960FB6F894FEBF0FBEEDBFBE0182E047
:1040000093E0DF91CF911F910F910C9474170F9350
:104010001F93CF93DF9387E090E20E948911CAEE4D
:10402000D2E089811F928F9388811F928F9384EAB7
:1040300092E09F938F9307E012E01F930F930E94EB
:104040002633B80182E093E00E94741741E060ECEF
:1040500082E093E00E946B0C8C811F928F938B8186
:104060001F928F938A811F928F9388E892E09F938B
:104070008F931F930F930E942633B80182E093E041
:104080000E947417E2E0F3E087E292E193A382A337
:104090008CE091E292AB81AB85EB9FE094AB83AB7C
:1040A0008DE390E190934303809342038DB79EB7D5
:1040B00042960FB6F8949EBF0FBE8DBFDF91CF9191
:1040C0001F910F910895CF92DF92EF92FF920F937D
:1040D0001F938DED91E00E94681960E282E093E009
:1040E0000E943D058091EB019091EC011816190694
:1040F000CCF52091EE021F922F936CE370E00E94AA
:104100002F3B9F938F937F936F9383E491E09F93D3
:104110008F9387E092E09F938F930E94C03B67E06C
:1041200072E082E093E00E9474178DB79EB70A9602
:104130000FB6F8949EBF0FBE8DBF60E282E093E0A1
:104140000E943D0560E282E093E00E943D0560E24E
:1041500082E093E01F910F91FF90EF90DF90CF905E
:104160000C943D058091DD019091DE01892B89F051
:10417000C090E301D090E401E090E501F090E60109
:1041800020E030E0A901C701B6010E94B83887FFDE
:1041900005C08CE793E00E94410CCFCF07E012E00E
:1041A00021E044E0C701B6010E940133BC0182E076
:1041B00093E00E94741765E282E093E00E943D055F
:1041C000BCCFCF930E94E80BC82F0E94A00C41E007
:1041D00060EC82E093E00E946B0C0E94632060E040
:1041E0008C2F0E94850CCF910C94900C8091D30160
:1041F0009091D401019741F041E060E882E093E0C2
:104200000E946B0C0E94371A41E060EC82E093E060
:104210000E946B0C0C9463208CE091E20E94891147
:10422000E2E0F3E087E090E293A382A384E791E1E8
:10423000948B838B908F878B8FE791E19583848319
:10424000918780878CE592E19093430380934203AA
:104250008CEC91E1909345038093440380ED9BE1C6
:1042600092AB81AB85EB9FE094AB83AB85EC9AE19D
:10427000909361018093600186EF90E290935F01DB
:1042800080935E010C94F6208F929F92AF92BF9222
:10429000CF92DF92EF92FF926B017C01CA01B901CC
:1042A00020E030E54DE754E40E94BD380E94243AF6
:1042B0004B015C0127E139E54CE952E4C701B60145
:1042C0000E944C386B017C0120E038EE41E855E457
:1042D000C501B4010E946C3A29E739EA4FEA53E478
:1042E0000E946C3A20E438E143E95BE40E944B38D9
:1042F0009B01AC0169EE7DED89EC9FEC0E94BD381D
:1043000023E333E948E853E40E944B389B01AC01B6
:10431000C701B6010E944B3820E030E048EC52E47F
:104320000E946C3A20E030E040E05FE30E944C38AD
:104330000E942F399B012A583E4137FF15C0B90111
:10434000330F880B990B0E9467392AE037ED43E25F
:104350005CE30E946C3AFF90EF90DF90CF90BF90AB
:10436000AF909F908F900895273838409CF4635009
:104370007641CB01880F991F0E94AC13BC0190E0DD
:1043800080E00E94653920E030E040E251E40E9484
:10439000BD38E1CF60E070E0CB01DDCF4F925F929E
:1043A0006F927F928F929F92AF92BF92CF92DF9245
:1043B000EF92FF920F931F93CF93DF93CDB7DEB7AA
:1043C0002C970FB6F894DEBF0FBECDBF46E067EF67
:1043D000809156030E946409882309F42BC38DE45D
:1043E00095E99093580380935703C12CD12C760103
:1043F000C701B6010E94673920E030E048EC52E482
:104400000E94BD386093C5017093C6018093C701B7
:104410009093C80120E030E54DE754E40E94BD3898
:104420000E94243A20E038EE41E855E40E946C3ABC
:1044300023E333E94AEB53E40E946C3A28E03BE182
:104440004BE95BE40E944B389B01AC0166EA75E1E5
:1044500082EE9FEC0E94BD3823E333E948E853E441
:104460000E944B386093C9017093CA018093CB01BD
:104470009093CC018091D3019091D4018230910529
:1044800009F080C46091EF027091F00242E953E0BC
:1044900083ED91E00E948D128823D1F02091C50117
:1044A0003091C6014091C7015091C8016091D5017A
:1044B0007091D6018091D7019091D8010E9444213A
:1044C0006093D9017093DA018093DB019093DC0152
:1044D0006091F1027091F2024DE953E08DED91E0AF
:1044E0000E948D12882309F470C420E030E54DE766
:1044F00054E46091C5017091C6018091C70190910B
:10450000C8010E94BD380E94243A4B015C0120E0A2
:1045100030E048EC52E46091DF017091E00180915D
:10452000E1019091E2010E944C386B017C0120E096
:1045300038EE41E855E4C501B4010E946C3A23E32A
:1045400033E94AEB53E40E946C3A28E03BE14BE943
:104550005BE40E944B389B01AC0166EA75E182EE98
:104560009FEC0E94BD3823E333E948E853E40E94FE
:104570004B389B01AC01C701B6010E944B3820E0CB
:1045800030E048EC52E40E946C3A20E030E040E039
:104590005FE30E944C380E942F396A587E4177FFB2
:1045A000FBC3072E000C880B990B0E9467392AE089
:1045B00037ED43E25CE30E946C3A6093E301709351
:1045C000E4018093E5019093E6018091FA0288234B
:1045D00009F440C082E480937C0080917A0080647A
:1045E00080937A0080917A0086FDFCCF80917800DC
:1045F00060917900762F682F7093CE016093CD0182
:104600008091F3029091F402681B790B072E000C45
:10461000880B990B0E94673923E333E347E452E4A4
:104620000E946C3A6B017C016091FF027091000363
:1046300090E080E00E9465399B01AC01C701B601A2
:104640000E94BD386093CF017093D0018093D10157
:104650009093D2018091F702882311F18091EF01AC
:104660009091F001A091F101B091F2018093F301DA
:104670009093F401A093F501B093F60147E853E05D
:1046800070E060E08DEE91E00E948D12811108C013
:1046900087E893E00E9448139093EE018093ED0128
:1046A0008091F802882311F18091F9019091FA012B
:1046B000A091FB01B091FC018093FD019093FE015C
:1046C000A093FF01B09300024CE753E070E060E07C
:1046D00087EF91E00E948D12811108C08CE793E072
:1046E0000E9448139093F8018093F7018091F9029A
:1046F000882391F041E753E070E060E081E092E0D0
:104700000E948D12811108C081E793E00E94481336
:104710009093020280930102E0915E01F0915F01AB
:10472000309709F0099580917501882309F473C3C6
:104730000E940614E091F403F091F50392818091B8
:10474000F60380958923828382E30E94DF13E09140
:10475000FA03F091FB039091FC0380818923E9F730
:10476000E091F403F091F50382819091F603892B97
:1047700082838EEE93E00E944B14843109F049C38A
:104780008FEF9FEFDC0189839A83AB83BC83E09139
:10479000F403F091F50392818091F60380958923CB
:1047A000828389E30E94DF13E091FA03F091FB0317
:1047B0009091FC0380818923E9F78E010F5F1F4FE1
:1047C0007E01A5E0EA0EF11CF80181918F010E94A3
:1047D000DF13E091FA03F091FB039091FC038081D9
:1047E0008923E9F7E016F10679F78EEE93E00E944F
:1047F0004B140E94DF07009171011091720120910A
:10480000730130917401601B710B820B930B28EEC6
:1048100033E040E050E00E94433BCA01B9014AE066
:104820000E9452166CE28EEE93E00E943D0560916C
:10483000C5017091C6018091C7019091C80140E007
:104840000E9498166CE28EEE93E00E943D058091E6
:10485000D3019091D401892B59F06091D5017091C9
:10486000D6018091D7019091D80142E00E9498161C
:104870006CE28EEE93E00E943D05C090D901D0908D
:10488000DA01E090DB01F090DC0120E030E0A901EA
:10489000C701B6010E94173A18162CF441E0C7016F
:1048A000B6010E9498166CE28EEE93E00E943D05E0
:1048B0008091DD019091DE01892B59F06091DF013B
:1048C0007091E0018091E1019091E20142E00E944B
:1048D00098166CE28EEE93E00E943D05C090E301D5
:1048E000D090E401E090E501F090E60120E030E0B6
:1048F000A901C701B6010E94173A18162CF441E02D
:10490000C701B6010E9498166CE28EEE93E00E94F9
:104910003D058091F702882389F08091ED01909107
:10492000EE01892B59F06091EF017091F0018091B7
:10493000F1019091F20142E00E9498166CE28EEE35
:1049400093E00E943D058091F802882389F08091D0
:10495000F7019091F801892B59F06091F90170915C
:10496000FA018091FB019091FC0142E00E949816AF
:104970006CE28EEE93E00E943D058091F90288235F
:1049800089F08091010290910202892B59F0609187
:10499000030270910402809105029091060242E0A8
:1049A0000E9498166CE28EEE93E00E943D05809185
:1049B000FA02882359F06091CF017091D001809163
:1049C000D1019091D20141E00E9498166CE28EEEE6
:1049D00093E00E943D0580916B0190916C018230C3
:1049E000910509F410C208F0F9C1009709F4FFC15C
:1049F000019709F403C265E571E08EEE93E00E9431
:104A0000431681E02C960FB6F894DEBF0FBECDBFE3
:104A1000DF91CF911F910F91FF90EF90DF90CF909A
:104A2000BF90AF909F908F907F906F905F904F90CE
:104A30000C946F140E941503182F0E941503082F61
:104A40000E941503F82E0E941503E82E0E941503FC
:104A5000D82E0E941503482F5D2D6E2D70E0FD822B
:104A60000E831F8318868091590390915A03B0E0FA
:104A7000A0E0C52ED62EE72EFF24E7FCFA94C81A34
:104A8000D90AEA0AFB0AF7E07595679557954795A5
:104A9000FA95D1F7880F991FAA1FBB1F9A01AB0186
:104AA000281B390B4A0B5B0BA0915B03B0915C0395
:104AB0000E949E3B4B015C010BE0B594A794979438
:104AC00087940A95D1F7A7019601C701B6010E9404
:104AD000133B9B01AC018CE0559547953795279585
:104AE0008A95D1F7A0915D03B0915E030E949E3B31
:104AF0002EE095958795779567952A95D1F7860E3F
:104B0000971EA81EB91EA5E0B0E0A50194010E9461
:104B1000933B60587F4F8F4F9F4F672F782F892F80
:104B2000992787FD9A957093580360935703B5941E
:104B3000A794979487948AEF981AA108B108C501A1
:104B4000B40152E095958795779567955A95D1F779
:104B50009B01AC010E94133B2B013C01A09163031C
:104B6000B0916403AC019B016DE055954795379575
:104B700027956A95D1F70E949E3B6B017C0173E0FB
:104B8000F594E794D794C7947A95D1F7A0916103EF
:104B9000B0916203A50194010E949E3B9B01AC0170
:104BA00055954795379527952C0D3D1D4E1D5F1D3D
:104BB000F2E15595479537952795FA95D1F73058F5
:104BC0004F4F5F4FA0915F03B09160030E94933BF2
:104BD0006B017C01AFE0F594E794D794C794AA9554
:104BE000D1F7C114D104E104F10409F401CCA3010B
:104BF00092010BE055954795379527950A95D1F782
:104C0000A0916903B0916A030E949E3B69877A87ED
:104C10008B879C87A0916703B0916803A5019401DD
:104C20000E949E3B4B015C01880C991CAA1CBB1C7A
:104C300089859A85AB85BC85880E991EAA1EBB1EE8
:104C400092E0B594A794979487949A95D1F7809120
:104C5000650390916603092E000CAA0BBB0BAC01F7
:104C600033272227280D391D4A1D5B1D6CE0559501
:104C70004795379527956A95D1F74D805E806F806F
:104C8000788474E075946794579447947A95D1F733
:104C9000240D351D461D571DABECB3EF0E94A13B03
:104CA000805B9C4397FD63C0660F771F881F991F29
:104CB000A70196010E94433B29013A01C301B201B9
:104CC00033E096958795779567953A95D1F79B014F
:104CD000AC010E94133B9B01AC016DE056954795DA
:104CE000379527956A95D1F7A0916F03B09170031E
:104CF0000E949E3B4B015C017CE0B594A794979485
:104D000087947A95D1F7A3019201E2E056954795F1
:104D100037952795EA95D1F7A0916D03B0916E0371
:104D20000E949E3B6B017C01FDE0F594E794D794D3
:104D3000C794FA95D1F7C80CD91CEA1CFB1C8090CB
:104D40006B0390906C03092C000CAA08BB08C80CDC
:104D5000D91CEA1CFB1CA4E0F594E794D794C794F3
:104D6000AA95D1F7C40CD51CE61CF71C41CBA701B2
:104D700096010E94433B29013A01440C551C661CD4
:104D8000771C9CCF892B09F0A3CB0E948F139093A3
:104D9000D4018093D3019CCB673898E079078CF4D9
:104DA000CB01880F991F0E94AC13BC0190E080E0FA
:104DB0000E94653920E030E040E251E40E94BD38B5
:104DC000FCCB60E070E0CB01F8CB8DE993E00E9472
:104DD00048139093DE018093DD01F7CB833091057A
:104DE000A9F0049709F007CE82EC93E009C064E7CC
:104DF00072E08EEE93E00E944405FDCD8DED92E0D1
:104E00000E94A114F8CD8EEA93E0FACF88EA93E0ED
:104E1000F7CF109275012C960FB6F894DEBF0FBE37
:104E2000CDBFDF91CF911F910F91FF90EF90DF9059
:104E3000CF90BF90AF909F908F907F906F905F903A
:104E40004F9008958F929F92AF92BF92CF92DF9230
:104E5000EF92FF928091D3019091D401019739F4A0
:104E600080918C01813099F0823009F4C5C0E091C5
:104E70006001F0916101309709F4C3C0FF90EF9099
:104E8000DF90CF90BF90AF909F908F9009946091EA
:104E900084017091850180918601909187018090B5
:104EA000880190908901A0908A01B0908B010E94A6
:104EB00065396B017C01C501B4010E9465399B0114
:104EC000AC01C701B6010E94BD386B017C01AC0189
:104ED0009B010E946C3A2DE33AE047EB5FEB0E94A6
:104EE0006C3A4B015C012CE53FE846E553E4C70111
:104EF000B6010E946C3A9B01AC01C501B4010E944D
:104F00004C3823E333E349E852E40E944B386B0109
:104F10007C016091EF027091F002072E000C880B6B
:104F2000990B0E94673920E030E048EC52E40E947F
:104F3000BD389B01AC01C701B6010E944C3860939B
:104F4000D5017093D6018093D7019093D801209119
:104F5000C5013091C6014091C7015091C8010E941E
:104F600044216093D9017093DA018093DB0190931F
:104F7000DC018091880190918901A0918A01B09112
:104F80008B01892B8A2B8B2BA1F160918801709169
:104F9000890180918A0190918B0120918D0130913E
:104FA0008E0150E040E00E94433BCA01B9010E94DB
:104FB00065399B01AC0160E074E284E79BE40E94E8
:104FC000BD3820E030E44CE956E40E946C3A20E021
:104FD00030E04AE754E40E946C3A21E03BE147E3C9
:104FE0005FE40E94BD380E943639CB010E94290B34
:104FF0003ECF81E090E0FACF1092D4011092D3011D
:1050000036CFFF90EF90DF90CF90BF90AF909F9002
:105010008F900895BF92CF92DF92EF92FF920F93FD
:105020001F93CF93DF9368E572E081E492E00E94E2
:105030001F33C0E0DAE08C2F6D2F0E94233B805D90
:1050400080934602905D909347020E940614E0917F
:10505000F403F091F50392818091F6038095892302
:10506000828382E30E94DF13E091FA03F091FB0355
:105070009091FC0380818923E9F7E091F403F0919A
:10508000F50382819091F603892B82838EEE93E063
:105090000E944B14843109F4A3C10E940614E091CC
:1050A000F403F091F50392818091F60380958923B2
:1050B000828384E30E94DF13E091FA03F091FB0303
:1050C0009091FC0380818923E9F7E091F403F0914A
:1050D000F50382819091F603892B82838EEE93E013
:1050E0000E944B140E94E209B0900404C090030493
:1050F0000091020410910104D0910004C091FF03BB
:10510000E091F403F091F50392818091F60380958C
:105110008923828387E30E94DF13E091FA03F091F1
:10512000FB039091FC0380818923E9F78FEF0E94B4
:10513000DF13E091FA03F091FB039091FC0380816F
:105140008923E9F7E091F403F091F50382819091CE
:10515000F603892B8283E091F703F091F803909195
:10516000F90380818923E9F78EEE93E00E944B14C6
:10517000843109F0DCC0E091F403F091F5039281F1
:105180008091F6038095892382838EE20E94DF134B
:10519000E091FA03F091FB039091FC038081892355
:1051A000E9F786E10E94DF13E091FA03F091FB0337
:1051B0009091FC0380818923E9F784E00E94DF134A
:1051C000E091FA03F091FB039091FC038081892325
:1051D000E9F7D12CF12CE12C85E0CC0CDD1CEE1C88
:1051E000FF1C8A95D1F78B2D90E0B0E0A0E0B6953A
:1051F000A79597958795C82AD92AEA2AFB2A802F4E
:1052000090E0B0E0A0E03BE0880F991FAA1FBB1F11
:105210003A95D1F78C299D29AE29BF296C017D01D2
:10522000E12A8D2F90E0B0E0A0E045E1880F991FC2
:10523000AA1FBB1F4A95D1F7C82AD92AEA2AFB2AF6
:105240008C2F90E04496092E000CAA0BBB0B59E161
:10525000880F991FAA1FBB1F5A95D1F7C82AD92AB0
:10526000EA2AFB2A8C2D0E94DF13E091FA03F091C9
:10527000FB039091FC0380818923E9F78D2D0E9427
:10528000DF13E091FA03F091FB039091FC0380811E
:105290008923E9F78E2D0E94DF13E091FA03F09144
:1052A000FB039091FC0380818923E9F78F2D0E94F5
:1052B000DF13E091FA03F091FB039091FC038081EE
:1052C0008923E9F7E091F403F091F503828190914D
:1052D000F603892B8283E091F403F091F503928128
:1052E0008091F60380958923828388E30E94DF13EF
:1052F000E091FA03F091FB039091FC0380818923F4
:10530000E9F7E091F403F091F50382819091F603BF
:10531000892B8283E091F703F091F8039091F903D0
:1053200080818923E9F78EEE93E00E944B1461E4BB
:1053300072E08EEE93E00E94741760E28EEE93E0CE
:105340000E943D05809104041F928F938091030475
:105350001F928F93809102041F928F93809101047A
:105360001F928F93809100041F928F938091FF036F
:105370001F928F9382E392E09F938F9387E092E056
:105380009F938F930E94263367E072E08EEE93E046
:105390000E94431665E571E08EEE93E00E9443168D
:1053A00081EE91E00E94A11465E571E08EEE93E03C
:1053B0000E94431681E00E946F148DB79EB74096FD
:1053C0000FB6F8949EBF0FBE8DBF81E0DF91CF91E5
:1053D0001F910F91FF90EF90DF90CF90BF900895B5
:1053E00080E00E946F14CF5FC43609F024CE80E0C5
:1053F000EDCF833099F0843079F1813071F44AEF48
:1054000050E060E070E08CED90E00E941D0683ECBF
:1054100091E00E949E111092750108954AEF50E0AC
:1054200060E070E080E793E00E941D0683ED91E06C
:105430000E949E110E940A28882379F30E94DF07A8
:105440006093710170937201809373019093740162
:1054500081E08093750108954AEF50E060E070E0CC
:105460008CED90E00E941D0687ED93E00C949E1158
:1054700080917501882321F0109275010C94A81772
:105480000E940A288823D1F30E94DF0760937101EC
:1054900070937201809373019093740181E0809303
:1054A0007501ECCFFF920F931F93CF93DF9390E0A2
:1054B00080E00E94FE37813029F061E090E080E0DA
:1054C0000E9406380AEE12E0C2E0D0E0F801F19046
:1054D0008F01CE010E94FE37F81621F06F2DCE010C
:1054E0000E9406382196CA31D10581F7DF91CF910C
:1054F0001F910F91FF9008951F93CF93DF930E9408
:10550000A00C41E068E882E093E00E946B0C82E02E
:105510000E944011CFEFD3E0888341E06BE882E046
:1055200093E00E946B0C82E00E944011898341E06D
:105530006EE882E093E00E946B0C82E00E944011D2
:105540008A8341E068EC82E093E00E946B0C82E089
:105550000E9440118B8341E06BEC82E093E00E945B
:105560006B0C82E00E9440118C8341E06EEC82E083
:1055700093E00E946B0C82E00E9440118D830E9498
:10558000C40880ED0E946B0880E00E9416098D819E
:105590001AE0612F0E94233B40E1849F9001112477
:1055A000892F822B8F770E9416098C81612F0E9490
:1055B000233B40E1849F90011124892F822B8F7718
:1055C0000E9416098B81612F0E94233B40E1849F3A
:1055D00090011124892F822B8F730E94160981E07C
:1055E0000E9416098A81612F0E94233B40E1849F1B
:1055F00090011124892F822B8F730E9416098981B3
:10560000612F0E94233B40E1849F90011124892F48
:10561000822B8F710E9416098881612F0E94233B83
:10562000292F30E1839FC0011124822B0E9416098B
:105630000E94EB070E94C40880ED0E946B088EE078
:105640000E94160984E00E94160980E00E94160953
:105650000E94EB070E94522ADF91CF911F910C9478
:10566000C81141E062EC82E093E00E946B0C84E0A0
:105670000E944011009771F0803127E2920710F0EC
:105680008FE097E2909300038093FF020E94522ADA
:105690000C94C81181E090E0F5CFCF93DF930E9486
:1056A000A00C41E068E882E093E00E946B0C82E08D
:1056B0000E944011CAEED2E08B8741E068EC82E0A4
:1056C00093E00E946B0C82E00E9440118C870E9444
:1056D000522ADF91CF910C94C8110E94A00C41E096
:1056E00065E882E093E00E946B0C0E94F90B853420
:1056F00079F581E08093F70241E06DE882E093E084
:105700000E946B0C0E94F90B853449F581E080936F
:10571000F80241E065EC82E093E00E946B0C0E948D
:10572000F90B853419F581E08093F90241E06DECC5
:1057300082E093E00E946B0C0E94F90B91E08534AB
:1057400009F090E09093FA020E94522A0C94C8113A
:105750001092F7021092EE011092ED01CDCF10924F
:10576000F8021092F8011092F701D3CF1092F902CB
:105770001092020210920102D9CFCF93DF930E94C0
:10578000A00C41E062E882E093E00E946B0C82E0B2
:105790000E944011CAEED2E0888341E068E882E0CE
:1057A00093E00E946B0C82E00E944011898341E0EB
:1057B00062EC82E093E00E946B0C82E00E94401158
:1057C0008A8341E068EC82E093E00E946B0C82E007
:1057D0000E9440118B8341E06DEC82E093E00E94D7
:1057E0006B0C82E00E9440118C830E94522ADF9150
:1057F000CF910C94C8110E94522A0C94C8118FEFBB
:105800009BE20E94891185E293E00E94410C80E7AF
:105810009FE190932503809324038CE091E2909381
:105820004303809342038FE49FE19093340380937A
:1058300033038091990181110C94522A089580912B
:10584000CD019091CE019093F4028093F3020E94D7
:10585000522A0C94C8111F920F920FB60F92112466
:105860002F933F934F935F936F937F938F939F9368
:10587000AF93BF93EF93FF938091B9019091BA01D9
:10588000A091BB01B091BC01892B8A2B8B2BD1F14C
:105890009091B401E091B501F091B6018081892722
:1058A00080838091B9019091BA01A091BB01B09120
:1058B000BC01181619061A061B069CF48091B90142
:1058C0009091BA01A091BB01B091BC010197A109CF
:1058D000B1098093B9019093BA01A093BB01B09331
:1058E000BC01FF91EF91BF91AF919F918F917F91FB
:1058F0006F915F914F913F912F910F900FBE0F903D
:105900001F90189580910201E6E9F5E0E4919FEF80
:1059100090930201E13051F030F0E23069F060E044
:105920000E94BE05DECF10926E00F9CF90916F00FD
:105930009D7F90936F00F3CF909170009D7F909327
:10594000700091E09093B0009091B100987F9460C6
:105950009093B1001092B300E2CF1F920F920FB656
:105960000F9211242F933F934F935F936F937F93E5
:105970008F939F93AF93BF93EF93FF938DE492E048
:105980000E94F303FF91EF91BF91AF919F918F918F
:105990007F916F915F914F913F912F910F900FBE2B
:1059A0000F901F9018951F920F920FB60F9211240F
:1059B0002F938F939F93EF93FF93E0915D02F0916C
:1059C0005E028081E0916302F091640282FD1BC05F
:1059D0009081809166028F5F8F732091670282179A
:1059E00041F0E0916602F0E0E35BFD4F958F80931C
:1059F0006602FF91EF919F918F912F910F900FBEB3
:105A00000F901F9018958081F4CF1F920F920FB6C0
:105A10000F9211242F933F938F939F93AF93BF9334
:105A20008091900190919101A0919201B091930188
:105A300030918F0123E0230F2D3758F50196A11DDA
:105A4000B11D20938F018093900190939101A093B9
:105A50009201B09393018091940190919501A0914E
:105A60009601B09197010196A11DB11D80939401FB
:105A700090939501A0939601B0939701BF91AF9138
:105A80009F918F913F912F910F900FBE0F901F907C
:105A9000189526E8230F0296A11DB11DD2CF1F92A3
:105AA0000F920FB60F9211240F931F932F933F93D2
:105AB0004F935F936F937F938F939F93EF93FF9396
:105AC00080918600909187002091810030E4232707
:105AD00020938100B59A2091810026FF80C02091FB
