:100000000C941A0B0C94420B0C94420B0C94420B64
:100010000C94420B0C94420B0C94420B0C947A2DD2
:100020000C94420B0C94420B0C949E2E0C94472F74
:100030000C94420B0C94420B0C94420B0C94420B0C
:100040000C94542E0C94420B0C94222E0C94FC2DE8
:100050000C94420B0C94420B0C94420B0C94420BEC
:100060000C94420B0C94420B08000000BE922449F1
:10007000123EABAAAA2ABECDCCCC4C3E00000080DA
:10008000BEABAAAAAA3E00000000BF000000803F4D
:100090000000000000084178D3BB4387D1133D190D
:1000A0000E3CC3BD4282AD2B3E68EC8276BED98F3A
:1000B000E1A93E4C80EFFFBE01C4FF7F3F0000007E
:1000C000000000407A10F35A00A0724E1809001088
:1000D000A5D4E80000E87648170000E40B540200BD
:1000E00000CA9A3B000000E1F505000080969800E8
:1000F000000040420F000000A08601000000102711
:1001000000000000E80300000000640000000000A0
:100110000A00000000000100000000002C76D888D2
:10012000DC674F0823DFC1DFAE59E1B1B796E5E3E5
:10013000E453C63AE651997696E8E6C28426EB89FE
:100140008C9B62ED407C6FFCEFBC9C9F40F2BAA59B
:100150006FA5F490055A2AF75C936B6CF9676DC133
:100160001BFCE0E40D47FEF520E6B500D0ED902E37
:100170000300943577050080841E080000204E0A95
:10018000000000C80C333333330F986E12831141D3
:10019000EF8D2114893BE65516CFFEE6DB18D1849E
:1001A0004B381BF77C1D901DA4BBE42420328472C5
:1001B0005E228100C9F124ECA1E53D27C7C4C1C07E
:1001C000BEBCBAB9B7B2B0B0B0AFAEADACABABAA13
:1001D000A9A9A8A7A6A6A5A4A4A3A2A2A2A2A1A0D9
:1001E0009F9D9D9C9C9B9A9A999898979796969676
:1001F0009594949393939292919190908F8F8E8EE9
:100200008E8D8D8C8C8B8B8A8A898989888888874A
:1002100087868685858484848383828282818181A6
:100220008080808080807F7F7E7E7E7D7D7D7C7CE7
:100230007C7B7B7B7A7A797979787878787877772C
:10024000777776767575757474747373737272726A
:10025000727271717170706F6F6F6E6E6E6D6D6DA9
:100260006D6C6C6C6C6C6B6B6A6A6A6969696968E5
:10027000686868676767666666666665656565651A
:100280006564646463636363626262626261616144
:100290006060606060605F5F5F5E5E5E5E5D5D5D72
:1002A0005D5C5C5C5C5B5B5B5B5B5B5A5A5A5A5A9D
:1002B0005A595959595959595858585858575757B8
:1002C00057565656565655555555555555545454DA
:1002D0005454545353525252515151515150505001
:1002E0005050504F4F4F4E4E4E4E4D4D4D4D4D4D2B
:1002F0004D4C4C4C4C4C4C4B4B4B4A4A4A4A49494E
:10030000494949494848484848484847474747476E
:100310004746464646464646454545454545444486
:1003200044444443434343424242424141414141A8
:10033000414140404040403F3F3F3F3F3F3F3E3EC6
:100340003E3E3E3E3D3D3D3D3D3D3D3D3C3C3C3CDD
:100350003B3B3B3B3A3A3A3A3A3A3A3A39393939FD
:10036000393838383737373737363636363636361F
:10037000363535353535353434343433333333323B
:100380003232323232323232323231313130303056
:10039000302F2F2F2F2E2E2E2E2E2E2E2D2D2D2D7B
:1003A0002D2C2C2C2C2B2B2B2B2B2B2A2A2A2A2A9C
:1003B0002A292929292929282828282727272727BA
:1003C00027262626262625252525242424242323DE
:1003D00023232322222222222222222221212121FE
:1003E00021212020201F1F1F1F1E1E1E1E1E1D1D1F
:1003F0001D1D1D1D1D1D1C1C1C1C1C1B1B1B1B1B3C
:100400001B1B1A1A1A1A1A1A1A1A19191919191950
:100410001818181717171716161616151515151577
:100420001414141414131313131313131313121299
:100430001212121211111111101010100F0F0F0FB4
:100440000F0E0E0E0E0E0D0D0D0D0D0C0C0C0C0CDA
:100450000B0B0B0B0A0A0A0A090909090908080803
:10046000080807070706060606050505050404042F
:100470000404030303030302020202020101010157
:1004800000000000FFFFFFFEFEFEFEFDFDFDFCFC88
:10049000FCFCFCFBFBFBFBFBFAFAFAF9F9F9F8F8B8
:1004A000F8F7F7F7F7F7F6F6F6F6F6F5F5F5F4F4EC
:1004B000F4F4F3F3F3F2F2F2F1F1F1F0F0F0F0EF23
:1004C000EFEFEEEEEEEDEDEDECECECEBEBEBEAEA64
:1004D000EAEAE9E9E9E8E8E8E8E8E7E7E7E7E7E79B
:1004E000E7E6E6E6E6E6E6E6E6E5E5E5E5E5E5E5B2
:1004F000E5E5E5E5E5E4E4E4E4E4E4E4E4E3E3E3BA
:10050000E3E3E3E3E3E3E2E2E2E2E2E2E2E2E1E1C7
:10051000E1E1E1E1E1E1E1E0E0E0E0E0E0E0E0DFD5
:10052000DFDFDFDFDFDFDFDEDEDEDEDEDEDEDEDEE4
:10053000DDDDDDDDDDDDDDDDDDDDDCDCDCDCDCDCF1
:10054000DCDCDBDBDBDBDBDBDBDADADADADADAD901
:10055000D9D9D9D9D8D8D8D8D7D7D7D7D6D6D6D623
:10056000D5D5D5D5D4D4D4D4D3D3D3D3D2D2D2D154
:10057000D1D1D0D0D0D0CFCFCFCECECECECDCDCD8D
:10058000CDCCCCCCCCCBCBCBCBCACACACAC9C9C9BF
:10059000C9C8C8C8C8C7C7C7C7C6C6C6C6C5C5C5EF
:1005A000C5C5C4C4C4C4C3C3C3C3C3C2C2C2C2C119
:1005B000C1C1C1C1C0C0C0C0BFBFBFBFBEBEBEBE43
:1005C000BEBDBDBDBDBCBCBCBCBBBBBBBBBABABA6F
:1005D000BAB9B9B9B9B9B8B8B8B8B7B7B7B7B6B69C
:1005E000B6B6B5B5B5B5B4B4B4B4B3B3B3B2B2B2CC
:1005F000B2B1B1B1B1B0B0B0B0AFAFAFAFAEAEAEFF
:10060000AEADADADADACACACABABABABAAAAAAA931
:10061000A9A9A9A8A8A8A7A7A7A7A6A6A6A5A5A56A
:10062000A5A4A4A4A3A3A3A3A2A2A2A1A1A1A1A0A3
:10063000A0A09F9F9F9F9E9E9E9D9D9D9D9C9C9CDC
:100640009B9B9B9A9A9A9A99999998989898979718
:100650009796969695959595949494939393939253
:10066000929291919191909090908F8F8F8E8E8E8B
:100670008E8D8D8D8D8C8C8C8B8B8B8A8A8A8989C3
:100680008989888888878787868686858585848402
:100690008483838382828282818181808080807F43
:1006A0007F7F7E7E7E7D7D7D7D7C7C7C7B7B7B7A7F
:1006B0007A7A7979797878787777777676767575C2
:1006C0007574747373737272727171717070706F0C
:1006D0006F6F6F6E6E6E6D6D6D6C6C6C6C6B6B6B4B
:1006E0006A6A6A6969696968686868676767676686
:1006F00066666665656565646464646363636262B7
:100700006262616161616060605F5F5F5F5E5E5EEB
:100710005D5D5D5C5C5C5B5B5B5A5A59595958582E
:10072000585757565656555555545453535352527D
:100730005251515150504F4F4F4E4E4E4D4D4D4CCA
:100740004C4C4B4B4B4A4A4A494949484848474711
:100750004746464645454544444443434342424256
:100760004141414040403F3F3E3E3E3D3D3D3C3C9F
:100770003C3B3B3B3A3A3A393938383837373736E9
:10078000363535353434333333323231313130303C
:100790002F2F2E2E2E2D2D2C2C2B2B2A2A2929289B
:1007A0002827272626252524242323222221212009
:1007B00020201F1F1E1E1D1D1C1C1C1B1B1A1A196E
:1007C00019181818171716161515151414131312CF
:1007D0001211111110100F0F0E0E0D0D0C0C0C0B31
:1007E0000B0A0A0909080807070606060505040496
:1007F00003030202020101000000FFFFFFFEFEFEF4
:10080000FDFDFCFCFCFBFBFAFAFAF9F9F8F8F8F745
:10081000F7F6F6F5F5F4F4F4F3F3F2F2F1F1F0F0A3
:10082000EFEFEEEEEDECEBEBEAE9E9E8E7E7E6E522
:10083000E4E4E3E2E2E1E0DFDFDEDDDCDBDBDAD9CA
:10084000D8D8D7D6D5D5D4D3D2D2D1D0D0CFCECD7B
:10085000CDCCCBCBCAC9C8C8C7C6C6C5C4C3C3C222
:10086000C1C1C0BFBFBEBEBDBDBCBCBBBABAB9B9B9
:10087000B8B8B7B7B6B6B5B4B4B3B3B2B2B1B0B036
:10088000AFAFAEADADACACABABAAA9A9A8A8A7A6BB
:10089000A5A4A3A2A1A0A09F9E9D9C9B9A99999874
:1008A0009796959493929291908F8E8D8C8B8A8A45
:1008B00089888786868585848383828281818080FA
:1008C0007F7E7E7D7D7C7C7B7B7A7A797978777779
:1008D00076767575747473737272717170706F6FF0
:1008E0006E6E6D6D6C6C6B6B6A6A69696868676661
:1008F000666564646362626160605F5E5D5D5C5BEF
:100900005B5A595858575655555453525151504F98
:100910004E4D4D4C4B4A4948484746454443424258
:1009200041403F3E3D3C3B3A39383736353433322F
:1009300031302E2D2C2B2A2928272625242322212D
:10094000201F1E1D1C1B1A1918171616151413121A
:100950001211100F0F0E0D0C0B0B0A0908070706DA
:1009600005040303020100FFFFFEFDFCFBFBFAF997
:10097000F8F7F7F6F5F4F3F2F2F1F0EFEEEEEDEC56
:10098000EBEAE9E8E7E6E4E3E2E1E0DFDEDDDCDB39
:10099000D9D8D7D6D5D4D3D1D0CFCECDCCCAC9C84B
:1009A000C7C6C5C3C2C1C0BEBDBCBBBAB8B7B6B569
:1009B000B3B2B1AFAEADACAAA9A8A6A5A4A3A1A09D
:1009C0009F9E9C9B9A99979695949291908F8D8CCF
:1009D0008B8A89878685848381807F7E7D7C7B7AF4
:1009E0007877767574737271706F6E6D6C6B6A69FF
:1009F000686766656464636261605F5E5D5C5B5BE3
:100A00005A5958575656555453525151504F4E4EAD
:100A10004D4C4B4B4A49494847464645444443425E
:100A2000424140403F3F3E3D3D3C3C3B3B38353200
:100A30002F2B282624211E1B19161412100D0A080C
:100A40000603002D2D2D2E2D2D00416C61726D00A1
:100A50005761726D656420757000C6C3C0BEBCB9B5
:100A6000B7B5B3ACA9A8A8A6A5A4A2A1A09F9E9D16
:100A70009B9A999796959493929291908F8E8B8949
:100A800088878685848382817F7E7D7C7C7B7A7863
:100A90007776757574737271706F6E6D6C6A696854
:100AA0006766656463636261605F5E5D5C5B5A5943
:100AB0005857565554535251504F4E4D4C4C4B4A2B
:100AC000494847464544434241403F3E3E3D3C3B0A
:100AD0003A39383736353433323131302F2E2D2CE8
:100AE0002B2A292827262524232221201F1F1E1DCB
:100AF0001C1B1A191817161514131211100F0E0DAE
:100B00000C0B0A0908070606050403020100FFFE94
:100B1000FDFCFBFAF9F8F7F6F5F4F3F3F2F1F0EF78
:100B2000EEEDECEBEAE9E8E7E6E5E5E4E3E2E1E057
:100B3000DFDEDDDCDCDBDAD9D8D7D6D5D4D3D2D131
:100B4000D1D0CFCECDCCCBCAC9C8C7C6C6C5C4C309
:100B5000C2C1C1C0C0BFBFBEBEBDBDBCBCBBBAB9B7
:100B6000B8B8B7B6B5B4B4B3B2B1B0AFAEADACAB64
:100B7000AAA9A8A7A5A4A3A2A19F9E9D9C9B9A9960
:100B80009897969594939291908F8E8D8C8B8A895D
:100B9000898887868584838281807F7E7D7C7B7B3C
:100BA0007A79787776757473727271706F6E6D6C16
:100BB0006B6A696867666564636261605F5F5E5DFA
:100BC0005C5B5A595857565554535251504F4E4DDD
:100BD0004C4B4A49484746454544434241403F3EC5
:100BE0003D3C3B3A3A39383736353434333231309C
:100BF0002F2E2D2C2B2A2928282726262524232270
:100C000021201F1E1D1C1B1B1A1918171615141442
:100C1000131211100F0E0D0D0C0B0A090807060612
:100C2000050403020100FFFEFDFCFBFAF9F8F7F7EB
:100C3000F6F5F4F3F2F1F0EFEFEEEDECEBEAE9E8C4
:100C4000E7E7E6E5E4E3E2E1E0DFDEDDDCDBDAD99D
:100C5000D8D7D6D5D5D4D3D2D1D0CFCECDCDCCCB7D
:100C6000CACAC9C8C7C6C6C5C4C3C3C2C1C0BFBF3C
:100C7000BEBDBCBCBBBAB9B8B8B7B6B5B4B4B3B2F4
:100C8000B1B1B0AFAEADACACABAAA9A9A8A7A6A6AE
:100C9000A5A4A4A3A2A2A1A1A09F9F9E9E9D9C9B50
:100CA0009B9A9999989796969594949392929190ED
:100CB0008F8F8E8D8D8C8B8A8A8988888786868592
:100CC0008484838382818180807F7E7E7D7C7C7B27
:100CD0007A79797877777675747473727271706FC8
:100CE0006F6E6D6D6C6B6B6A696968676766656569
:100CF0006463626161605F5E5E5D5C5C5B5A5A5911
:100D00005958575756555554545352525150504FA5
:100D10004E4E4D4C4C4B4A4A49494847474646453A
:100D20004444434342414140403F3E3E3D3C3C3BC6
:100D30003A3A39383837373635343433323131305E
:100D40002F2F2E2D2D2C2B2B2A29292828272626FC
:100D50002524242322222120201F1E1E1D1C1C1B93
:100D60001A1A191818171615151413121211101033
:100D70000F0E0E0D0D0C0C0C0B0B0B0B0A0A0A0AB6
:100D800009090909080808080808080807070707E3
:100D900007070707070606060606050505050504F5
:100DA0000404040404030303030302020202020115
:100DB000010101010000000000FFFFFFFFFFFFFE37
:100DC000FEFEFEFEFDFDFDFDFDFCFCFCFCFCFBFB58
:100DD000FBFBFBFBFBFAFAFAFAFAFAF9F9F9F9F973
:100DE000F8F8F8F8F7F7F7F7F7F6F6F6F6F5F5F49A
:100DF000F4F4F3F3F2F2F2F1F1F0F0F0EFEFEEEEE3
:100E0000EEEDEDECECECEBEBEAEAEAE9E9E8E8E838
:100E1000E7E7E6E6E6E5E5E4E4E4E3E3E2E2E1E190
:100E2000E1E0E0DFDFDFDEDEDEDDDDDCDCDCDBDBE6
:100E3000DBDBDADADAD9D9D9D8D8D8D8D7D7D7D628
:100E4000D6D6D5D5D5D5D4D4D4D3D3D3D3D2D2D264
:100E5000D2D1D1D1D0D0D0CFCFCFCFCECECECDCD9D
:100E6000CDCCCCCCCCCBCBCBCACACAC9C9C9C8C8DB
:100E7000C8C8C7C7C7C6C6C6C5C5C5C5C4C4C4C318
:100E8000C3C3C3C2C2C2C2C1C1C1C0C0C0C0BFBF50
:100E9000BFBFBEBEBEBEBDBDBDBCBCBCBCBBBBBB84
:100EA000BBBABABAB9B9B9B8B8B8B8B7B7B7B6B6BD
:100EB000B6B5B5B5B4B4B4B4B3B3B3B2B2B2B1B1FC
:100EC000B1B0B0B0B0AFAFAFAEAEAEADADADADAC3A
:100ED000ACACACABABABAAAAAAAAA9A9A9A9A8A871
:100EE000A8A8A7A7A7A7A6A6A6A5A5A5A5A4A4A4A4
:100EF000A4A3A3A3A3A2A2A2A2A1A1A1A1A0A0A0D6
:100F0000A09F9F9F9F9F9E9E9E9E9E9D9D9D9D9C00
:100F10009C9C9C9C9B9B9B9B9A9A9A9A9999999929
:100F20009898989897979797969696969595959559
:100F30009494949494939393939392929292929183
:100F40009191919190909090908F8F8F8F8F8E8EA6
:100F50008E8E8D8D8D8D8D8C8C8C8C8B8B8B8B8BCD
:100F60008A8A8A8A898989898988888888888787F6
:100F70008787878786868686868585858585858415
:100F80008484848484838383838383828282828231
:100F90008181818181818080808080807F7F7F7F4F
:100FA0007F7E7E7E7E7E7E7D7D7D7D7D7C7C7C7C6D
:100FB0007C7B7B7B7B7B7A7A7A7A7A797979797890
:100FC00078787878777777777776767676767575B6
:100FD00075757574747474747373737373737272D8
:100FE00072727271717171717070707070706F6FF8
:100FF0006F6F6F6F6E6E6E6E6E6E6D6D6D6D6D6D13
:101000006C6C6C6C6C6C6B6B6B6B6B6B6A6A6A6A2E
:101010006A6969696969696868686868676767674C
:10102000676666666666656565656564646464646E
:101030006363636363626262626261616161606093
:101040006060605F5F5F5F5F5E5E5E5E5E5D5D5DB8
:101050005D5D5C5C5C5C5C5B5B5B5B5B5B5A5A5ADA
:101060005A5A5959595959595858585858585757F8
:101070005757575656565656565555555555555415
:101080005454545454535353535353525252525230
:101090005251515151515151515050505050505046
:1010A000504F4F4F4F4F4F4F4F4E4E4E4E4E4E4E56
:1010B0004D4D4D4D4D4D4D4C4C4C4C4C4C4C4B4B6B
:1010C0004B4B4B4A4A4A4A4A494949494848484889
:1010D00048474747474646464646454545454544B1
:1010E00044444444434343434343424242424242D2
:1010F0004141414141414040404040403F3F3F3FEE
:101100003F3F3F3E3E3E3E3E3E3E3D3D3D3D3D3D02
:101110003D3C3C3C3C3C3C3B3B3B3B3B3B3B3A3A19
:101120003A3A3A3A3A39393939393938383838382F
:10113000383737373737373636363636363535354A
:101140003535353434343434343333333333333264
:10115000323232323232313131313131313130307B
:10116000303030303030302F2F2F2F2F2F2F2F2F88
:101170002E2E2E2E2E2E2E2E2E2D2D2D2D2D2D2D96
:101180002D2D2D2C2C2C2C2C2C2C2C2C2C2C2B2B9E
:101190002B2B2B2B2B2B2B2A2A2A2A2A2A2A2A2AA8
:1011A00029292929292929292928282828282828B6
:1011B00028282727272727272727262626262626C3
:1011C00026252525252525252424242424242323D8
:1011D00023232323222222222222212121212121F1
:1011E000202020202020201F1F1F1F1F1F1F1F1E09
:1011F0001E1E1E1E1E1E1E1D1D1D1D1D1D1D1D1C19
:101200001C1C1C1C1C1C1C1C1B1B1B1B1B1B1B1B26
:101210001B1A1A1A1A1A1A1A1A1A1A191919191932
:10122000191919191818181818181818171717173E
:10123000171717171616161616161616151515154E
:10124000151515151414141414141413131313135F
:101250001313121212121212111111111111101076
:1012600010101010100F0F0F0F0F0F0E0E0E0E0E8E
:101270000E0E0D0D0D0D0D0D0C0C0C0C0C0C0C0CA4
:101280000B0B0B0B0B0B0B0B0B0A0A0A0A0A0A0AB5
:101290000A0A0909090909090909090909080808BF
:1012A00008080808080808080808070707070707C4
:1012B00007070707070707070707070606060606C3
:1012C00006060606060606060606060505050505C3
:1012D00004040404030303030202020201010101E6
:1012E000004F6B0042656570730053696C656E74E6
:1012F00000204653003320252E32686425252034F3
:1013000020252E32686425252020252E326864434E
:10131000003120252E3268642525203220252E32EA
:10132000686425252020424C52005320746F20739E
:10133000657474696E677300567072204F666673C9
:1013400000426C72204F66667300426C725020003F
:10135000426C725020202020252E32686420636D5C
:1013600048324F00436C6E7420202020252E3268B6
:1013700064204300252E346864206D562F6B506125
:1013800000426C72502073656E736974697669747B
:1013900079005320746F2072657475726E0042502C
:1013A0002048324F00206850610043616E63656CD5
:1013B000656400536176656400203C2000464F520E
:1013C0004553002D2D2E2D25004C6F772041425680
:1013D000005661706F722000466F72657320696DF0
:1013E0006D696E656E7400426F696C65722000569F
:1013F0006E74322000566E74312000426C725020A0
:10140000257320636D48324F00436C6E7420005387
:1014100020746F207374617274206C6F67005320A6
:10142000746F2073746F70206C6F67200053657247
:1014300069616C20384E310054696D652C426172CF
:101440006F2C5661706F72542C5661706F724142EE
:10145000562C426F696C6572542C426F696C6572D0
:101460004142562C56656E7431542C56656E74325A
:10147000542C436F6F6C616E74542C426F696C65B1
:1014800072502C416C61726D0080254038004B8099
:1014900070127A009600E100000000230026002967
:1014A00000A0B0A8B8A4B4ACBCA2B2AABAA6B6AE0A
:1014B000BE005EBCE2613FDD83C29C7E20A3FD1FB7
:1014C000419DC3217FFCA2401E5F01E3BD3E6082BF
:1014D000DC237D9FC1421CFEA0E1BF5D0380DE3C9A
:1014E00062BEE0025CDF81633D7C22C09E1D43A1A1
:1014F000FF4618FAA427799BC584DA3866E5BB59FC
:1015000007DB856739BAE406581947A5FB7826C476
:101510009A653BD987045AB8E6A7F91B45C6987A5D
:1015200024F8A6441A99C7257B3A6486D85B05E758
:10153000B98CD2306EEDB3510F4E10F2AC2F7193C7
:10154000CD114FADF3702ECC92D38D6F31B2EC0E26
:1015500050AFF1134DCE90722C6D33D18F0C52B031
:10156000EE326C8ED0530DEFB1F0AE4C1291CF2D08
:1015700073CA947628ABF517490856B4EA6937D58B
:101580008B5709EBB536688AD495CB2977F4AA48EE
:1015900016E9B7550B88D6346A2B7597C94A14F6E5
:1015A000A8742AC896154BA9F7B6E80A54D7896BD0
:1015B0003500000000240027002A00000000080079
:1015C0000201000003040700000000000000004DBD
:1015D0004B3120302E302E312053657269616C0002
:1015E00065506172726F742020524742204C434410
:1015F000004261726F004E6F00010204081020402B
:1016000080010204081020010204081020000000DC
:1016100000250028002B0004040404040404040230
:101620000202020202030303030303022D2D2E2DE7
:101630000000862F11241FBECFEFD8E0DEBFCDBF44
:1016400011E0A0E0B1E0ECE8F6E702C005900D92F1
:10165000AC34B107D9F723E0ACE4B1E001C01D928E
:10166000AB3DB207E1F71BE0CAE1DBE004C0219724
:10167000FE010E941B3BC931D107C9F70E948B3084
:101680000C94443B0C94000080910E02882359F086
:10169000E0910F029FEF980F90930E02E81BF0E08D
:1016A000E05FFD4F82810895AF92BF92CF92DF92AB
:1016B000EF92FF920F931F93CF93DF93DC0128E00B
:1016C00030E081E0AA24AA94B12C0FE010E043E2BC
:1016D000E42EF12C57EDC52ED12C9C911196ED9155
:1016E000FC911297592F5095462F482359F1F894A1
:1016F0004281452342834181492B4183E701219760
:10170000F1F74281942B92837894F6013197F1F7A7
:10171000880F2150310909F7F8941196ED91FC9149
:10172000129791818C918095892381837894DF91A0
:10173000CF911F910F91FF90EF90DF90CF90BF90CE
:10174000AF900895F8944281452342834181492B0B
:101750004183E5012197F1F74281942B928378949C
:10176000F801D4CF4F925F926F927F928F929F92A7
:10177000AF92BF92CF92DF92EF92FF92CF93C09041
:10178000D201D090D301E090D401F090D5018091A6
:10179000D0019091D101892B09F47FC08090DA01AA
:1017A0009090DB01A090DC01B090DD0120E030E002
:1017B000A901C501B4010E94A33918160CF06DC02F
:1017C000C091D5026C2F70E090E080E00E94F33869
:1017D000A70196010E94A33918160CF05EC06C2F69
:1017E00070E090E080E00E94F138A70196010E942D
:1017F000D7372B013C01A5019401C701B6010E9416
:10180000D7379B01AC01C301B2010E94493820E0E7
:1018100030E040E05FE30E94D8374B015C0120E0FC
:1018200030E0A9010E94443870E060E087FD10C0FC
:1018300020E038E74BEB55E4C501B4010E94A33921
:101840006FE677E1181624F0C501B4010E94BB3899
:101850007093DF016093DE018091DE019091DF01E2
:101860008F36974121F41092DF011092DE01C09271
:10187000DA01D092DB01E092DC01F092DD01CF9140
:10188000FF90EF90DF90CF90BF90AF909F908F90A0
:101890007F906F905F904F9008951092DF011092AB
:1018A000DE01DACF10929101E0916101F0916201C5
:1018B0000994DC01ED91FC910190F081E02D0994F7
:1018C000EF92FF920F931F93CF93DF938C017B01D5
:1018D000D0E0C0E0F701EC0FFD1F6491662361F0DA
:1018E000D801ED91FC910190F081E02DC80109959E
:1018F000892B11F02196EECFCE01DF91CF911F9170
:101900000F91FF90EF900895AF92BF92CF92DF9228
:10191000EF92FF920F931F93CF93DF936C017B01A4
:101920008B01040F151FEB015E01AE18BF08C01735
:10193000D10759F06991D601ED91FC910190F081A8
:10194000E02DC6010995892B79F7C501DF91CF916B
:101950001F910F91FF90EF90DF90CF90BF90AF90CD
:101960000895FC01538D448D252F30E0842F90E0A5
:10197000821B930B541710F0CF960895019708958A
:10198000FC01918D828D981761F0A28DAE0FBF2F53
:10199000B11D5D968C91928D9F5F9F73928F90E0A9
:1019A00008958FEF9FEF0895FC01918D828D981718
:1019B00031F0828DE80FF11D858D90E008958FEF55
:1019C0009FEF0895FC01918D228D892F90E0805C1E
:1019D0009F4F821B91098F739927089584E392E0AA
:1019E0000E94E20C21E0892B09F420E0822F089567
:1019F00080E090E0892B29F00E94EE0C81110C947C
:101A000000000895FC01A48DA80FB92FB11DA35AA1
:101A1000BF4F2C91848D90E001968F739927848F0E
:101A2000A689B7892C93A089B1898C918370806431
:101A30008C93938D848D981306C00288F389E02DD2
:101A400080818F7D80830895EF92FF920F931F9383
:101A5000CF93DF93EC0181E0888F9B8D8C8D981361
:101A60001AC0E889F989808185FF15C09FB7F8946D
:101A7000EE89FF896083E889F989808183708064B9
:101A800080839FBF81E090E0DF91CF911F910F9104
:101A9000FF90EF900895F62E0B8D10E00F5F1F4F13
:101AA0000F731127E02E8C8D8E110CC00FB607FC22
:101AB000FACFE889F989808185FFF5CFCE010E94B0
:101AC000020DF1CFEB8DEC0FFD2FF11DE35AFF4F0F
:101AD000F0829FB7F8940B8FEA89FB89808180623E
:101AE000CFCFCF93DF93EC01888D8823B9F0AA89FB
:101AF000BB89E889F9898C9185FD03C0808186FDC9
:101B00000DC00FB607FCF7CF8C9185FFF2CF808117
:101B100085FFEDCFCE010E94020DE9CFDF91CF917D
:101B20000895833081F028F4813099F08230A9F053
:101B300008958730A9F08830C9F08430B1F48091DD
:101B400080008F7D03C0809180008F77809380001C
:101B5000089584B58F7784BD089584B58F7DFBCFBC
:101B60008091B0008F778093B00008958091B0008D
:101B70008F7DF9CF1F93CF93DF93282F30E0F901AA
:101B8000E554FA4E8491F901E750FA4ED491F901E7
:101B9000E95EF94EC491CC23A9F0162F81110E9461
:101BA000910DEC2FF0E0EE0FFF1FE35FF94EA591D2
:101BB000B4918FB7F894EC91111108C0D095DE2341
:101BC000DC938FBFDF91CF911F910895DE2BF8CF6B
:101BD000CF93DF9390E0FC01E750FA4E2491895EA9
:101BE000994EFC0184918823D1F090E0880F991FD1
:101BF000FC01EF54FA4EA591B491FC01E35FF94E5C
:101C0000C591D49161110EC09FB7F8948C91E22FC9
:101C1000E0958E238C932881E223E8839FBFDF9198
:101C2000CF9108958FB7F894EC91E22BEC938FBF8E
:101C3000F6CFCF9380910201823021F08F3F61F186
:101C4000CF910895EBE2F6E1C491C7FDF9CF61E0D1
:101C500082E00E94E80DCC2309F48CC0C23009F068
:101C6000A1C08091B100887F85608093B1008DE82C
:101C70008093B30088EB91E0A0E0B0E08093AC01EA
:101C80009093AD01A093AE01B093AF01809170002D
:101C9000826080937000D4CF82E080930201EBE2F7
:101CA000F6E1C491CF3F61F2C13021F150F0C23072
:101CB00009F43EC0C7FDC4CF61E082E00E94E80D98
:101CC000CDCF14BC15BC84B5826084BD85B5816060
:101CD00085BDE9E1F6E1E491F0E0EE0FFF1FE35F7F
:101CE000F94E85919491EBEFF5E1E491E093AB012E
:101CF000C0E0ADCF109280001092810080918100F1
:101D00008860809381008091810081608093810050
:101D1000E9E1F6E1E491F0E0EE0FFF1FE35FF94E39
:101D200085919491EBEFF5E1E491E093AA018FCFD7
:101D30001092B0001092B1008091B0008260809348
:101D4000B0008091B10081608093B100E9E1F6E1DB
:101D5000E491F0E0EE0FFF1FE35FF94E859194915F
:101D60009093A9018093A801EBEFF5E1E491E09352
:101D7000A7016DCF85B5887F846085BD86E487BD6A
:101D800088EB91E0A0E0B0E08093B4019093B501BE
:101D9000A093B601B093B70180916E0082608093EA
:101DA0006E004ECFC130F1F480918100887F816058
:101DB0008093810084E097E4909389008093880069
:101DC00088EB91E0A0E0B0E08093B0019093B10186
:101DD000A093B201B093B30180916F0082608093B1
:101DE0006F002ECFC23021F0C1112ACF84E0C7CFBF
:101DF00084E03ECF3FB7F8948091880190918901AB
:101E0000A0918A01B0918B0126B5A89B05C02F3FF8
:101E100019F00196A11DB11D3FBFBA2FA92F982F10
:101E20008827BC01CD01620F711D811D911D42E00B
:101E3000660F771F881F991F4A95D1F708958F92D3
:101E40009F92AF92BF92CF92DF92EF92FF924B019F
:101E50005C010E94FA0E6B017C010E94FA0E6C1963
:101E60007D098E099F09683E734081059105A8F39D
:101E700021E0821A9108A108B10888EEC80E83E01B
:101E8000D81EE11CF11C81149104A104B10429F7AE
:101E9000FF90EF90DF90CF90BF90AF909F908F908A
:101EA00008952FB7F8946091840170918501809115
:101EB0008601909187012FBF0895CF92DF92EF9214
:101EC000FF92CF93DF930E94510F6B017C0184E955
:101ED0008093BC00C0913202D09133028091BC004B
:101EE00084FF1FC02097D1F30E94510FAB01BC01AA
:101EF0004C195D096E097F09CE01B0E0A0E04817DA
:101F000059076A077B0730F31092BC0084E4809382
:101F1000BC0081E0DF91CF91FF90EF90DF90CF90F8
:101F2000089580E0F7CFCF92DF92EF92FF92CF93A8
:101F3000DF938093BB000E94510F6B017C0184E80A
:101F40008093BC00C0913202D09133028091BC00DA
:101F500087FD20C02097D1F30E94510FAB01BC0137
:101F60004C195D096E097F09CE01B0E0A0E0481769
:101F700059076A077B0730F31092BC0084E4809312
:101F8000BC00C1E08C2FDF91CF91FF90EF90DF90EC
:101F9000CF9008958091B900887FC0E0883291F396
:101FA000C091B900C87F8091B900887F803319F44F
:101FB0000E945D0FE7CF1092BC0084E48093BC00C8
:101FC000E1CFCF92DF92EF92FF92CF93DF93809396
:101FD000BB000E94510F6B017C0184E88093BC0020
:101FE000C0913202D09133028091BC0087FD20C0A5
:101FF0002097D1F30E94510FAB01BC014C195D0930
:102000006E097F09CE01B0E0A0E0481759076A07C2
:102010007B0730F31092BC0084E48093BC00C1E0E5
:102020008C2FDF91CF91FF90EF90DF90CF900895AC
:102030008091B900887F8831D9F08091B900887F7C
:102040008034B1F0C091B900C87F8091B900887F19
:10205000803259F08091B900887F883431F0109235
:10206000BC0084E48093BC00DBCF0E945D0FD8CF1E
:10207000C0E0D6CFCF92DF92EF92FF92CF93DF9363
:102080000E94510F6B017C0184EA8093BC00C091D7
:102090003202D09133028091BC0087FD1FC020978F
:1020A000D1F30E94510FAB01BC014C195D096E09BF
:1020B0007F09CE01B0E0A0E0481759076A077B0707
:1020C00030F31092BC0084E48093BC0081E0DF9187
:1020D000CF91FF90EF90DF90CF9008958091B9005D
:1020E000887F8830B9F08091B900887F803191F085
:1020F0008091B900887F883349F48091B900887F46
:102100001092BC0094E49093BC00E1CF8091B900A0
:10211000887FDDCF80E0DBCF1F93CF93DF93182F35
:10212000D62FC42F109210020E943A1080931002F2
:10213000811116C0812F880F0E94E10F8093100239
:10214000882321F0813061F482E00AC08D2F0E9443
:10215000930F80931002882339F0813009F483E0D3
:10216000DF91CF911F9108958C2F0E94930F809340
:1021700010028111F2CF0E945D0F8093100288231C
:1021800079F3813069F787E0EBCF0C948C10909154
:102190003C03911180959091380380FD27C0906495
:1021A000909338039091380381FD22C090689093FA
:1021B00038039091390382FD1DC0916090933903DB
:1021C00040913803042E000C550B69E070E080E26A
:1021D00090E00E94C51040913903042E000C550B6D
:1021E00069E170E080E290E00C94C5109F7BD8CF4D
:1021F0009F77DDCF9E7FE2CFCF93C82F4EE150E097
:1022000060E170E080E290E00E94C5100E943A1008
:1022100080E40E94E10F89E10E94930F80913903CD
:102220008170CC2341F0806480933903809139031D
:10223000CF910C94930F806CF7CFCF92DF92EF92F7
:10224000FF92CF93DF93C82F0E94510F6B017C0147
:1022500084ECC11101C084E88093BC00C0913202BB
:10226000D09133028091BC0087FD1FC02097D1F32D
:102270000E94510FAB01BC014C195D096E097F0929
:10228000CE01B0E0A0E0481759076A077B0730F39A
:102290001092BC0084E48093BC0081E0DF91CF9178
:1022A000FF90EF90DF90CF9008958091B900887FE4
:1022B000883349F48091B900887F1092BC0094E47F
:1022C0009093BC00EBCF8091B900887FE7CF0F934C
:1022D0001F93CF93DF93D82F162F10920E02C1E0D9
:1022E000442321F0C42F413208F0C0E28FEF8C0F5D
:1022F00080931102109210020E943A1080931002F3
:1023000081113CC0DD0F8D2F0E94E10F80931002E0
:10231000882321F0813091F582E030C0812F0E9426
:10232000930F80931002882321F0813039F583E0E8
:1023300025C00E943A1080931002882321F081303A
:10234000E9F484E01BC081E08D0F0E94E10F8093CF
:10235000100202E112E0D0E0882321F0813071F414
:1023600085E00CC0809111028D1325C080E00E9491
:102370001D1180931002813031F486E0DF91CF91FE
:102380001F910F9108958835C9F78091BB00F8011E
:1023900081938F01DF5FD0930E02D0930F02CD1394
:1023A000E1CF0E945D0F80931002882339F38130C2
:1023B00029F787E0E3CF81E00E941D11809310028E
:1023C0008130D9F2803509F3D9CFCF938091390389
:1023D0008062809339030E94930F0E945D0F41E059
:1023E00069E180E20E9467110E94440BC82F80912E
:1023F0003903817C809339030E943A1080E40E9463
:10240000E10F89E10E94930F809139030E94930F9D
:10241000C4FB882780F9C3FD8260C2FD8460C1FDD2
:102420008860CF910895CF93DF9341E060ED809174
:102430003D030E946711882311F090E026C00E949E
:10244000440B8835D1F748E168E880913D030E944C
:1024500067118111F2CFC0E4D3E00E94440B89934D
:1024600083E0C835D807C9F740EA65EF80913D039E
:102470000E948C108111E1CF47E264EF80913D030F
:102480000E948C1091E08111D8CF892FDF91CF91DC
:102490000895109282011092810110928001109291
:1024A0007C0110927D0110927E0110927F011092AA
:1024B00078011092790110927A0110927B019C01AF
:1024C000A0E8BEE30E94E53A609374017093750141
:1024D000809376019093770110928000E1E8F0E01C
:1024E0001082109285001092840010928900109240
:1024F000880081E4808382E286BB80936F00089528
:102500004F925F926F927F928F929F92AF92BF9203
:10251000CF92DF92EF92FF920F931F93CF93DF93AF
:10252000EC016CEC888199810E94540B6EEBDE010A
:102530008D919D918D010E94540BAE01455F5F4FBF
:10254000902EA12E67E070E083E2E82EF12C9FEC44
:10255000C92ED12C4880598088E090E0812C7724C6
:102560007394F201B0800180F281E02DF894328101
:102570006B2C60943621328331813B293183DB011E
:102580001197F1F721812621218322812B29228392
:10259000D7011197F1F720817894F6013197F1F77F
:1025A000B22209F08728770C0197D9F6F8018192B9
:1025B0008F01E417F50771F6A92DBA2D89E090E097
:1025C000815039F0ED91E927F0E0EF54FB4E949102
:1025D000F7CF81E02A85291380E0DF91CF911F9109
:1025E0000F91FF90EF90DF90CF90BF90AF909F90B2
:1025F0008F907F906F905F904F9008950E945D0F35
:1026000050E040E060E170E080E290E00C94C510A2
:10261000CF9381E00E94FC100E94E511C82F0E9418
:10262000E511C295C07FC80F0E94FE128C2FCF917A
:102630000895CF9380E00E94FC100E94E511C82FFE
:102640000E94E511C295C07FC80F0E94FE128C2F18
:10265000CF910895CF93DF936F70E62FF0E0EF55A1
:10266000FB4EE491EC01C05BDF4F68816170E62BAB
:1026700041110CC0E88388810E94930F888190E209
:1026800089278883DF91CF910C94930FEF77F2CF56
:102690000F931F93CF93DF93EC01162F042F70E05D
:1026A00084E0759567958A95E1F7CE010E942A131B
:1026B000402F612FCE01DF91CF911F910F910C948C
:1026C0002A13EF92FF920F931F93CF937C01FC018B
:1026D000C4910E943A1080E40E94E10F89E10E94B7
:1026E000930F10E000E0CC2369F040E06C2F89EEFE
:1026F00092E00E9448130F5F1F4FF701E00FF11F98
:10270000C491F1CF0E945D0FC801CF911F910F912D
:10271000FF90EF9008950F931F93CF93DF93EC01F9
:10272000162F042F0E943A1080E40E94E10F89E1E5
:102730000E94930F402F612FCE010E944813DF911A
:10274000CF911F910F910C945D0FEAE3F3E060814C
:102750006260608341E089EE92E00C948B13EAE3BF
:10276000F3E060816D7F608341E089EE92E00C943C
:102770008B1341E060E189EE92E00C948B1341E011
:1027800061E089EE92E00E948B1386E080933B0328
:1027900062E070E080E090E00C941F0FCF92DF9237
:1027A000EF92FF920F931F93CF93DF937C016B0106
:1027B0008A010E943A1080E40E94E10F89E10E94A0
:1027C000930FE601C00ED11ECC15DD0531F06991E5
:1027D00040E0C7010E944813F7CF0E945D0FC80177
:1027E000DF91CF911F910F91FF90EF90DF90CF90ED
:1027F000089540E00E948B1381E090E00895CF920D
:10280000DF92EF92FF921F93CF93DF93EC01162F8D
:10281000888599858130910509F178F0823091059C
:1028200009F45AC0039709F499C0DF91CF911F9121
:10283000FF90EF90DF90CF90089581E090E06623C5
:10284000A1F3998788870E94510F6E5C7F4F8F4F4D
:102850009F4F6A877B878C879D87E7CF0E94510FA8
:10286000CA84DB84EC84FD846C157D058E059F0590
:10287000E0F2112371F182E090E0998788870E944D
:10288000510F6C507E4F8F4F9F4F6A877B878C878D
:102890009D8780916E0190916F01892B79F4D0937F
:1028A0006F01C0936E0181E020916E0130916F0144
:1028B0002C173D0709F080E08E87B7CF80916C011F
:1028C00090916D01892B79F7D0936D01C0936C01C4
:1028D000EACF19861886A9CF611103C083E090E082
:1028E000B0CF0E94510FCA84DB84EC84FD846C1548
:1028F0007D058E059F0508F498CF0E94510F665004
:102900007F4F8F4F9F4F6A877B878C879D878E85F0
:10291000882309F48ACFEA81FB81309739F08091CE
:102920006A0190916B01892B09F40995EE81FF8171
:10293000309729F080916A0190916B010995EC81A3
:10294000FD81309709F0099580916A0190916B01A2
:10295000019690936B0180936A0167CF0E94510F9B
:10296000CA84DB84EC84FD846C157D058E059F058F
:1029700008F45BCF111125C0198618868E8588232F
:1029800059F0E881F981309739F080916A0190918E
:102990006B01892B09F4099580916E0190916F016B
:1029A0008C179D0709F041CF10926B0110926A01BC
:1029B00010926F0110926E0110926D0110926C01D5
:1029C00034CF82E090E0998788872FCFFC019081F7
:1029D0000180F281E02DF8942281392F3095232354
:1029E00022832181292B21837894ABE7B7E01197CB
:1029F000F1F7F8948181832381838281892B8283FB
:102A0000A3E1B1E01197F1F780817894A3E6B6E0F5
:102A10001197F1F72081292319F0982381E009F01B
:102A200080E00895CF930E940813C82F0E94AF132F
:102A3000C23449F441E065EC89EE92E00E948B13C8
:102A4000CF910C94A5130E94B913FACFCF930E9493
:102A50000813C82F0E94AF1341E061E8C53409F0A4
:102A600064E189EE92E00E948B13CF910C94A51340
:102A7000CF930E94AF130E941913C82F0E94B9135D
:102A800061E06C0FC93308F060E389EE92E00E94C8
:102A9000590C0E94B913CF910C94A513CF930E94A7
:102AA000AF130E941913C82F0E94B9136FEF6C0F58
:102AB000C13308F469E389EE92E00E94590C0E9448
:102AC000B913CF910C94A51341E062EC89EE92E02A
:102AD0000E948B130E94A513E9EEF2E082E195E1DA
:102AE0009583848386E295E1948B838B88E395E1DB
:102AF00093A382A397A386A38EE495E192AB81ABC7
:102B000096AB85AB86E099E190932A0380932903E5
:102B10008EE79CE290932C0380932B030895CF9330
:102B20000E940813C82F0E94AF1341E069E8C8341F
:102B300039F068ECC93421F069ECC83009F068E874
:102B400089EE92E00E948B13CF910C94A513CF9342
:102B50000E940813C82F0E94AF1341E068ECC930EF
:102B600039F069ECC83421F069E8C83009F068E848
:102B700089EE92E00E948B13CF910C94A51341E053
:102B800068E889EE92E00E948B130E94A513E9EE9B
:102B9000F2E087EA95E1948B838B8FE895E195834A
:102BA000848388E395E193A382A38EE495E192ABBD
:102BB00081AB86E099E190932A03809329038AE907
:102BC0009CE290932C0380932B030895CF930E9453
:102BD0000813C82F0E94AF1341E06DE8C53439F0E7
:102BE00065ECCD3421F06DECC53009F065E889EE77
:102BF00092E00E948B13CF910C94A513CF930E9467
:102C00000813C82F0E94AF1341E065ECCD3039F0B6
:102C10006DECC53421F06DE8C53009F065E889EE4A
:102C200092E00E948B13CF910C94A513CF930E9436
:102C3000AF130E941913C82F0E94B91364E4C5345E
:102C400009F065E489EE92E00E94590C0E94B913E4
:102C5000CF910C94A51341E065E889EE92E00E94C3
:102C60008B130E94A513E9EEF2E08EEF95E1948BB1
:102C7000838B86EE95E19583848386E196E193A329
:102C800082A392AB81AB86E099E190932A03809373
:102C900029038AEB9CE290932C0380932B030895E5
:102CA00065E4811101C064E489EE92E00C94590C52
:102CB0000F931F93CF93DF938C01FC016491D0E0BD
:102CC000C0E0662351F084E392E00E94590C219603
:102CD000F801EC0FFD1F6491F4CFCE01DF91CF918D
:102CE0001F910F9108958091E802811104C086E040
:102CF0008093E80208958150FBCF8091E8028630EE
:102D000019F41092E80208958F5F8093E802089505
:102D100080916301909164018130910519F00297CF
:102D200041F0089582E090E0909364018093630104
:102D3000089583E090E09093640180936301E091B3
:102D40006101F09162010994CF93DF93E9ECF5E121
:102D50008491E7E0F6E1D491E5E2F6E1C491CC2379
:102D600081F081110E94910DEC2FF0E0EE0FFF1F1A
:102D7000E956FB4EA591B491EC91ED2311F060E082
:102D800007C061E080915F0190916001892BB9F7E4
:102D90008EE0DF91CF910C94BA0DCF93DF93C4E115
:102DA000D0E041E06CE189EE92E00E948B13219724
:102DB000C1F7DF91CF910895CF930E940813C82FD8
:102DC0000E94AF13C234D1F048F4C230A1F041E008
:102DD00063E8C83049F00E94B9130AC0C83489F0CA
:102DE00041E069ECCD34B9F789EE92E00E948B1393
:102DF000CF910C94A51341E06EECF6CF41E069E869
:102E0000F3CF41E063ECF0CFCF930E940813C82FBB
:102E10000E94AF1341E068ECC334A1F058F441E0E4
:102E200068E8C33079F041E062ECC93059F041E024
:102E300064E108C041E06DECC93421F041E062E892
:102E4000CE34A9F789EE92E00E948B13CF910C94B7
:102E5000A51341E062E889EE92E00E948B130E9484
:102E6000A513E9EEF2E0178216821386128615A2E8
:102E700014A211A610A614AA13AA10AE17AA168A95
:102E8000158A128E118E10922E0310922D0310921D
:102E9000300310922F0388E395E193A382A397A3B5
:102EA00086A38EE495E192AB81AB96AB85AB84E0D3
:102EB00097E1948B838B908F878B8CED96E1958334
:102EC00084839187808786E099E190932A03809399
:102ED00029038AE09DE290932C0380932B030895AD
:102EE0000E940813E0915D01F0915E018D3051F177
:102EF000E8F4208131818A3001F1245631098B3088
:102F0000F1F080819181803127E2920714F08FE007
:102F100097E2813F28ED920714F481EF98ED9183B9
:102F20008083E0915B01F0915C0109948E3081F027
:102F30008F3039F711821082E4CF285E334031831D
:102F40002083DFCF808191810A9791838083D9CFBD
:102F5000808191810197F9CF0E940813E0915D0172
:102F6000F0915E018D3051F1E8F4208131818A3099
:102F700001F12C593F4F8B30F1F0808191818031EC
:102F800027E2920714F08FE097E2813F28ED920745
:102F900014F481EF98ED91838083E0915B01F091CF
:102FA0005C0109948E3081F08F3039F711821082E4
:102FB000E4CF28513C4F31832083DFCF8081918142
:102FC0000A9691838083D9CF808191810196F9CF30
:102FD000CF930E940813C82F0E94AF13CA3039F054
:102FE00041E06BE8CD3029F00E94B91306C041E002
:102FF0006FE889EE92E00E948B13CF910C94A51399
:10300000CF930E940813C82F0E94AF1341E06DE8D0
:10301000CB3031F041E06AE8CF3011F041E064E1BB
:1030200089EE92E00E948B13CF910C94A51341E09E
:103030006EE889EE92E00E948B13E9EEF2E080E008
:1030400098E1948B838B88EE97E1958384838CEA57
:1030500097E193A382A397A386A380E797E192AB1E
:1030600081AB96AB85AB8AE099E190932A0380937C
:10307000290388E49DE290932C0380932B03089509
:103080000F931F93CF93DF93C82F90E080E0DAE097
:10309000D89F8001D99F100D11240E9419138053CD
:1030A000990B800F911FC15099F7DF91CF911F911C
:1030B0000F91089580915801811106C080915601A9
:1030C00090915701039749F41092570110925601BD
:1030D000E0916101F0916201099483E090E09093A6
:1030E000570180935601089580910101843020F4A6
:1030F0008F5F8093010108951092010108958091DE
:103100000101882321F0815080930101089584E01A
:10311000FBCF009721F090936201809361010E94A0
:10312000BF130E94AF131092EE021092ED021092A4
:10313000F0021092EF021092F2021092F10210923D
:10314000F4021092F30210920C0310920B031092EF
:103150000E0310920D031092100310920F031092A1
:1031600012031092110310921B0310921A03109273
:103170001D0310921C0310921F0310921E03109245
:103180002103109220031092FD021092FC02109273
:10319000FF021092FE02109201031092000310929F
:1031A00003031092020310922A0310922903109233
:1031B0002C0310922B0310922E0310922D031092C9
:1031C000300310922F03109253011092520110926B
:1031D0005501109254010895CF93DF93EC0190E0D4
:1031E00080E00E948918CE010E94611381E08093E3
:1031F00091010E94510F60938D0170938E01809315
:103200008F0190939001DF91CF9108958AEA93E125
:103210000C94EC18E0915D01F0915E0180915901F0
:1032200090915A01918380830C94061983EB93E16A
:103230000C94EC188091580191E0892780935801F3
:10324000882321F08AEE92E10C94EC1884EE92E14E
:10325000FBCFCF93DF9389E299E10E948918E9EED1
:10326000F2E083E49CE193A382A38EE394E292AB29
:1032700081AB8BE296E190932A03809329038DE83A
:1032800095E29583848385EF93E10E946113C1EDFC
:10329000D2E08D850E94501641E068E889EE92E008
:1032A0000E948B138FEE93E10E9461138E850E9422
:1032B000501641E060EC89EE92E00E948B1389E0A9
:1032C00094E10E9461138F850E94501641E068ECE2
:1032D00089EE92E00E948B138AE493E10E946113CD
:1032E0008889DF91CF910C94501685E799E10E946F
:1032F00089188AE293E10E946113E9EEF2E08BEE15
:103300009BE193A382A389EB9CE190932A03809392
:1033100029038EE894E292AB81AB08958091580125
:10332000811106C08091500190915101039759F489
:1033300084E090E09093510180935001E09161010D
:10334000F0916201099483E090E0909351018093A1
:10335000500108958091500190915101892B11F5F0
:103360006091D50270E090E080E00E94F3389B010C
:10337000AC016091D2017091D3018091D401909100
:10338000D5010E94443887FF06C081E090E0909309
:1033900057018093560181E090E090935101809312
:1033A000500108951092510110925001109257014E
:1033B0001092560108958F929F92AF92BF92CF9232
:1033C000DF92FF920F931F93CF93DF93FC01208135
:1033D00031812230310509F058C0EA016B018C01BE
:1033E000888199810E94E614882309F44BC0CE019C
:1033F0000E948012F82E882309F444C088819981A4
:103400000E94E6148823F1F16CEC888199810E9476
:10341000540B64E4888199810E94540B6A817B81FA
:10342000072E000C880B990B0E94F33820E030E047
:1034300040E85DE30E94F8394B015C01B601DD0C08
:10344000880B990B0E94F33820E030E048EC52E4FE
:103450000E9449389B01AC01C501B4010E94D837D4
:10346000F80162837383848395838F2DDF91CF91DD
:103470001F910F91FF90DF90CF90BF90AF909F90E2
:103480008F900895F80111821082F12CEECF809177
:10349000000191E0892780930001882319F081E0E1
:1034A0000C94C71085E0FCCF8F929F92AF92BF9291
:1034B000CF92DF92EF92FF920F931F93CF93DF9300
:1034C0008C01EB0169017A010E94510F888099807B
:1034D000AA80BB809B01AC01281939094A095B0904
:1034E00049015A018C149D04AE04BF0490F0688316
:1034F00079838A839B83F801DF91CF911F910F918C
:10350000FF90EF90DF90CF90BF90AF909F908F9003
:103510000994DF91CF911F910F91FF90EF90DF9071
:10352000CF90BF90AF909F908F900895CF93DF93EF
:10353000EC01888199810E94E614811105C090E018
:1035400080E0DF91CF910895CE010E948012882300
:10355000B1F38FE78E83888199810E94E6148823D6
:1035600071F36CEC888199810E94540B6EE4888120
:1035700099810E94540B6C81888199810E94540B1F
:103580006D81888199810E94540B6E818881998117
:103590000E94540B888199810E94E614882379F255
:1035A0006CEC888199810E94540B64E48881998134
:1035B0000E94540B82E090E0C4CF60E088E00E945B
:1035C000E80D60E088E00E94BA0D81E090E00E9482
:1035D000491265E070E080E090E00E941F0F80914A
:1035E0008001823021F489E793E00C94961A81E0FF
:1035F00090E00895089590E080E00895FB01019027
:103600000020E9F73197AF01461B570BDC01ED9124
:10361000FC910280F381E02D09948F929F92AF92EA
:10362000BF920F931F93CF93DF93CDB7DEB7A197D0
:103630000FB6F894DEBF0FBECDBF19A2423008F41A
:103640004AE08E010F5D1F4F842E912CB12CA12CCE
:10365000A50194010E94C33AE62FB901CA01EA30DC
:1036600004F5E05DD801EE938D01232B242B252B4F
:1036700079F790E080E0109729F0BD0184E392E0B3
:103680000E94FE1AA1960FB6F894DEBF0FBECDBF02
:10369000DF91CF911F910F91BF90AF909F908F902E
:1036A0000895E95CDFCF009729F0BC0189EE92E034
:1036B0000C94FE1A90E080E008950F931F93809180
:1036C000F4019091F501892B81F48CE296E10E943E
:1036D000611360E289EE92E00E94590C63E489EE86
:1036E00092E01F910F910C94590C6091F60170912A
:1036F000F7018091F8019091F9010AEF11E021E0C2
:1037000044E00E9494320E94531BE3CF0F931F9317
:10371000CF93DF93CDB7DEB728970FB6F894DEBF0F
:103720000FBECDBF41E060E889EE92E00E948B13AE
:103730008DE294E10E946113E091E802F0E0EE0F67
:10374000FF1FE757FB4E6591749190E080E00E9467
:10375000F1388E010F5F1F4F20E046E00E94943247
:1037600041E06AE889EE92E00E948B13C8010E9452
:10377000531B41E060EC89EE92E00E948B13809134
:1037800069018823B9F08EE194E10E9461131092DF
:10379000EE021092ED021092FD021092FC022896A9
:1037A0000FB6F894DEBF0FBECDBFDF91CF911F9152
:1037B0000F9108958FE094E10E94611383E796E1F1
:1037C0009093EE028093ED028DE796E19093FD02D7
:1037D0008093FC02E4CF8BEE9BE10E948918E9EE16
:1037E000F2E08BE49DE193A382A385E799E192AB9C
:1037F00081AB84EA96E194AB83AB81EA9FE190933D
:103800002A03809329038CE49DE290932C038093F8
:103810002B0386E89BE190935501809354010C940F
:10382000861B0F931F93CF930E940813C82F0E94EB
:10383000AF1341E069E889EE92E00E948B1360913A
:10384000D8027091D902072E000C880B990B0E94A8
:10385000F33820E030E048EC52E40E9449380AEFA7
:1038600011E022E046E00E9494320E94531B6C2F2C
:10387000606841E089EE92E00E948B13CF911F9126
:103880000F910C94A51383E49CE10E94891881E4B4
:1038900093E10E9461130E94111C41E06FE889EEE0
:1038A00092E00E948B1363E489EE92E00E94590C2F
:1038B000E9EEF2E089EB9CE193A382A387E198E132
:1038C00090932A038093290389E299E192AB81AB1B
:1038D0008DE895E2958384838FE595E29093550179
:1038E000809354018091D8029091D90290935A010B
:1038F0008093590188ED92E090935E0180935D0181
:1039000081E19CE190935C0180935B0108950F93AA
:103910001F93CF930E940813C82F0E94AF1341E05A
:1039200069E889EE92E00E948B136091D602709153
:10393000D702072E000C880B990B0E94F33820E069
:1039400030E048EC52E40E9449380AEF11E022E0EE
:1039500046E00E9494320E94531B6C2F606841E045
:1039600089EE92E00E948B13CF911F910F910C94DE
:10397000A51389EB9CE10E94891888E393E10E94DA
:1039800061130E94871C41E06FE889EE92E00E947B
:103990008B1363E489EE92E00E94590CE9EEF2E0A9
:1039A0008EE49DE293A382A387E198E190932A039A
:1039B0008093290383E49CE192AB81AB8DE895E28F
:1039C000958384838EE99EE1909355018093540101
:1039D0008091D6029091D70290935A018093590119
:1039E00086ED92E090935E0180935D0187E89CE113
:1039F00090935C0180935B0108950F931F93CF9385
:103A0000DF9341E060E889EE92E00E948B1381EF42
:103A100095E10E94611341E068E889EE92E00E941E
:103A20008B13C8EBD1E0688179818A819B810AEF91
:103A300011E020E044E00E9494320E94531B85EA8A
:103A400093E10E94611341E060EC89EE92E00E94F4
:103A50008B138EE993E10E94611341E068EC89EEDB
:103A600092E00E948B136C817D818E819F8122E088
:103A700046E00E9494320E94531B60E289EE92E07D
:103A80000E94590C63E489EE92E0DF91CF911F917F
:103A90000F910C94590C8BE49DE10E948918E9EE7A
:103AA000F2E08AED90E293A382A38BEE9BE192ABCE
:103AB00081AB84EA96E194AB83AB8DEF9CE190936C
:103AC0005301809352010C94FD1C0F931F93FC0132
:103AD00020813181232B59F483E49AE00E94611301
:103AE00063E489EE92E01F910F910C94590C62816E
:103AF0007381848195810AEF11E022E046E00E9403
:103B000094320E94531BECCF41E060EC89EE92E0CE
:103B10000E948B1387EE93E10E94611380ED91E088
:103B20000C94651DCF92DF92EF92FF920F931F933B
:103B30008091010141E060E88430E1F489EE92E097
:103B40000E948B1388ED93E10E94611341E060ECC9
:103B500089EE92E00E948B1381ED93E10E94611344
:103B600086EC91E01F910F91FF90EF90DF90CF9046
:103B70000C94651D89EE92E00E948B1389EC93E111
:103B80000E94611341E060EC89EE92E00E948B1389
:103B90008091C6019091C701892BC9F0C090CC01DA
:103BA000D090CD01E090CE01F090CF016091E20283
:103BB000062E000C770B880B990B0E94F3389B01A3
:103BC000AC01C701B6010E94443887FF28C083ECCE
:103BD00093E10E94611369EB73E189EE92E00E9428
:103BE000600CE0910101F0E0EF52FD4F608170E068
:103BF00090E080E00E94F1380AEF11E020E042E01E
:103C00000E9494320E94531B65E289EE92E01F915C
:103C10000F91FF90EF90DF90CF900C94590C20E023
:103C200030E0A901C701B6010E94443887FF03C0F4
:103C30008DEB93E1CECF0AEF11E021E044E0C70124
:103C4000B6010E9494320E94531B65E289EE92E015
:103C50000E94590CC0CFCF92DF92EF92FF920F9348
:103C60001F9386EC91E00E94651D60E289EE92E070
:103C70000E94590C8091C6019091C701892BC9F00F
:103C8000C090CC01D090CD01E090CE01F090CF015A
:103C90006091E202062E000C770B880B990B0E94B4
:103CA000F3389B01AC01C701B6010E94443887FF7D
:103CB00012C083EC93E10E946113E0910101E430B2
:103CC00031F581EF92E11F910F91FF90EF90DF901E
:103CD000CF900C94611320E030E0A901C701B60138
:103CE0000E94443887FF03C08DEB93E1E4CF0AEFD5
:103CF00011E021E044E0C701B6010E9494320E9425
:103D0000531B65E289EE92E00E94590CD6CFF0E099
:103D1000EF52FD4F608170E090E080E00E94F1384A
:103D20000AEF11E020E043E00E9494321F910F91CE
:103D3000FF90EF90DF90CF900C94531BCF930E9495
:103D40000813C82F0E94AF1341E060EC89EE92E0A7
:103D50000E948B130E942B1E6C2F606841E089EE3D
:103D600092E00E948B13CF910C94A5138091C60111
:103D70009091C701019741F441E060E889EE92E03B
:103D80000E948B130C942B1E08954F925F926F929A
:103D90007F928F929F92AF92BF92CF92DF92EF92DB
:103DA000FF920F931F93CF936B017C01742EAC0194
:103DB0009B010E94653A65E271E0811126C04601CF
:103DC0005701E894B7F82FEF3FEF4FE75FE7C501E2
:103DD000B4010E94653A81110CC02FEF3FEF4FE70D
:103DE0005FE7C501B4010E94443869E271E018162A
:103DF00064F02FEF3FEF4FE75FE4C701B6010E9489
:103E0000A3391816ACF46DE271E084E392E0CF912F
:103E10001F910F91FF90EF90DF90CF90BF90AF90E8
:103E20009F908F907F906F905F904F900C94FE1AB0
:103E30002FEF3FEF4FE75FECC701B6010E94443818
:103E400087FDE1CF20E030E0A901C701B6010E9463
:103E5000443810E000E087FF0AC06DE284E392E09E
:103E60000E94590C8C01F7FAF094F7F8F094C0E036
:103E700060E070E080E09FE37C1641F020E030E0FD
:103E800040E251E40E944938CF5FF6CFA701960186
:103E90000E94D8372B013C010E94C2384B015C01C3
:103EA0004AE00E940D1B7C01E00EF11ECC23C1F103
:103EB000C501B4010E94F1389B01AC01C301B201FC
:103EC0000E94D7374B015C016EE284E392E00E94CE
:103ED000590CE80EF91EC15018F120E030E040E224
:103EE00051E4C501B4010E94F8392B013C010E9444
:103EF000C2384B01B12CA12C4AE0C501B4010E948B
:103F00000D1BE80EF91EC501B4010E94F1389B019A
:103F1000AC01C301B2010E94D7374B015C01DBCF7A
:103F2000C701CF911F910F91FF90EF90DF90CF903D
:103F3000BF90AF909F908F907F906F905F904F90C9
:103F40000895CF92DF92EF92FF928091690191E004
:103F5000892780936901882309F488C0E091E802E9
:103F6000F0E0EE0FFF1FE757FB4EC590D490F12C09
:103F7000E12CE0914402F091450282E08083C1147B
:103F800081EED806E104F104A1F060E079E08DE370
:103F900090E0A70196010E94C33A215031094109DE
:103FA00051095695479537952795211580E1380792
:103FB000A8F0E0914402F0914502108260E874E8B4
:103FC0008EE190E0A70196010E94C33A2150310989
:103FD000410951095695479537952795E09140023B
:103FE000F09141023083E0914202F091430220833C
:103FF00010924C02E0914802F091490286E08083E1
:10400000E0914602F0914702808180618083E091D7
:104010004602F0914702808188608083E0914602E9
:10402000F0914702808180688083E0914602F091A0
:10403000470280818F7D80830E94510F60936501CC
:1040400070936601809367019093680188E394E11F
:104050000E94581661E371E084E392E00E94FE1A28
:10406000FF90EF90DF90CF900C94861B84E392E05A
:104070000E94710DE0914602F091470280818F7E8F
:104080008083E0914602F09147028081877F8083A0
:10409000E0914602F091470280818F778083E09122
:1040A0004602F091470280818F7D808380914E028D
:1040B00080934D02D5CFEF92FF920F931F93CF9332
:1040C000DF9300D000D000D0CDB7DEB741E060E88C
:1040D00089EE92E00E948B1389E094E10E946113C3
:1040E00041E066E889EE92E00E948B130E945D1B1E
:1040F00041E060EC89EE92E00E948B1386E0E4E3FD
:10410000F1E09E012F5F3F4F7901D90101900D929F
:104110008A95E1F78091E102882369F06091C201FC
:104120007091C3018091C4019091C501890121E082
:1041300045E00E949432FF92EF928BEF93E19F93C0
:104140008F938AEF91E09F938F930E94B2328AEF10
:1041500091E00E94531B41E064E989EE92E00E94E5
:104160008B1385EF93E10E94611380EE91E00E9432
:10417000651D41E064ED89EE92E00E948B138FEEA5
:1041800093E10E9461138AEE91E00E94651D0F90F9
:104190000F900F900F900F900F9026960FB6F894F7
:1041A000DEBF0FBECDBFDF91CF911F910F91FF906A
:1041B000EF9008958AED90E20E948918E9EEF2E00E
:1041C0008DE895E293A382A38EE69DE290932C0363
:1041D00080932B038BE49DE192AB81AB8DEC96E158
:1041E000948B838B9583848384EA96E194AB83AB31
:1041F0008BE590E290935301809352010C945B20E5
:10420000EF92FF920F931F93CF93DF93CDB7DEB75B
:104210002A970FB6F894DEBF0FBECDBF41E060EC29
:1042200089EE92E00E948B1380915F019091600172
:104230008230910509F44BC078F4019701F12A9678
:104240000FB6F894DEBF0FBECDBFDF91CF911F91A7
:104250000F91FF90EF9008958330910509F440C0CD
:10426000049769F789E094E10E94611341E066ECEC
:1042700089EE92E00E948B130E945D1BE0CF60915B
:10428000C2017091C3018091C4019091C5019E014A
:104290002F5F3F4F7901890121E045E00E94943270
:1042A000FF92EF928BEF93E19F938F938AEF91E0D0
:1042B0009F938F930E94B2328AEF91E00E94531B2A
:1042C0000F900F900F900F900F900F90B8CF85EF39
:1042D00093E10E94611380EE91E00E94651DAFCFD3
:1042E0008FEE93E10E9461138AEE91E0F6CFCF92B8
:1042F000DF92EF92FF92CF93DF938091E102C09122
:104300006301D0916401882309F45AC0C090C201AE
:10431000D090C301E090C401F090C50120E030E0EE
:10432000A901C701B6010E94A339181624F0F7FAB3
:10433000F094F7F8F0946091DD0270E090E080E096
:104340000E94F338A70196010E94443887FF38C0C5
:1043500081E090E09093600180935F0180915F0124
:1043600090916001C130D10509F413C108F4EFC088
:10437000C230D10509F413C1239709F414C1809107
:104380005F0190916001892B09F07EC1C0915601B7
:10439000D09157018091500190915101892B09F0E2
:1043A00010C1209709F00DC187E00E94C71010923C
:1043B0009601DF91CF91FF90EF90DF90CF9008951D
:1043C0008091DE02882309F449C08091E001909138
:1043D000E101892B09F43FC0C090E201D090E301D4
:1043E000E090E401F090E5016091E302062E000CFC
:1043F000770B880B990B0E94F3389B01AC01C70126
:10440000B6010E94A339181634F12091E6013091CB
:10441000E7014091E8015091E901C701B6010E940E
:10442000D73720E030E048EC52E40E94F8396B01C5
:104430007C016091E4027091E502072E000C880B6C
:10444000990B0E94F3389B01AC01C701B6010E9491
:10445000A33918161CF482E090E07CCF8091DF0233
:10446000882309F449C08091EA019091EB01892BDE
:1044700009F43FC0C090EC01D090ED01E090EE0156
:10448000F090EF016091E302062E000C770B880B91
:10449000990B0E94F3389B01AC01C701B6010E9441
:1044A000A339181634F12091F0013091F1014091B7
:1044B000F2015091F301C701B6010E94D73720E005
:1044C00030E048EC52E40E94F8396B017C016091C5
:1044D000E4027091E502072E000C880B990B0E94F4
:1044E000F3389B01AC01C701B6010E94A33918162D
:1044F0001CF483E090E02ECF8091E0028823F1F05D
:104500008091F4019091F501892BA9F06091DC0272
:1045100070E090E080E00E94F3389B01AC01609174
:10452000F6017091F7018091F8019091F9010E94D4
:10453000A33918161CF484E090E00CCFC330D105E9
:1045400009F00CCF1092600110925F0107CF892B08
:1045500009F415CF81E090E09093640180936301AA
:104560001092910190E080E00E94891888E896E11D
:1045700090932A03809329038AE49AE00E946113AE
:1045800080E091E290935301809352010E940021B8
:10459000F6CE81E0809396010E94190EF0CE81E064
:1045A00080939601ECCE10929601892B21F081E048
:1045B0000E94C710E4CE109264011092630187E05C
:1045C000F7CF8091D0019091D101892BB1F060910A
:1045D000D50270E090E080E00E94F3389B01AC01CE
:1045E0006091D2017091D3018091D4019091D50155
:1045F0000E94A33918160CF454C0C230D10539F00A
:10460000239709F05EC081E0809396015AC0109212
:10461000910190E080E00E9489188AE598E19093EA
:104620002A038093290380E59AE00E94611384E8BD
:104630009DE190935301809352010E94841D41C0DB
:104640001092910190E080E00E9489188EE899E133
:1046500090932A038093290382E99DE1909353016B
:10466000809352010E94921D89C0C11187C081E0D0
:1046700090E0909351018093500180C0DD2311F0B0
:1046800084E0A9C082E0A7C060E08EE0DF91CF9116
:10469000FF90EF90DF90CF900C94BA0DC111F0CF46
:1046A00092C0C230D10509F4B2CFC330D10509F4AC
:1046B000AACF219731F482E090E090935701809344
:1046C0005601C090CC01D090CD01E090CE01F09089
:1046D000CF018091C6019091C701892BF1F020E0B4
:1046E00030E0A901C701B6010E94443887FF15C018
:1046F000C0910101C43008F476C06091E202062E38
:10470000000C770B880B990B0E94F338A7019601D8
:104710000E944438C1E087FD1FC020E030E0A901BD
:10472000C701B6010E94A33987FD15C0C0910101E0
:10473000C43088F4EC2FF0E0EF52FD4F608170E060
:1047400090E080E00E94F338C1E0A70196010E944A
:10475000A33918160CF0C0E08091500190915101DE
:104760008230910509F46CCF8430910509F47DCF36
:10477000019721F482E090E0C1117BCF2091560196
:1047800030915701C9010297C1E0029748F080912A
:104790005001909151010297C1E0029708F0C0E0EA
:1047A000C0939601D0915801D11178CF22303105B4
:1047B00031F08091500190915101029711F40E94C3
:1047C000190EC1115FCF8091500190915101049752
:1047D00009F054CF81E0DF91CF91FF90EF90DF900F
:1047E000CF900C94C71020E030E0A901C701B601BA
:1047F0000E94A33987FF9ECFAECF8DEF93E20E9438
:104800008918E9EEF2E08EE394E293A382A38EE4AA
:104810009DE292AB81AB84E695E190932A0380936D
:1048200029038DE895E29583848341E060E8CF0118
:104830000E948B1381E893E10E94611341E062ECD6
:1048400089EE92E00E948B13E1EDF2E086898F936E
:1048500085898F9384E793E19F938F938AEF91E00B
:104860009F938F930E94B2320F900F900F900F90F2
:104870000F900F908AEF91E00C94531B0F931F93AE
:10488000CF93DF938EE394E20E948918E9EEF2E081
:1048900089E299E193A382A38DEF93E292AB81AB7E
:1048A0008FEB95E190932A03809329038DE895E29D
:1048B0009583848301ED12E0F80183851F928F9325
:1048C00084E693E19F938F93CAEFD1E0DF93CF9378
:1048D0000E94B232CE010E94531B41E060EC89EE8F
:1048E00092E00E948B13F80184851F928F9380E5DC
:1048F00093E19F938F93DF93CF930E94B232EDB7F2
:10490000FEB73C960FB6F894FEBF0FBEEDBFCE01CA
:10491000DF91CF911F910F910C94531B0F931F9315
:10492000CF93DF938EE894E20E948918C1EDD2E024
:1049300089811F928F9388811F928F9381E193E1E8
:104940009F938F930AEF11E01F930F930E94B2324F
:10495000C8010E94531B41E060EC89EE92E00E9486
:104960008B138C811F928F938B811F928F938A81DF
:104970001F928F9385EF92E19F938F931F930F93D5
:104980000E94B232C8010E94531BE9EEF2E085E7B3
:1049900099E193A382A38DE895E292AB81AB84EA7F
:1049A00096E194AB83AB89E297E190932A038093DD
:1049B00029038DB79EB742960FB6F8949EBF0FBEDF
:1049C0008DBFDF91CF911F910F910895CF92DF920C
:1049D000EF92FF920F931F9380ED91E00E94651D6F
:1049E00060E289EE92E00E94590C8091DE01909184
:1049F000DF0118161906BCF52091D5021F922F93DE
:104A00006CE370E00E94AF3A9F938F937F936F9314
:104A10008AE391E09F938F938AEF91E09F938F9326
:104A20000E94213B8AEF91E00E94531B8DB79EB7F5
:104A30000A960FB6F8949EBF0FBE8DBF60E289EE56
:104A400092E00E94590C60E289EE92E00E94590CBB
:104A500060E289EE92E01F910F91FF90EF90DF905E
:104A6000CF900C94590C8091D0019091D101892B59
:104A700089F0C090D601D090D701E090D801F09095
:104A8000D90120E030E0A901C701B6010E944438F5
:104A900087FF05C083EC93E10E946113CFCF0AEF3B
:104AA00011E021E044E0C701B6010E9494320E9467
:104AB000531B65E289EE92E00E94590CBFCFCF9361
:104AC0000E940813C82F0E94AF1341E060EC89EEEA
:104AD00092E00E948B130E94E6246C2F606841E0F4
:104AE00089EE92E00E948B13CF910C94A5138091D4
:104AF000C6019091C701019741F041E060E889EE5D
:104B000092E00E948B130E942B1E41E060EC89EE24
:104B100092E00E948B130C94E6248DE895E20E94AB
:104B20008918E9EEF2E08EE894E293A382A384E789
:104B300098E1948B838B908F878B8FE798E1958397
:104B40008483918780878AEA99E190932A038093EE
:104B500029038AE199E190932C0380932B038AED3A
:104B600090E292AB81AB84EA96E194AB83AB86EBA7
:104B70009EE1909355018093540187E795E29093CD
:104B80005301809352010C9477258F929F92AF929C
:104B9000BF92CF92DF92EF92FF926B017C01CA012C
:104BA000B90120E030E54DE754E40E9449380E9405
:104BB000B0394B015C0127E139E54CE952E4C7010A
:104BC000B6010E94D8376B017C0120E038EE41E845
:104BD00055E4C501B4010E94F83929E739EA4FEAE2
:104BE00053E40E94F83920E438E143E95BE40E9491
:104BF000D7379B01AC0169EE7DED89EC9FEC0E94FB
:104C0000493823E333E948E853E40E94D7379B014E
:104C1000AC01C701B6010E94D73720E030E048EC74
:104C200052E40E94F83920E030E040E05FE30E9467
:104C3000D8370E94BB386A587E4177FF15C0072ECF
:104C4000000C880B990B0E94F3382AE037ED43E201
:104C50005CE30E94F839FF90EF90DF90CF90BF9017
:104C6000AF909F908F900895673888E078076CF533
:104C7000FB01E454FE4F683C82E0780784F46491C1
:104C800070E07D5F072E000C880B990B0E94F338B3
:104C900020E030E040E251E40E944938DCCF6E333E
:104CA00086E0780724F4649170E07E5FEBCF6B3A86
:104CB000774024F4649170E07395E4CF649170E0E0
:104CC00090E080E00E94F138E3CF60E070E0CB013B
:104CD000C2CF4F925F926F927F928F929F92AF92CC
:104CE000BF92CF92DF92EF92FF92CF93DF93CDB737
:104CF000DEB728970FB6F894DEBF0FBECDBF46E0F3
:104D000067EF80913D030E946711882309F4C5C2B3
:104D10008DE495E990933F0380933E03C12CD12C01
:104D20007601C701B6010E94F33820E030E048EC7C
:104D300052E40E9449386093B8017093B90180939E
:104D4000BA019093BB0120E030E54DE754E40E94A6
:104D500049380E94B03920E038EE41E855E40E941D
:104D6000F83923E333E94AEB53E40E94F83928E0A9
:104D70003BE14BE95BE40E94D7379B01AC0166EA5B
:104D800075E182EE9FEC0E94493823E333E948E85D
:104D900053E40E94D7376093BC017093BD018093A8
:104DA000BE019093BF018091C6019091C7018230EE
:104DB000910509F01AC46091D6027091D70249E7B3
:104DC00053E086EC91E00E94DB198823D1F020911A
:104DD000B8013091B9014091BA015091BB01609185
:104DE000C8017091C9018091CA019091CB010E94C4
:104DF000C5256093CC017093CD018093CE01909333
:104E0000CF016091D8027091D90244E853E080ED5F
:104E100091E00E94DB19882309F425C420E030E5E5
:104E20004DE754E46091B8017091B9018091BA01E5
:104E30009091BB010E9449380E94B0394B015C013E
:104E400020E030E048EC52E46091D2017091D3014F
:104E50008091D4019091D5010E94D8376B017C01DB
:104E600020E038EE41E855E4C501B4010E94F8396C
:104E700023E333E94AEB53E40E94F83928E03BE1AD
:104E80004BE95BE40E94D7379B01AC0166EA75E110
:104E900082EE9FEC0E94493823E333E948E853E46B
:104EA0000E94D7379B01AC01C701B6010E94D737DA
:104EB00020E030E048EC52E40E94F83920E030E095
:104EC00040E05FE30E94D8370E94BB386A587E41B9
:104ED00077FF95C3072E000C880B990B0E94F338BF
:104EE0002AE037ED43E25CE30E94F8396093D60193
:104EF0007093D7018093D8019093D9018091E102FA
:104F0000882309F440C082E480937C0080917A0079
:104F1000806480937A0080917A0086FDFCCF809136
:104F2000780060917900762F682F7093C1016093AB
:104F3000C0018091DA029091DB02681B790B072E89
:104F4000000C880B990B0E94F33823E333E347E40A
:104F500052E40E94F8396B017C016091E602709185
:104F6000E70290E080E00E94F1389B01AC01C701AC
:104F7000B6010E9449386093C2017093C3018093C7
:104F8000C4019093C5018091DE02882311F18091C4
:104F9000E2019091E301A091E401B091E5018093D9
:104FA000E6019093E701A093E801B093E9014EE692
:104FB00053E070E060E080EE91E00E94DB19811127
:104FC00008C08EE693E00E94961A9093E1018093C8
:104FD000E0018091DF02882311F18091EC01909132
:104FE000ED01A091EE01B091EF018093F00190935B
:104FF000F101A093F201B093F30143E653E070E0B6
:1050000060E08AEE91E00E94DB19811108C083E61E
:1050100093E00E94961A9093EB018093EA018091AD
:10502000E002882391F048E553E070E060E084EF0F
:1050300091E00E94DB19811108C088E593E00E948D
:10504000961A9093F5018093F401E0915201F0914A
:105050005301309709F0099580916901882309F47B
:1050600026C30E94510FC0906501D0906601E09068
:105070006701F09068016C197D098E099F0928EE7F
:1050800033E040E050E00E94C33ACA01B9014AE06F
:105090000E940D1B6CE284E392E00E94590C609127
:1050A000B8017091B9018091BA019091BB0140E0C3
:1050B0000E94C51E6CE284E392E00E94590C80912C
:1050C000C6019091C701892B59F06091C801709178
:1050D000C9018091CA019091CB0142E00E94C51E96
:1050E0006CE284E392E00E94590CC090CC01D09015
:1050F000CD01E090CE01F090CF0120E030E0A90199
:10510000C701B6010E94A33918162CF441E0C7016B
:10511000B6010E94C51E6CE284E392E00E94590C25
:105120008091D0019091D101892B59F06091D201E9
:105130007091D3018091D4019091D50142E00E94F9
:10514000C51E6CE284E392E00E94590CC090D60127
:10515000D090D701E090D801F090D90120E030E064
:10516000A901C701B6010E94A33918162CF441E029
:10517000C701B6010E94C51E6CE284E392E00E9462
:10518000590C8091DE02882389F08091E001909192
:10519000E101892B59F06091E2017091E301809166
:1051A000E4019091E50142E00E94C51E6CE284E3B7
:1051B00092E00E94590C8091DF02882389F080914F
:1051C000EA019091EB01892B59F06091EC0170910B
:1051D000ED018091EE019091EF0142E00E94C51E29
:1051E0006CE284E392E00E94590C8091E0028823F3
:1051F00089F08091F4019091F501892B59F060912B
:10520000F6017091F7018091F8019091F90142E067
:105210000E94C51E6CE284E392E00E94590C8091CA
:10522000E102882359F06091C2017091C30180911D
:10523000C4019091C50141E00E94C51E6CE284E367
:1052400092E00E94590C80915F0190916001823040
:10525000910509F426C208F00FC2009709F415C29F
:10526000019709F419C261E371E084E392E02896A2
:105270000FB6F894DEBF0FBECDBFDF91CF91FF9088
:10528000EF90DF90CF90BF90AF909F908F907F90E6
:105290006F905F904F900C94FE1A0E94440BF82E72
:1052A0000E94440BE82E0E94440BD82E0E94440B0F
:1052B000C82E0E94440BB82E0E94440B482F5B2D31
:1052C0006C2D70E0D982EA82FB821C8280914003BF
:1052D00090914103B0E0A0E0C52ED62EE72EFF242A
:1052E000E7FCFA94C81AD90AEA0AFB0A37E075956E
:1052F0006795579547953A95D1F7880F991FAA1F3B
:10530000BB1F9A01AB01281B390B4A0B5B0BA09109
:105310004203B09143030E94FF3A4B015C01FBE062
:10532000B594A79497948794FA95D1F7A70196011D
:10533000C701B6010E949F3A9B01AC01ACE05595B4
:10534000479537952795AA95D1F7A0914403B09139
:1053500045030E94FF3ABEE095958795779567953E
:10536000BA95D1F7860E971EA81EB91EA5E0B0E02B
:10537000A50194010E94F43A60587F4F8F4F9F4FD0
:10538000672F782F892F992787FD9A9570933F0370
:1053900060933E03B594A794979487948AEF981AE4
:1053A000A108B108C501B40142E0959587957795AC
:1053B00067954A95D1F79B01AC010E949F3A2B015A
:1053C0003C01A0914A03B0914B03AC019B016DE0FD
:1053D00055954795379527956A95D1F70E94FF3ADD
:1053E0006B017C0173E0F594E794D794C7947A95A8
:1053F000D1F7A0914803B0914903A50194010E94FF
:10540000FF3A9B01AC0155954795379527952C0D93
:105410003D1D4E1D5F1DF2E155954795379527952A
:10542000FA95D1F730584F4F5F4FA0914603B09196
:1054300047030E94F43A6B017C01AFE0F594E794D6
:10544000D794C794AA95D1F7C114D104E104F1040B
:1054500009F467CCA30192016BE055954795379508
:1054600027956A95D1F7A0915003B09151030E94FE
:10547000FF3A6D837E838F839887A0914E03B0910E
:105480004F03A50194010E94FF3A4B015C01880C77
:10549000991CAA1CBB1C8D819E81AF81B885880E8A
:1054A000991EAA1EBB1EE2E0B594A7949794879418
:1054B000EA95D1F780914C0390914D03092E000C91
:1054C000AA0BBB0BAC0133272227280D391D4A1D1F
:1054D0005B1DACE05595479537952795AA95D1F773
:1054E00049805A806B807C80B4E0759467945794AF
:1054F0004794BA95D1F7240D351D461D571DABECC9
:10550000B3EF0E94023B805B9C4397FD63C0660F34
:10551000771F881F991FA70196010E94C33A29018E
:105520003A01C301B20123E0969587957795679577
:105530002A95D1F79B01AC010E949F3A9B01AC01D7
:105540006DE056954795379527956A95D1F7A091C7
:105550005603B09157030E94FF3A4B015C017CE077
:10556000B594A794979487947A95D1F7A301920163
:10557000E2E05695479537952795EA95D1F7A091A2
:105580005403B09155030E94FF3A6B017C01FDE08A
:10559000F594E794D794C794FA95D1F7C80CD91C21
:1055A000EA1CFB1C8090520390905303092C000CC2
:1055B000AA08BB08C80CD91CEA1CFB1CA4E0F59483
:1055C000E794D794C794AA95D1F7C40CD51CE61CD0
:1055D000F71CA7CBA70196010E94C33A29013A0103
:1055E000440C551C661C771C9CCF892B09F009CCF8
:1055F0000E94DD1A9093C7018093C60102CC6738E0
:1056000098E0790764F5FB01E65AF54F643B7105B4
:1056100084F4649170E07D5F072E000C880B990B79
:105620000E94F33820E030E040E251E40E94493823
:105630005DCC6C3CA1E07A0724F4649170E07E5F5D
:10564000EBCF6F35734024F4649170E07395E4CF31
:10565000649170E090E080E00E94F138E3CF60E078
:1056600070E0CB0143CC84E893E00E94961A9093BB
:10567000D1018093D00142CC83309105A9F00497E9
:1056800009F0F1CD89E094E109C061EE72E184E3B3
:1056900092E00E94600CE7CD8AE493E10E945816E4
:1056A000E2CD85EF93E1FACF8FEE93E1F7CF289625
:1056B0000FB6F894DEBF0FBECDBFDF91CF91FF9044
:1056C000EF90DF90CF90BF90AF909F908F907F90A2
:1056D0006F905F904F9008958F929F92AF92BF927C
:1056E000CF92DF92EF92FF928091C6019091C70115
:1056F000019739F480918001813099F0823009F46A
:10570000C5C0E0915401F0915501309709F4C3C030
:10571000FF90EF90DF90CF90BF90AF909F908F90D1
:105720000994609178017091790180917A0190914A
:105730007B0180907C0190907D01A0907E01B090D3
:105740007F010E94F1386B017C01C501B4010E9408
:10575000F1389B01AC01C701B6010E9449386B01C9
:105760007C01AC019B010E94F8392DE33AE047EB44
:105770005FEB0E94F8394B015C012CE53FE846E500
:1057800053E4C701B6010E94F8399B01AC01C50181
:10579000B4010E94D83723E333E349E852E40E947E
:1057A000D7376B017C016091D6027091D702072E2A
:1057B000000C880B990B0E94F33820E030E048EC95
:1057C00052E40E9449389B01AC01C701B6010E9416
:1057D000D8376093C8017093C9018093CA01909330
:1057E000CB012091B8013091B9014091BA0150919B
:1057F000BB010E94C5256093CC017093CD018093BD
:10580000CE019093CF0180917C0190917D01A09178
:105810007E01B0917F01892B8A2B8B2BA1F16091A6
:105820007C0170917D0180917E0190917F0120919A
:1058300081013091820150E040E00E94C33ACA01E8
:10584000B9010E94F1389B01AC0160E074E284E789
:105850009BE40E94493820E030E44CE956E40E9481
:10586000F83920E030E04AE754E40E94F83921E0BA
:105870003BE147E35FE40E9449380E94C238CB0114
:105880000E9449123ECF81E090E0FACF1092C7010A
:105890001092C60136CFFF90EF90DF90CF90BF906F
:1058A000AF909F908F900895FF920F931F93CF9387
:1058B000DF9390E080E00E948A37813029F061E038
:1058C00090E080E00E94923701ED12E0C2E0D0E06B
:1058D000F801F1908F01CE010E948A37F81621F06D
:1058E0006F2DCE010E9492372196CA31D10581F7E2
:1058F000DF91CF911F910F91FF90089541E062ECED
:1059000089EE92E00E948B1384E00E944018009779
:1059100071F0803127E2920710F08FE097E29093C8
:10592000E7028093E6020E94542C0C94161981E041
:1059300090E0F5CFCF93DF930E94AF1341E068E88A
:1059400089EE92E00E948B1382E00E944018C1ED24
:10595000D2E08B8741E068EC89EE92E00E948B13E5
:1059600082E00E9440188C870E94542CDF91CF91D6
:105970000C9416190E94AF1341E065E889EE92E09D
:105980000E948B130E941913853479F581E080936E
:10599000DE0241E06DE889EE92E00E948B130E94E6
:1059A0001913853449F581E08093DF0241E065EC0D
:1059B00089EE92E00E948B130E941913853419F529
:1059C00081E08093E00241E06DEC89EE92E00E947C
:1059D0008B130E94191391E0853409F090E09093A5
:1059E000E1020E94542C0C9416191092DE021092BF
:1059F000E1011092E001CDCF1092DF021092EB0195
:105A00001092EA01D3CF1092E0021092F5011092A9
:105A1000F401D9CFCF93DF930E94AF1341E062E846
:105A200089EE92E00E948B1382E00E944018C1ED43
:105A3000D2E0888341E068E889EE92E00E948B130F
:105A400082E00E944018898341E062EC89EE92E096
:105A50000E948B1382E00E9440188A8341E068EC28
:105A600089EE92E00E948B1382E00E9440188B83A3
:105A700041E06DEC89EE92E00E948B1382E00E947F
:105A800040188C830E94542CDF91CF910C941619EE
:105A90000E94542C0C9416190C94482D8EE49DE20F
:105AA0000E94891882E993E10E9461138DEF93E2CD
:105AB00090930C0380930B038DE895E290932A0357
:105AC0008093290389EB9CE190931B0380931A0335
:105AD00080918C0181110C94542C08958091C00107
